{
  "_format": "hh-sol-artifact-1",
  "contractName": "SesameNative",
  "sourceName": "contracts/SesameNative.sol",
  "abi": [
    {
      "inputs": [
        {
          "internalType": "address",
          "name": "_governance",
          "type": "address"
        },
        {
          "internalType": "address",
          "name": "_token",
          "type": "address"
        },
        {
          "internalType": "address",
          "name": "_priceFeed",
          "type": "address"
        },
        {
          "internalType": "uint256",
          "name": "_ticketPrice",
          "type": "uint256"
        },
        {
          "internalType": "uint256",
          "name": "_ticketPerRound",
          "type": "uint256"
        },
        {
          "internalType": "uint256",
          "name": "_feePercent",
          "type": "uint256"
        },
        {
          "internalType": "string",
          "name": "_version",
          "type": "string"
        }
      ],
      "stateMutability": "nonpayable",
      "type": "constructor"
    },
    {
      "anonymous": false,
      "inputs": [
        {
          "indexed": true,
          "internalType": "address",
          "name": "winner",
          "type": "address"
        },
        {
          "indexed": true,
          "internalType": "uint256",
          "name": "round",
          "type": "uint256"
        },
        {
          "indexed": false,
          "internalType": "uint256",
          "name": "price",
          "type": "uint256"
        }
      ],
      "name": "DeclareWinner",
      "type": "event"
    },
    {
      "anonymous": false,
      "inputs": [
        {
          "indexed": true,
          "internalType": "uint256",
          "name": "round",
          "type": "uint256"
        }
      ],
      "name": "EndedRound",
      "type": "event"
    },
    {
      "anonymous": false,
      "inputs": [
        {
          "indexed": true,
          "internalType": "address",
          "name": "by",
          "type": "address"
        },
        {
          "indexed": true,
          "internalType": "uint256",
          "name": "round",
          "type": "uint256"
        },
        {
          "indexed": false,
          "internalType": "uint256",
          "name": "tickets",
          "type": "uint256"
        }
      ],
      "name": "EnterTicket",
      "type": "event"
    },
    {
      "anonymous": false,
      "inputs": [
        {
          "indexed": true,
          "internalType": "uint256",
          "name": "round",
          "type": "uint256"
        }
      ],
      "name": "StartedRound",
      "type": "event"
    },
    {
      "inputs": [],
      "name": "activate",
      "outputs": [],
      "stateMutability": "nonpayable",
      "type": "function"
    },
    {
      "inputs": [],
      "name": "currentFees",
      "outputs": [
        {
          "internalType": "uint256",
          "name": "",
          "type": "uint256"
        }
      ],
      "stateMutability": "view",
      "type": "function"
    },
    {
      "inputs": [],
      "name": "currentFund",
      "outputs": [
        {
          "internalType": "uint256",
          "name": "",
          "type": "uint256"
        }
      ],
      "stateMutability": "view",
      "type": "function"
    },
    {
      "inputs": [],
      "name": "deactivate",
      "outputs": [],
      "stateMutability": "nonpayable",
      "type": "function"
    },
    {
      "inputs": [
        {
          "internalType": "uint256",
          "name": "ticket",
          "type": "uint256"
        }
      ],
      "name": "enter",
      "outputs": [],
      "stateMutability": "payable",
      "type": "function"
    },
    {
      "inputs": [],
      "name": "feePerTicket",
      "outputs": [
        {
          "internalType": "uint256",
          "name": "",
          "type": "uint256"
        }
      ],
      "stateMutability": "view",
      "type": "function"
    },
    {
      "inputs": [],
      "name": "feePercent",
      "outputs": [
        {
          "internalType": "uint256",
          "name": "",
          "type": "uint256"
        }
      ],
      "stateMutability": "view",
      "type": "function"
    },
    {
      "inputs": [
        {
          "internalType": "uint256",
          "name": "amount",
          "type": "uint256"
        }
      ],
      "name": "getCredit",
      "outputs": [
        {
          "internalType": "uint256",
          "name": "",
          "type": "uint256"
        }
      ],
      "stateMutability": "view",
      "type": "function"
    },
    {
      "inputs": [],
      "name": "getPriceFeed",
      "outputs": [
        {
          "internalType": "uint256",
          "name": "",
          "type": "uint256"
        }
      ],
      "stateMutability": "view",
      "type": "function"
    },
    {
      "inputs": [],
      "name": "getTicketCount",
      "outputs": [
        {
          "internalType": "uint256",
          "name": "count",
          "type": "uint256"
        }
      ],
      "stateMutability": "view",
      "type": "function"
    },
    {
      "inputs": [
        {
          "internalType": "uint256",
          "name": "_round",
          "type": "uint256"
        },
        {
          "internalType": "address",
          "name": "_player",
          "type": "address"
        }
      ],
      "name": "getUserTicketCount",
      "outputs": [
        {
          "internalType": "uint256",
          "name": "count",
          "type": "uint256"
        }
      ],
      "stateMutability": "view",
      "type": "function"
    },
    {
      "inputs": [],
      "name": "governance",
      "outputs": [
        {
          "internalType": "contract IGovernance",
          "name": "",
          "type": "address"
        }
      ],
      "stateMutability": "view",
      "type": "function"
    },
    {
      "inputs": [],
      "name": "netTicketPrice",
      "outputs": [
        {
          "internalType": "uint256",
          "name": "",
          "type": "uint256"
        }
      ],
      "stateMutability": "view",
      "type": "function"
    },
    {
      "inputs": [
        {
          "internalType": "uint256[]",
          "name": "_rand",
          "type": "uint256[]"
        }
      ],
      "name": "pickWinner",
      "outputs": [],
      "stateMutability": "nonpayable",
      "type": "function"
    },
    {
      "inputs": [],
      "name": "priceFeed",
      "outputs": [
        {
          "internalType": "contract AggregatorV3Interface",
          "name": "",
          "type": "address"
        }
      ],
      "stateMutability": "view",
      "type": "function"
    },
    {
      "inputs": [],
      "name": "recentWinner",
      "outputs": [
        {
          "internalType": "address",
          "name": "",
          "type": "address"
        }
      ],
      "stateMutability": "view",
      "type": "function"
    },
    {
      "inputs": [],
      "name": "round",
      "outputs": [
        {
          "internalType": "uint256",
          "name": "",
          "type": "uint256"
        }
      ],
      "stateMutability": "view",
      "type": "function"
    },
    {
      "inputs": [],
      "name": "state",
      "outputs": [
        {
          "internalType": "enum SesameNative.STATE",
          "name": "",
          "type": "uint8"
        }
      ],
      "stateMutability": "view",
      "type": "function"
    },
    {
      "inputs": [
        {
          "internalType": "uint256",
          "name": "",
          "type": "uint256"
        },
        {
          "internalType": "address",
          "name": "",
          "type": "address"
        }
      ],
      "name": "ticketMap",
      "outputs": [
        {
          "internalType": "uint256",
          "name": "",
          "type": "uint256"
        }
      ],
      "stateMutability": "view",
      "type": "function"
    },
    {
      "inputs": [],
      "name": "ticketPerRound",
      "outputs": [
        {
          "internalType": "uint256",
          "name": "",
          "type": "uint256"
        }
      ],
      "stateMutability": "view",
      "type": "function"
    },
    {
      "inputs": [],
      "name": "ticketPrice",
      "outputs": [
        {
          "internalType": "uint256",
          "name": "",
          "type": "uint256"
        }
      ],
      "stateMutability": "view",
      "type": "function"
    },
    {
      "inputs": [
        {
          "internalType": "uint256",
          "name": "",
          "type": "uint256"
        }
      ],
      "name": "tickets",
      "outputs": [
        {
          "internalType": "address",
          "name": "",
          "type": "address"
        }
      ],
      "stateMutability": "view",
      "type": "function"
    },
    {
      "inputs": [],
      "name": "token",
      "outputs": [
        {
          "internalType": "contract IWBNB",
          "name": "",
          "type": "address"
        }
      ],
      "stateMutability": "view",
      "type": "function"
    },
    {
      "inputs": [],
      "name": "totalFeesCollected",
      "outputs": [
        {
          "internalType": "uint256",
          "name": "",
          "type": "uint256"
        }
      ],
      "stateMutability": "view",
      "type": "function"
    },
    {
      "inputs": [],
      "name": "totalFeesEmitted",
      "outputs": [
        {
          "internalType": "uint256",
          "name": "",
          "type": "uint256"
        }
      ],
      "stateMutability": "view",
      "type": "function"
    },
    {
      "inputs": [],
      "name": "totalFundCollected",
      "outputs": [
        {
          "internalType": "uint256",
          "name": "",
          "type": "uint256"
        }
      ],
      "stateMutability": "view",
      "type": "function"
    },
    {
      "inputs": [],
      "name": "totalFundEmitted",
      "outputs": [
        {
          "internalType": "uint256",
          "name": "",
          "type": "uint256"
        }
      ],
      "stateMutability": "view",
      "type": "function"
    },
    {
      "inputs": [],
      "name": "version",
      "outputs": [
        {
          "internalType": "string",
          "name": "",
          "type": "string"
        }
      ],
      "stateMutability": "view",
      "type": "function"
    },
    {
      "inputs": [
        {
          "internalType": "uint256",
          "name": "",
          "type": "uint256"
        }
      ],
      "name": "winner",
      "outputs": [
        {
          "internalType": "address",
          "name": "",
          "type": "address"
        }
      ],
      "stateMutability": "view",
      "type": "function"
    },
    {
      "inputs": [
        {
          "internalType": "uint256",
          "name": "_round",
          "type": "uint256"
        }
      ],
      "name": "winnerOf",
      "outputs": [
        {
          "internalType": "address",
          "name": "",
          "type": "address"
        }
      ],
      "stateMutability": "view",
      "type": "function"
    }
  ],
  "bytecode": "0x6101406040523480156200001257600080fd5b5060405162001bd438038062001bd4833981016040819052620000359162000158565b6000805460ff191690556001600160601b0319606088811b821660805287811b821660c05286901b1660a05260e084905261010083905261012082905280516200008790600b90602084019062000095565b5050505050505050620002e0565b828054620000a3906200028d565b90600052602060002090601f016020900481019282620000c7576000855562000112565b82601f10620000e257805160ff191683800117855562000112565b8280016001018555821562000112579182015b8281111562000112578251825591602001919060010190620000f5565b506200012092915062000124565b5090565b5b8082111562000120576000815560010162000125565b80516001600160a01b03811681146200015357600080fd5b919050565b600080600080600080600060e0888a0312156200017457600080fd5b6200017f886200013b565b9650602062000190818a016200013b565b9650620001a060408a016200013b565b60608a015160808b015160a08c015160c08d0151939950919750955093506001600160401b0380821115620001d457600080fd5b818b0191508b601f830112620001e957600080fd5b815181811115620001fe57620001fe620002ca565b604051601f8201601f19908116603f01168101908382118183101715620002295762000229620002ca565b816040528281528e868487010111156200024257600080fd5b600093505b8284101562000266578484018601518185018701529285019262000247565b82841115620002785760008684830101525b80965050505050505092959891949750929550565b600181811c90821680620002a257607f821691505b60208210811415620002c457634e487b7160e01b600052602260045260246000fd5b50919050565b634e487b7160e01b600052604160045260246000fd5b60805160601c60a05160601c60c05160601c60e0516101005161012051611816620003be600039600081816103e30152610c150152600081816104b8015281816108a70152818161095d01528181610d4201526110660152600081816101d50152818161088601528181610c3601528181610df901528181610e6301526110d5015260008181610574015281816109b40152610a280152600081816103af0152610c6e01526000818161033a015281816105a1015281816106590152818161075901528181610a5701528181610efe01526112d501526118166000f3fe60806040526004361061015c5760003560e01c8062eb7c5e146101615780630f15f4c0146101ac5780631209b1f6146101c3578063146ca531146101f75780631cbeae5e1461020d57806321c63a471461025b57806334ecfbb814610270578063457dd268146102865780634f8c70cf1461029c57806350b44712146102b157806351b42b00146102d157806354fd4d50146102e65780635827eb37146103085780635aa6e675146103285780635d9644c41461035c57806360c6d8ae1461037257806369cfd9c114610388578063741bef1a1461039d5780637fd6f15c146103d157806383ab96f0146104055780638cb5d700146104485780639e87a5cd1461047e578063a59f3e0c14610493578063b8f5d380146104a6578063be184b5d146104da578063c19d93fb146104f0578063d51bbbdd14610517578063da304e4d1461052d578063e5e078f21461054d578063fc0c546a14610562575b600080fd5b34801561016d57600080fd5b5061019961017c36600461156b565b600360209081526000928352604080842090915290825290205481565b6040519081526020015b60405180910390f35b3480156101b857600080fd5b506101c1610596565b005b3480156101cf57600080fd5b506101997f000000000000000000000000000000000000000000000000000000000000000081565b34801561020357600080fd5b5061019960015481565b34801561021957600080fd5b50610243610228366004611552565b6004602052600090815260409020546001600160a01b031681565b6040516001600160a01b0390911681526020016101a3565b34801561026757600080fd5b50600254610199565b34801561027c57600080fd5b5061019960095481565b34801561029257600080fd5b5061019960085481565b3480156102a857600080fd5b506102436105f1565b3480156102bd57600080fd5b506102436102cc366004611552565b610624565b3480156102dd57600080fd5b506101c161064e565b3480156102f257600080fd5b506102fb6106a6565b6040516101a39190611613565b34801561031457600080fd5b506101c161032336600461146c565b610734565b34801561033457600080fd5b506102437f000000000000000000000000000000000000000000000000000000000000000081565b34801561036857600080fd5b5061019960055481565b34801561037e57600080fd5b5061019960075481565b34801561039457600080fd5b50610199610c0c565b3480156103a957600080fd5b506102437f000000000000000000000000000000000000000000000000000000000000000081565b3480156103dd57600080fd5b506101997f000000000000000000000000000000000000000000000000000000000000000081565b34801561041157600080fd5b5061019961042036600461156b565b60009182526003602090815260408084206001600160a01b0393909316845291905290205490565b34801561045457600080fd5b50610243610463366004611552565b6000908152600460205260409020546001600160a01b031690565b34801561048a57600080fd5b50610199610c69565b6101c16104a1366004611552565b610d1a565b3480156104b257600080fd5b506101997f000000000000000000000000000000000000000000000000000000000000000081565b3480156104e657600080fd5b50610199600a5481565b3480156104fc57600080fd5b5060005461050a9060ff1681565b6040516101a391906115eb565b34801561052357600080fd5b5061019960065481565b34801561053957600080fd5b50610199610548366004611552565b611098565b34801561055957600080fd5b506101996110c5565b34801561056e57600080fd5b506102437f000000000000000000000000000000000000000000000000000000000000000081565b336001600160a01b037f000000000000000000000000000000000000000000000000000000000000000016146105e75760405162461bcd60e51b81526004016105de90611668565b60405180910390fd5b6105ef6110f9565b565b6000600460006001805461060591906116d9565b81526020810191909152604001600020546001600160a01b0316919050565b6002818154811061063457600080fd5b6000918252602090912001546001600160a01b0316905081565b336001600160a01b037f000000000000000000000000000000000000000000000000000000000000000016146106965760405162461bcd60e51b81526004016105de90611668565b61069e61116a565b6105ef611295565b600b80546106b3906116f0565b80601f01602080910402602001604051908101604052809291908181526020018280546106df906116f0565b801561072c5780601f106107015761010080835404028352916020019161072c565b820191906000526020600020905b81548152906001019060200180831161070f57829003601f168201915b505050505081565b600260005460ff16600281111561074d5761074d611786565b1461075757600080fd5b7f00000000000000000000000000000000000000000000000000000000000000006001600160a01b0316633bedaca26040518163ffffffff1660e01b815260040160206040518083038186803b1580156107b057600080fd5b505afa1580156107c4573d6000803e3d6000fd5b505050506040513d601f19601f820116820180604052508101906107e89190611448565b6001600160a01b0316336001600160a01b03161461080557600080fd5b6000600280549050826000815181106108205761082061179c565b60200260200101516108329190611746565b9050600281815481106108475761084761179c565b600091825260208083209091015460015483526004909152604090912080546001600160a01b0319166001600160a01b039092169190911790556108cb7f00000000000000000000000000000000000000000000000000000000000000007f00000000000000000000000000000000000000000000000000000000000000006116ba565b600654146108d857600080fd5b60068054600091829055600a8054919283926108f590849061168e565b9091555050600280548390811061090e5761090e61179c565b60009182526020822001546040516001600160a01b039091169183156108fc02918491818181858888f1935050505015801561094e573d6000803e3d6000fd5b50610957610c0c565b610981907f00000000000000000000000000000000000000000000000000000000000000006116ba565b6005541461098e57600080fd5b6005805460009182905560088054919283926109ab90849061168e565b925050819055507f00000000000000000000000000000000000000000000000000000000000000006001600160a01b031663d0e30db0826040518263ffffffff1660e01b81526004016000604051808303818588803b158015610a0d57600080fd5b505af1158015610a21573d6000803e3d6000fd5b50505050507f00000000000000000000000000000000000000000000000000000000000000006001600160a01b031663a9059cbb7f00000000000000000000000000000000000000000000000000000000000000006001600160a01b031663c415b95c6040518163ffffffff1660e01b815260040160206040518083038186803b158015610aae57600080fd5b505afa158015610ac2573d6000803e3d6000fd5b505050506040513d601f19601f82011682018060405250810190610ae69190611448565b6040516001600160e01b031960e084901b1681526001600160a01b03909116600482015260248101849052604401602060405180830381600087803b158015610b2e57600080fd5b505af1158015610b42573d6000803e3d6000fd5b505050506040513d601f19601f82011682018060405250810190610b669190611530565b5060015460028481548110610b7d57610b7d61179c565b600091825260209182902001546006546040519081526001600160a01b03909116917f6fc50effd94306e43c9e48ff5a94ffd13e754f4d7dceaf9803486ab81a5d6b71910160405180910390a36001546040517f8cc775ebbee0cce2baccb0a0121cb5794418a52d6edac0ea16c407d241109fd090600090a2610bfe611295565b610c066110f9565b50505050565b60006064610c5a7f00000000000000000000000000000000000000000000000000000000000000007f00000000000000000000000000000000000000000000000000000000000000006116ba565b610c6491906116a6565b905090565b6000807f00000000000000000000000000000000000000000000000000000000000000006001600160a01b031663feaf968c6040518163ffffffff1660e01b815260040160a06040518083038186803b158015610cc557600080fd5b505afa158015610cd9573d6000803e3d6000fd5b505050506040513d601f19601f82011682018060405250810190610cfd919061159b565b505050915050806402540be400610d1491906116ba565b91505090565b600160005460ff166002811115610d3357610d33611786565b14610d3d57600080fd5b6002547f000000000000000000000000000000000000000000000000000000000000000090610d6c908361168e565b1115610d7757600080fd5b610d7f6110c5565b610d8990826116ba565b3414610d9457600080fd5b60005b81811015610df357600280546001810182556000919091527f405787fa12a823e0f2b7631cc41b3ba8828b3321ca811111fa75cd3aa3bb5ace0180546001600160a01b0319163317905580610deb8161172b565b915050610d97565b50610e1e7f0000000000000000000000000000000000000000000000000000000000000000826116ba565b60066000828254610e2f919061168e565b90915550610e3d9050610c0c565b610e4790826116ba565b60056000828254610e58919061168e565b90915550610e8890507f0000000000000000000000000000000000000000000000000000000000000000826116ba565b60096000828254610e99919061168e565b90915550610ea79050610c0c565b610eb190826116ba565b60076000828254610ec2919061168e565b9091555050600154600090815260036020908152604080832033845290915281208054839290610ef390849061168e565b9250508190555060007f00000000000000000000000000000000000000000000000000000000000000006001600160a01b0316634fb3ccc56040518163ffffffff1660e01b815260040160206040518083038186803b158015610f5557600080fd5b505afa158015610f69573d6000803e3d6000fd5b505050506040513d601f19601f82011682018060405250810190610f8d9190611448565b90506000610fa6610f9c6110c5565b61054890856116ba565b6001546040516375dbb8c960e01b8152336004820152602481018390526044810191909152606481018590529091506001600160a01b038316906375dbb8c990608401600060405180830381600087803b15801561100357600080fd5b505af1158015611017573d6000803e3d6000fd5b50505050600154336001600160a01b03167fafae5042b7c47abc99ba2ed5eb6f29027888c2765bbf9c479a5ef03683a489b18560405161105991815260200190565b60405180910390a36002547f00000000000000000000000000000000000000000000000000000000000000001415611093576110936112bf565b505050565b6000670de0b6b3a76400006110ab610c69565b6110b590846116ba565b6110bf91906116a6565b92915050565b60006110cf610c0c565b610c64907f000000000000000000000000000000000000000000000000000000000000000061168e565b6000805460ff16600281111561111157611111611786565b1461111b57600080fd5b6001805490600061112b8361172b565b90915550506000805460ff1916600190811782555460405190917f0ab582f1afc29efbd503feb5b4a945175eee54010e1be75f88d3e0a865f1631f91a2565b60005b6002548110156112555760006002828154811061118c5761118c61179c565b60009182526020822001546001600160a01b031691506111aa6110c5565b60015460009081526003602090815260408083206001600160a01b03871684529091529020546111da91906116ba565b90508015611240576040516001600160a01b0383169082156108fc029083906000818181858888f19350505050158015611218573d6000803e3d6000fd5b5060015460009081526003602090815260408083206001600160a01b03861684529091528120555b5050808061124d9061172b565b91505061116d565b506005546007600082825461126a91906116d9565b9091555050600654600980546000906112849084906116d9565b909155505060006005819055600655565b60408051600081526020810191829052516112b2916002916113b2565b506000805460ff19169055565b600080546002919060ff191660018302179055507f00000000000000000000000000000000000000000000000000000000000000006001600160a01b0316633bedaca26040518163ffffffff1660e01b815260040160206040518083038186803b15801561132c57600080fd5b505afa158015611340573d6000803e3d6000fd5b505050506040513d601f19601f820116820180604052508101906113649190611448565b6001600160a01b0316638678a7b26040518163ffffffff1660e01b8152600401600060405180830381600087803b15801561139e57600080fd5b505af1158015610c06573d6000803e3d6000fd5b828054828255906000526020600020908101928215611407579160200282015b8281111561140757825182546001600160a01b0319166001600160a01b039091161782556020909201916001909101906113d2565b50611413929150611417565b5090565b5b808211156114135760008155600101611418565b80516001600160501b038116811461144357600080fd5b919050565b60006020828403121561145a57600080fd5b8151611465816117c8565b9392505050565b6000602080838503121561147f57600080fd5b82356001600160401b038082111561149657600080fd5b818501915085601f8301126114aa57600080fd5b8135818111156114bc576114bc6117b2565b8060051b604051601f19603f830116810181811085821117156114e1576114e16117b2565b604052828152858101935084860182860187018a101561150057600080fd5b600095505b83861015611523578035855260019590950194938601938601611505565b5098975050505050505050565b60006020828403121561154257600080fd5b8151801515811461146557600080fd5b60006020828403121561156457600080fd5b5035919050565b6000806040838503121561157e57600080fd5b823591506020830135611590816117c8565b809150509250929050565b600080600080600060a086880312156115b357600080fd5b6115bc8661142c565b94506020860151935060408601519250606086015191506115df6080870161142c565b90509295509295909350565b602081016003831061160d57634e487b7160e01b600052602160045260246000fd5b91905290565b600060208083528351808285015260005b8181101561164057858101830151858201604001528201611624565b81811115611652576000604083870101525b50601f01601f1916929092016040019392505050565b6020808252600c908201526b155b985d5d1a1bdc9a5e995960a21b604082015260600190565b600082198211156116a1576116a161175a565b500190565b6000826116b5576116b5611770565b500490565b60008160001904831182151516156116d4576116d461175a565b500290565b6000828210156116eb576116eb61175a565b500390565b600181811c9082168061170457607f821691505b6020821081141561172557634e487b7160e01b600052602260045260246000fd5b50919050565b600060001982141561173f5761173f61175a565b5060010190565b60008261175557611755611770565b500690565b634e487b7160e01b600052601160045260246000fd5b634e487b7160e01b600052601260045260246000fd5b634e487b7160e01b600052602160045260246000fd5b634e487b7160e01b600052603260045260246000fd5b634e487b7160e01b600052604160045260246000fd5b6001600160a01b03811681146117dd57600080fd5b5056fea26469706673582212209941be3d2953c9eb9edf2c011faa1450409b6cc691e382c465a1ccd74a87df5664736f6c63430008070033",
  "linkReferences": {},
  "deployedLinkReferences": {}
}