{
  "_format": "hh-sol-artifact-1",
  "contractName": "SesameToken",
  "sourceName": "contracts/SesameToken.sol",
  "abi": [
    {
      "inputs": [],
      "stateMutability": "nonpayable",
      "type": "constructor"
    },
    {
      "anonymous": false,
      "inputs": [
        {
          "indexed": true,
          "internalType": "address",
          "name": "owner",
          "type": "address"
        },
        {
          "indexed": true,
          "internalType": "address",
          "name": "spender",
          "type": "address"
        },
        {
          "indexed": false,
          "internalType": "uint256",
          "name": "value",
          "type": "uint256"
        }
      ],
      "name": "Approval",
      "type": "event"
    },
    {
      "anonymous": false,
      "inputs": [
        {
          "indexed": true,
          "internalType": "bytes32",
          "name": "role",
          "type": "bytes32"
        },
        {
          "indexed": true,
          "internalType": "bytes32",
          "name": "previousAdminRole",
          "type": "bytes32"
        },
        {
          "indexed": true,
          "internalType": "bytes32",
          "name": "newAdminRole",
          "type": "bytes32"
        }
      ],
      "name": "RoleAdminChanged",
      "type": "event"
    },
    {
      "anonymous": false,
      "inputs": [
        {
          "indexed": true,
          "internalType": "bytes32",
          "name": "role",
          "type": "bytes32"
        },
        {
          "indexed": true,
          "internalType": "address",
          "name": "account",
          "type": "address"
        },
        {
          "indexed": true,
          "internalType": "address",
          "name": "sender",
          "type": "address"
        }
      ],
      "name": "RoleGranted",
      "type": "event"
    },
    {
      "anonymous": false,
      "inputs": [
        {
          "indexed": true,
          "internalType": "bytes32",
          "name": "role",
          "type": "bytes32"
        },
        {
          "indexed": true,
          "internalType": "address",
          "name": "account",
          "type": "address"
        },
        {
          "indexed": true,
          "internalType": "address",
          "name": "sender",
          "type": "address"
        }
      ],
      "name": "RoleRevoked",
      "type": "event"
    },
    {
      "anonymous": false,
      "inputs": [
        {
          "indexed": true,
          "internalType": "address",
          "name": "from",
          "type": "address"
        },
        {
          "indexed": true,
          "internalType": "address",
          "name": "to",
          "type": "address"
        },
        {
          "indexed": false,
          "internalType": "uint256",
          "name": "value",
          "type": "uint256"
        }
      ],
      "name": "Transfer",
      "type": "event"
    },
    {
      "inputs": [],
      "name": "BURNER_ROLE",
      "outputs": [
        {
          "internalType": "bytes32",
          "name": "",
          "type": "bytes32"
        }
      ],
      "stateMutability": "view",
      "type": "function"
    },
    {
      "inputs": [],
      "name": "DEFAULT_ADMIN_ROLE",
      "outputs": [
        {
          "internalType": "bytes32",
          "name": "",
          "type": "bytes32"
        }
      ],
      "stateMutability": "view",
      "type": "function"
    },
    {
      "inputs": [],
      "name": "MINTER_ROLE",
      "outputs": [
        {
          "internalType": "bytes32",
          "name": "",
          "type": "bytes32"
        }
      ],
      "stateMutability": "view",
      "type": "function"
    },
    {
      "inputs": [],
      "name": "SUPPLY_CAP",
      "outputs": [
        {
          "internalType": "uint256",
          "name": "",
          "type": "uint256"
        }
      ],
      "stateMutability": "view",
      "type": "function"
    },
    {
      "inputs": [
        {
          "internalType": "address",
          "name": "owner",
          "type": "address"
        },
        {
          "internalType": "address",
          "name": "spender",
          "type": "address"
        }
      ],
      "name": "allowance",
      "outputs": [
        {
          "internalType": "uint256",
          "name": "",
          "type": "uint256"
        }
      ],
      "stateMutability": "view",
      "type": "function"
    },
    {
      "inputs": [
        {
          "internalType": "address",
          "name": "spender",
          "type": "address"
        },
        {
          "internalType": "uint256",
          "name": "amount",
          "type": "uint256"
        }
      ],
      "name": "approve",
      "outputs": [
        {
          "internalType": "bool",
          "name": "",
          "type": "bool"
        }
      ],
      "stateMutability": "nonpayable",
      "type": "function"
    },
    {
      "inputs": [
        {
          "internalType": "address",
          "name": "account",
          "type": "address"
        }
      ],
      "name": "balanceOf",
      "outputs": [
        {
          "internalType": "uint256",
          "name": "",
          "type": "uint256"
        }
      ],
      "stateMutability": "view",
      "type": "function"
    },
    {
      "inputs": [
        {
          "internalType": "uint256",
          "name": "amount",
          "type": "uint256"
        }
      ],
      "name": "burn",
      "outputs": [],
      "stateMutability": "nonpayable",
      "type": "function"
    },
    {
      "inputs": [],
      "name": "burned",
      "outputs": [
        {
          "internalType": "uint256",
          "name": "",
          "type": "uint256"
        }
      ],
      "stateMutability": "view",
      "type": "function"
    },
    {
      "inputs": [],
      "name": "decimals",
      "outputs": [
        {
          "internalType": "uint8",
          "name": "",
          "type": "uint8"
        }
      ],
      "stateMutability": "view",
      "type": "function"
    },
    {
      "inputs": [
        {
          "internalType": "address",
          "name": "spender",
          "type": "address"
        },
        {
          "internalType": "uint256",
          "name": "subtractedValue",
          "type": "uint256"
        }
      ],
      "name": "decreaseAllowance",
      "outputs": [
        {
          "internalType": "bool",
          "name": "",
          "type": "bool"
        }
      ],
      "stateMutability": "nonpayable",
      "type": "function"
    },
    {
      "inputs": [
        {
          "internalType": "bytes32",
          "name": "role",
          "type": "bytes32"
        }
      ],
      "name": "getRoleAdmin",
      "outputs": [
        {
          "internalType": "bytes32",
          "name": "",
          "type": "bytes32"
        }
      ],
      "stateMutability": "view",
      "type": "function"
    },
    {
      "inputs": [
        {
          "internalType": "bytes32",
          "name": "role",
          "type": "bytes32"
        },
        {
          "internalType": "address",
          "name": "account",
          "type": "address"
        }
      ],
      "name": "grantRole",
      "outputs": [],
      "stateMutability": "nonpayable",
      "type": "function"
    },
    {
      "inputs": [
        {
          "internalType": "bytes32",
          "name": "role",
          "type": "bytes32"
        },
        {
          "internalType": "address",
          "name": "account",
          "type": "address"
        }
      ],
      "name": "hasRole",
      "outputs": [
        {
          "internalType": "bool",
          "name": "",
          "type": "bool"
        }
      ],
      "stateMutability": "view",
      "type": "function"
    },
    {
      "inputs": [
        {
          "internalType": "address",
          "name": "spender",
          "type": "address"
        },
        {
          "internalType": "uint256",
          "name": "addedValue",
          "type": "uint256"
        }
      ],
      "name": "increaseAllowance",
      "outputs": [
        {
          "internalType": "bool",
          "name": "",
          "type": "bool"
        }
      ],
      "stateMutability": "nonpayable",
      "type": "function"
    },
    {
      "inputs": [
        {
          "internalType": "address",
          "name": "account",
          "type": "address"
        },
        {
          "internalType": "uint256",
          "name": "amount",
          "type": "uint256"
        }
      ],
      "name": "mint",
      "outputs": [
        {
          "internalType": "bool",
          "name": "status",
          "type": "bool"
        }
      ],
      "stateMutability": "nonpayable",
      "type": "function"
    },
    {
      "inputs": [],
      "name": "name",
      "outputs": [
        {
          "internalType": "string",
          "name": "",
          "type": "string"
        }
      ],
      "stateMutability": "view",
      "type": "function"
    },
    {
      "inputs": [
        {
          "internalType": "bytes32",
          "name": "role",
          "type": "bytes32"
        },
        {
          "internalType": "address",
          "name": "account",
          "type": "address"
        }
      ],
      "name": "renounceRole",
      "outputs": [],
      "stateMutability": "nonpayable",
      "type": "function"
    },
    {
      "inputs": [
        {
          "internalType": "bytes32",
          "name": "role",
          "type": "bytes32"
        },
        {
          "internalType": "address",
          "name": "account",
          "type": "address"
        }
      ],
      "name": "revokeRole",
      "outputs": [],
      "stateMutability": "nonpayable",
      "type": "function"
    },
    {
      "inputs": [
        {
          "internalType": "bytes4",
          "name": "interfaceId",
          "type": "bytes4"
        }
      ],
      "name": "supportsInterface",
      "outputs": [
        {
          "internalType": "bool",
          "name": "",
          "type": "bool"
        }
      ],
      "stateMutability": "view",
      "type": "function"
    },
    {
      "inputs": [],
      "name": "symbol",
      "outputs": [
        {
          "internalType": "string",
          "name": "",
          "type": "string"
        }
      ],
      "stateMutability": "view",
      "type": "function"
    },
    {
      "inputs": [],
      "name": "totalSupply",
      "outputs": [
        {
          "internalType": "uint256",
          "name": "",
          "type": "uint256"
        }
      ],
      "stateMutability": "view",
      "type": "function"
    },
    {
      "inputs": [
        {
          "internalType": "address",
          "name": "recipient",
          "type": "address"
        },
        {
          "internalType": "uint256",
          "name": "amount",
          "type": "uint256"
        }
      ],
      "name": "transfer",
      "outputs": [
        {
          "internalType": "bool",
          "name": "",
          "type": "bool"
        }
      ],
      "stateMutability": "nonpayable",
      "type": "function"
    },
    {
      "inputs": [
        {
          "internalType": "address",
          "name": "sender",
          "type": "address"
        },
        {
          "internalType": "address",
          "name": "recipient",
          "type": "address"
        },
        {
          "internalType": "uint256",
          "name": "amount",
          "type": "uint256"
        }
      ],
      "name": "transferFrom",
      "outputs": [
        {
          "internalType": "bool",
          "name": "",
          "type": "bool"
        }
      ],
      "stateMutability": "nonpayable",
      "type": "function"
    }
  ],
  "bytecode": "0x60a06040526a52b7d2dcc80cd2e40000006080523480156200002057600080fd5b506040805180820182526006815265536573616d6560d01b6020808301918252835180850190945260048452635345534160e01b9084015281519192916200006b916003916200014d565b508051620000819060049060208401906200014d565b50620000939150600090503362000099565b62000230565b620000a58282620000a9565b5050565b60008281526005602090815260408083206001600160a01b038516845290915290205460ff16620000a55760008281526005602090815260408083206001600160a01b03851684529091529020805460ff19166001179055620001093390565b6001600160a01b0316816001600160a01b0316837f2f8788117e7eff1d82e926ec794901d17c78024a50270940304540a733656f0d60405160405180910390a45050565b8280546200015b90620001f3565b90600052602060002090601f0160209004810192826200017f5760008555620001ca565b82601f106200019a57805160ff1916838001178555620001ca565b82800160010185558215620001ca579182015b82811115620001ca578251825591602001919060010190620001ad565b50620001d8929150620001dc565b5090565b5b80821115620001d85760008155600101620001dd565b600181811c908216806200020857607f821691505b602082108114156200022a57634e487b7160e01b600052602260045260246000fd5b50919050565b6080516112c9620002536000396000818161018201526105dd01526112c96000f3fe608060405234801561001057600080fd5b50600436106101285760003560e01c806301ffc9a71461012d57806306fdde0314610155578063095ea7b31461016a5780630cfccc831461017d57806318160ddd146101b257806323b872dd146101ba578063248a9ca3146101cd578063282c51f3146101e05780632f2ff15d146101f5578063313ce5671461020a57806336568abe14610219578063395093511461022c57806340c10f191461023f57806342966c681461025257806370a082311461026557806373f425611461028e57806391d148541461029757806395d89b41146102aa578063a217fddf146102b2578063a457c2d7146102ba578063a9059cbb146102cd578063d5391393146102e0578063d547741f146102f5578063dd62ed3e14610308575b600080fd5b61014061013b366004611059565b610341565b60405190151581526020015b60405180910390f35b61015d610378565b60405161014c91906110f2565b610140610178366004610ff3565b61040a565b6101a47f000000000000000000000000000000000000000000000000000000000000000081565b60405190815260200161014c565b6002546101a4565b6101406101c8366004610fb7565b610420565b6101a46101db36600461101d565b6104cf565b6101a460008051602061123483398151915281565b610208610203366004611036565b6104e4565b005b6040516012815260200161014c565b610208610227366004611036565b610506565b61014061023a366004610ff3565b610584565b61014061024d366004610ff3565b6105c0565b61020861026036600461101d565b610634565b6101a4610273366004610f69565b6001600160a01b031660009081526020819052604090205490565b6101a460065481565b6101406102a5366004611036565b610672565b61015d61069d565b6101a4600081565b6101406102c8366004610ff3565b6106ac565b6101406102db366004610ff3565b610745565b6101a460008051602061125483398151915281565b610208610303366004611036565b610752565b6101a4610316366004610f84565b6001600160a01b03918216600090815260016020908152604080832093909416825291909152205490565b60006001600160e01b03198216637965db0b60e01b148061037257506301ffc9a760e01b6001600160e01b03198316145b92915050565b606060038054610387906111b6565b80601f01602080910402602001604051908101604052809291908181526020018280546103b3906111b6565b80156104005780601f106103d557610100808354040283529160200191610400565b820191906000526020600020905b8154815290600101906020018083116103e357829003601f168201915b5050505050905090565b600061041733848461076f565b50600192915050565b600061042d848484610893565b6001600160a01b0384166000908152600160209081526040808320338452909152902054828110156104b75760405162461bcd60e51b815260206004820152602860248201527f45524332303a207472616e7366657220616d6f756e74206578636565647320616044820152676c6c6f77616e636560c01b60648201526084015b60405180910390fd5b6104c4853385840361076f565b506001949350505050565b60009081526005602052604090206001015490565b6104ed826104cf565b6104f78133610a51565b6105018383610ab5565b505050565b6001600160a01b03811633146105765760405162461bcd60e51b815260206004820152602f60248201527f416363657373436f6e74726f6c3a2063616e206f6e6c792072656e6f756e636560448201526e103937b632b9903337b91039b2b63360891b60648201526084016104ae565b6105808282610b3b565b5050565b3360008181526001602090815260408083206001600160a01b038716845290915281205490916104179185906105bb908690611125565b61076f565b60006000805160206112548339815191526105db8133610a51565b7f00000000000000000000000000000000000000000000000000000000000000008361060660025490565b6106109190611125565b116106285761061f8484610ba2565b6001915061062d565b600091505b5092915050565b60008051602061123483398151915261064d8133610a51565b6106573383610c6f565b81600660008282546106699190611125565b90915550505050565b60009182526005602090815260408084206001600160a01b0393909316845291905290205460ff1690565b606060048054610387906111b6565b3360009081526001602090815260408083206001600160a01b03861684529091528120548281101561072e5760405162461bcd60e51b815260206004820152602560248201527f45524332303a2064656372656173656420616c6c6f77616e63652062656c6f77604482015264207a65726f60d81b60648201526084016104ae565b61073b338585840361076f565b5060019392505050565b6000610417338484610893565b61075b826104cf565b6107658133610a51565b6105018383610b3b565b6001600160a01b0383166107d15760405162461bcd60e51b8152602060048201526024808201527f45524332303a20617070726f76652066726f6d20746865207a65726f206164646044820152637265737360e01b60648201526084016104ae565b6001600160a01b0382166108325760405162461bcd60e51b815260206004820152602260248201527f45524332303a20617070726f766520746f20746865207a65726f206164647265604482015261737360f01b60648201526084016104ae565b6001600160a01b0383811660008181526001602090815260408083209487168084529482529182902085905590518481527f8c5be1e5ebec7d5bd14f71427d1e84f3dd0314c0f7b2291e5b200ac8c7c3b925910160405180910390a3505050565b6001600160a01b0383166108f75760405162461bcd60e51b815260206004820152602560248201527f45524332303a207472616e736665722066726f6d20746865207a65726f206164604482015264647265737360d81b60648201526084016104ae565b6001600160a01b0382166109595760405162461bcd60e51b815260206004820152602360248201527f45524332303a207472616e7366657220746f20746865207a65726f206164647260448201526265737360e81b60648201526084016104ae565b6001600160a01b038316600090815260208190526040902054818110156109d15760405162461bcd60e51b815260206004820152602660248201527f45524332303a207472616e7366657220616d6f756e7420657863656564732062604482015265616c616e636560d01b60648201526084016104ae565b6001600160a01b03808516600090815260208190526040808220858503905591851681529081208054849290610a08908490611125565b92505081905550826001600160a01b0316846001600160a01b031660008051602061127483398151915284604051610a4291815260200190565b60405180910390a35b50505050565b610a5b8282610672565b61058057610a73816001600160a01b03166014610dab565b610a7e836020610dab565b604051602001610a8f929190611083565b60408051601f198184030181529082905262461bcd60e51b82526104ae916004016110f2565b610abf8282610672565b6105805760008281526005602090815260408083206001600160a01b03851684529091529020805460ff19166001179055610af73390565b6001600160a01b0316816001600160a01b0316837f2f8788117e7eff1d82e926ec794901d17c78024a50270940304540a733656f0d60405160405180910390a45050565b610b458282610672565b156105805760008281526005602090815260408083206001600160a01b0385168085529252808320805460ff1916905551339285917ff6391f5c32d9c69d2a47ea670b442974b53935d1edc7fd64eb21e047a839171b9190a45050565b6001600160a01b038216610bf85760405162461bcd60e51b815260206004820152601f60248201527f45524332303a206d696e7420746f20746865207a65726f20616464726573730060448201526064016104ae565b8060026000828254610c0a9190611125565b90915550506001600160a01b03821660009081526020819052604081208054839290610c37908490611125565b90915550506040518181526001600160a01b038316906000906000805160206112748339815191529060200160405180910390a35050565b6001600160a01b038216610ccf5760405162461bcd60e51b815260206004820152602160248201527f45524332303a206275726e2066726f6d20746865207a65726f206164647265736044820152607360f81b60648201526084016104ae565b6001600160a01b03821660009081526020819052604090205481811015610d435760405162461bcd60e51b815260206004820152602260248201527f45524332303a206275726e20616d6f756e7420657863656564732062616c616e604482015261636560f01b60648201526084016104ae565b6001600160a01b0383166000908152602081905260408120838303905560028054849290610d7290849061115c565b90915550506040518281526000906001600160a01b038516906000805160206112748339815191529060200160405180910390a3505050565b60606000610dba83600261113d565b610dc5906002611125565b6001600160401b03811115610ddc57610ddc61121d565b6040519080825280601f01601f191660200182016040528015610e06576020820181803683370190505b509050600360fc1b81600081518110610e2157610e21611207565b60200101906001600160f81b031916908160001a905350600f60fb1b81600181518110610e5057610e50611207565b60200101906001600160f81b031916908160001a9053506000610e7484600261113d565b610e7f906001611125565b90505b6001811115610ef7576f181899199a1a9b1b9c1cb0b131b232b360811b85600f1660108110610eb357610eb3611207565b1a60f81b828281518110610ec957610ec9611207565b60200101906001600160f81b031916908160001a90535060049490941c93610ef08161119f565b9050610e82565b508315610f465760405162461bcd60e51b815260206004820181905260248201527f537472696e67733a20686578206c656e67746820696e73756666696369656e7460448201526064016104ae565b9392505050565b80356001600160a01b0381168114610f6457600080fd5b919050565b600060208284031215610f7b57600080fd5b610f4682610f4d565b60008060408385031215610f9757600080fd5b610fa083610f4d565b9150610fae60208401610f4d565b90509250929050565b600080600060608486031215610fcc57600080fd5b610fd584610f4d565b9250610fe360208501610f4d565b9150604084013590509250925092565b6000806040838503121561100657600080fd5b61100f83610f4d565b946020939093013593505050565b60006020828403121561102f57600080fd5b5035919050565b6000806040838503121561104957600080fd5b82359150610fae60208401610f4d565b60006020828403121561106b57600080fd5b81356001600160e01b031981168114610f4657600080fd5b76020b1b1b2b9b9a1b7b73a3937b61d1030b1b1b7bab73a1604d1b8152600083516110b5816017850160208801611173565b7001034b99036b4b9b9b4b733903937b6329607d1b60179184019182015283516110e6816028840160208801611173565b01602801949350505050565b6020815260008251806020840152611111816040850160208701611173565b601f01601f19169190910160400192915050565b60008219821115611138576111386111f1565b500190565b6000816000190483118215151615611157576111576111f1565b500290565b60008282101561116e5761116e6111f1565b500390565b60005b8381101561118e578181015183820152602001611176565b83811115610a4b5750506000910152565b6000816111ae576111ae6111f1565b506000190190565b600181811c908216806111ca57607f821691505b602082108114156111eb57634e487b7160e01b600052602260045260246000fd5b50919050565b634e487b7160e01b600052601160045260246000fd5b634e487b7160e01b600052603260045260246000fd5b634e487b7160e01b600052604160045260246000fdfe3c11d16cbaffd01df69ce1c404f6340ee057498f5f00246190ea54220576a8489f2df0fed2c77648de5860a4cc508cd0818c85b8b8a1ab4ceeef8d981c8956a6ddf252ad1be2c89b69c2b068fc378daa952ba7f163c4a11628f55a4df523b3efa2646970667358221220f53e7f891efc29a02c8530248d175577b59875c9361ff0d2cb3acb3ad1f6fc7864736f6c63430008070033",
  "linkReferences": {},
  "deployedLinkReferences": {}
}