{
  "_format": "hh-sol-artifact-1",
  "contractName": "SesameToken",
  "sourceName": "contracts/SesameToken.sol",
  "abi": [
    {
      "inputs": [
        {
          "internalType": "uint256",
          "name": "_cap",
          "type": "uint256"
        }
      ],
      "stateMutability": "nonpayable",
      "type": "constructor"
    },
    {
      "anonymous": false,
      "inputs": [
        {
          "indexed": true,
          "internalType": "address",
          "name": "owner",
          "type": "address"
        },
        {
          "indexed": true,
          "internalType": "address",
          "name": "spender",
          "type": "address"
        },
        {
          "indexed": false,
          "internalType": "uint256",
          "name": "value",
          "type": "uint256"
        }
      ],
      "name": "Approval",
      "type": "event"
    },
    {
      "anonymous": false,
      "inputs": [
        {
          "indexed": true,
          "internalType": "bytes32",
          "name": "role",
          "type": "bytes32"
        },
        {
          "indexed": true,
          "internalType": "bytes32",
          "name": "previousAdminRole",
          "type": "bytes32"
        },
        {
          "indexed": true,
          "internalType": "bytes32",
          "name": "newAdminRole",
          "type": "bytes32"
        }
      ],
      "name": "RoleAdminChanged",
      "type": "event"
    },
    {
      "anonymous": false,
      "inputs": [
        {
          "indexed": true,
          "internalType": "bytes32",
          "name": "role",
          "type": "bytes32"
        },
        {
          "indexed": true,
          "internalType": "address",
          "name": "account",
          "type": "address"
        },
        {
          "indexed": true,
          "internalType": "address",
          "name": "sender",
          "type": "address"
        }
      ],
      "name": "RoleGranted",
      "type": "event"
    },
    {
      "anonymous": false,
      "inputs": [
        {
          "indexed": true,
          "internalType": "bytes32",
          "name": "role",
          "type": "bytes32"
        },
        {
          "indexed": true,
          "internalType": "address",
          "name": "account",
          "type": "address"
        },
        {
          "indexed": true,
          "internalType": "address",
          "name": "sender",
          "type": "address"
        }
      ],
      "name": "RoleRevoked",
      "type": "event"
    },
    {
      "anonymous": false,
      "inputs": [
        {
          "indexed": true,
          "internalType": "address",
          "name": "from",
          "type": "address"
        },
        {
          "indexed": true,
          "internalType": "address",
          "name": "to",
          "type": "address"
        },
        {
          "indexed": false,
          "internalType": "uint256",
          "name": "value",
          "type": "uint256"
        }
      ],
      "name": "Transfer",
      "type": "event"
    },
    {
      "inputs": [],
      "name": "BURNER_ROLE",
      "outputs": [
        {
          "internalType": "bytes32",
          "name": "",
          "type": "bytes32"
        }
      ],
      "stateMutability": "view",
      "type": "function"
    },
    {
      "inputs": [],
      "name": "DEFAULT_ADMIN_ROLE",
      "outputs": [
        {
          "internalType": "bytes32",
          "name": "",
          "type": "bytes32"
        }
      ],
      "stateMutability": "view",
      "type": "function"
    },
    {
      "inputs": [],
      "name": "MINTER_ROLE",
      "outputs": [
        {
          "internalType": "bytes32",
          "name": "",
          "type": "bytes32"
        }
      ],
      "stateMutability": "view",
      "type": "function"
    },
    {
      "inputs": [],
      "name": "SUPPLY_CAP",
      "outputs": [
        {
          "internalType": "uint256",
          "name": "",
          "type": "uint256"
        }
      ],
      "stateMutability": "view",
      "type": "function"
    },
    {
      "inputs": [
        {
          "internalType": "address",
          "name": "owner",
          "type": "address"
        },
        {
          "internalType": "address",
          "name": "spender",
          "type": "address"
        }
      ],
      "name": "allowance",
      "outputs": [
        {
          "internalType": "uint256",
          "name": "",
          "type": "uint256"
        }
      ],
      "stateMutability": "view",
      "type": "function"
    },
    {
      "inputs": [
        {
          "internalType": "address",
          "name": "spender",
          "type": "address"
        },
        {
          "internalType": "uint256",
          "name": "amount",
          "type": "uint256"
        }
      ],
      "name": "approve",
      "outputs": [
        {
          "internalType": "bool",
          "name": "",
          "type": "bool"
        }
      ],
      "stateMutability": "nonpayable",
      "type": "function"
    },
    {
      "inputs": [
        {
          "internalType": "address",
          "name": "account",
          "type": "address"
        }
      ],
      "name": "balanceOf",
      "outputs": [
        {
          "internalType": "uint256",
          "name": "",
          "type": "uint256"
        }
      ],
      "stateMutability": "view",
      "type": "function"
    },
    {
      "inputs": [
        {
          "internalType": "uint256",
          "name": "amount",
          "type": "uint256"
        }
      ],
      "name": "burn",
      "outputs": [],
      "stateMutability": "nonpayable",
      "type": "function"
    },
    {
      "inputs": [],
      "name": "burned",
      "outputs": [
        {
          "internalType": "uint256",
          "name": "",
          "type": "uint256"
        }
      ],
      "stateMutability": "view",
      "type": "function"
    },
    {
      "inputs": [],
      "name": "decimals",
      "outputs": [
        {
          "internalType": "uint8",
          "name": "",
          "type": "uint8"
        }
      ],
      "stateMutability": "view",
      "type": "function"
    },
    {
      "inputs": [
        {
          "internalType": "address",
          "name": "spender",
          "type": "address"
        },
        {
          "internalType": "uint256",
          "name": "subtractedValue",
          "type": "uint256"
        }
      ],
      "name": "decreaseAllowance",
      "outputs": [
        {
          "internalType": "bool",
          "name": "",
          "type": "bool"
        }
      ],
      "stateMutability": "nonpayable",
      "type": "function"
    },
    {
      "inputs": [
        {
          "internalType": "bytes32",
          "name": "role",
          "type": "bytes32"
        }
      ],
      "name": "getRoleAdmin",
      "outputs": [
        {
          "internalType": "bytes32",
          "name": "",
          "type": "bytes32"
        }
      ],
      "stateMutability": "view",
      "type": "function"
    },
    {
      "inputs": [
        {
          "internalType": "bytes32",
          "name": "role",
          "type": "bytes32"
        },
        {
          "internalType": "address",
          "name": "account",
          "type": "address"
        }
      ],
      "name": "grantRole",
      "outputs": [],
      "stateMutability": "nonpayable",
      "type": "function"
    },
    {
      "inputs": [
        {
          "internalType": "bytes32",
          "name": "role",
          "type": "bytes32"
        },
        {
          "internalType": "address",
          "name": "account",
          "type": "address"
        }
      ],
      "name": "hasRole",
      "outputs": [
        {
          "internalType": "bool",
          "name": "",
          "type": "bool"
        }
      ],
      "stateMutability": "view",
      "type": "function"
    },
    {
      "inputs": [
        {
          "internalType": "address",
          "name": "spender",
          "type": "address"
        },
        {
          "internalType": "uint256",
          "name": "addedValue",
          "type": "uint256"
        }
      ],
      "name": "increaseAllowance",
      "outputs": [
        {
          "internalType": "bool",
          "name": "",
          "type": "bool"
        }
      ],
      "stateMutability": "nonpayable",
      "type": "function"
    },
    {
      "inputs": [
        {
          "internalType": "address",
          "name": "account",
          "type": "address"
        },
        {
          "internalType": "uint256",
          "name": "amount",
          "type": "uint256"
        }
      ],
      "name": "mint",
      "outputs": [
        {
          "internalType": "bool",
          "name": "status",
          "type": "bool"
        }
      ],
      "stateMutability": "nonpayable",
      "type": "function"
    },
    {
      "inputs": [],
      "name": "name",
      "outputs": [
        {
          "internalType": "string",
          "name": "",
          "type": "string"
        }
      ],
      "stateMutability": "view",
      "type": "function"
    },
    {
      "inputs": [
        {
          "internalType": "bytes32",
          "name": "role",
          "type": "bytes32"
        },
        {
          "internalType": "address",
          "name": "account",
          "type": "address"
        }
      ],
      "name": "renounceRole",
      "outputs": [],
      "stateMutability": "nonpayable",
      "type": "function"
    },
    {
      "inputs": [
        {
          "internalType": "bytes32",
          "name": "role",
          "type": "bytes32"
        },
        {
          "internalType": "address",
          "name": "account",
          "type": "address"
        }
      ],
      "name": "revokeRole",
      "outputs": [],
      "stateMutability": "nonpayable",
      "type": "function"
    },
    {
      "inputs": [
        {
          "internalType": "bytes4",
          "name": "interfaceId",
          "type": "bytes4"
        }
      ],
      "name": "supportsInterface",
      "outputs": [
        {
          "internalType": "bool",
          "name": "",
          "type": "bool"
        }
      ],
      "stateMutability": "view",
      "type": "function"
    },
    {
      "inputs": [],
      "name": "symbol",
      "outputs": [
        {
          "internalType": "string",
          "name": "",
          "type": "string"
        }
      ],
      "stateMutability": "view",
      "type": "function"
    },
    {
      "inputs": [],
      "name": "totalSupply",
      "outputs": [
        {
          "internalType": "uint256",
          "name": "",
          "type": "uint256"
        }
      ],
      "stateMutability": "view",
      "type": "function"
    },
    {
      "inputs": [
        {
          "internalType": "address",
          "name": "recipient",
          "type": "address"
        },
        {
          "internalType": "uint256",
          "name": "amount",
          "type": "uint256"
        }
      ],
      "name": "transfer",
      "outputs": [
        {
          "internalType": "bool",
          "name": "",
          "type": "bool"
        }
      ],
      "stateMutability": "nonpayable",
      "type": "function"
    },
    {
      "inputs": [
        {
          "internalType": "address",
          "name": "sender",
          "type": "address"
        },
        {
          "internalType": "address",
          "name": "recipient",
          "type": "address"
        },
        {
          "internalType": "uint256",
          "name": "amount",
          "type": "uint256"
        }
      ],
      "name": "transferFrom",
      "outputs": [
        {
          "internalType": "bool",
          "name": "",
          "type": "bool"
        }
      ],
      "stateMutability": "nonpayable",
      "type": "function"
    }
  ],
  "bytecode": "0x60a06040523480156200001157600080fd5b50604051620015483803806200154883398101604081905262000034916200020a565b6040805180820182526006815265536573616d6560d01b60208083019182528351808501909452600484526353454d4960e01b9084015281519192916200007e9160039162000164565b5080516200009490600490602084019062000164565b5050506080819052620000a9600033620000b0565b5062000261565b620000bc8282620000c0565b5050565b60008281526005602090815260408083206001600160a01b038516845290915290205460ff16620000bc5760008281526005602090815260408083206001600160a01b03851684529091529020805460ff19166001179055620001203390565b6001600160a01b0316816001600160a01b0316837f2f8788117e7eff1d82e926ec794901d17c78024a50270940304540a733656f0d60405160405180910390a45050565b828054620001729062000224565b90600052602060002090601f016020900481019282620001965760008555620001e1565b82601f10620001b157805160ff1916838001178555620001e1565b82800160010185558215620001e1579182015b82811115620001e1578251825591602001919060010190620001c4565b50620001ef929150620001f3565b5090565b5b80821115620001ef5760008155600101620001f4565b6000602082840312156200021d57600080fd5b5051919050565b600181811c908216806200023957607f821691505b602082108114156200025b57634e487b7160e01b600052602260045260246000fd5b50919050565b6080516112c4620002846000396000818161017f01526105d801526112c46000f3fe608060405234801561001057600080fd5b50600436106101285760003560e01c806301ffc9a71461012d57806306fdde0314610155578063095ea7b31461016a5780630cfccc831461017d57806318160ddd146101ad57806323b872dd146101b5578063248a9ca3146101c8578063282c51f3146101db5780632f2ff15d146101f0578063313ce5671461020557806336568abe14610214578063395093511461022757806340c10f191461023a57806342966c681461024d57806370a082311461026057806373f425611461028957806391d148541461029257806395d89b41146102a5578063a217fddf146102ad578063a457c2d7146102b5578063a9059cbb146102c8578063d5391393146102db578063d547741f146102f0578063dd62ed3e14610303575b600080fd5b61014061013b366004611054565b61033c565b60405190151581526020015b60405180910390f35b61015d610373565b60405161014c91906110ed565b610140610178366004610fee565b610405565b7f00000000000000000000000000000000000000000000000000000000000000005b60405190815260200161014c565b60025461019f565b6101406101c3366004610fb2565b61041b565b61019f6101d6366004611018565b6104ca565b61019f60008051602061122f83398151915281565b6102036101fe366004611031565b6104df565b005b6040516012815260200161014c565b610203610222366004611031565b610501565b610140610235366004610fee565b61057f565b610140610248366004610fee565b6105bb565b61020361025b366004611018565b61062f565b61019f61026e366004610f64565b6001600160a01b031660009081526020819052604090205490565b61019f60065481565b6101406102a0366004611031565b61066d565b61015d610698565b61019f600081565b6101406102c3366004610fee565b6106a7565b6101406102d6366004610fee565b610740565b61019f60008051602061124f83398151915281565b6102036102fe366004611031565b61074d565b61019f610311366004610f7f565b6001600160a01b03918216600090815260016020908152604080832093909416825291909152205490565b60006001600160e01b03198216637965db0b60e01b148061036d57506301ffc9a760e01b6001600160e01b03198316145b92915050565b606060038054610382906111b1565b80601f01602080910402602001604051908101604052809291908181526020018280546103ae906111b1565b80156103fb5780601f106103d0576101008083540402835291602001916103fb565b820191906000526020600020905b8154815290600101906020018083116103de57829003601f168201915b5050505050905090565b600061041233848461076a565b50600192915050565b600061042884848461088e565b6001600160a01b0384166000908152600160209081526040808320338452909152902054828110156104b25760405162461bcd60e51b815260206004820152602860248201527f45524332303a207472616e7366657220616d6f756e74206578636565647320616044820152676c6c6f77616e636560c01b60648201526084015b60405180910390fd5b6104bf853385840361076a565b506001949350505050565b60009081526005602052604090206001015490565b6104e8826104ca565b6104f28133610a4c565b6104fc8383610ab0565b505050565b6001600160a01b03811633146105715760405162461bcd60e51b815260206004820152602f60248201527f416363657373436f6e74726f6c3a2063616e206f6e6c792072656e6f756e636560448201526e103937b632b9903337b91039b2b63360891b60648201526084016104a9565b61057b8282610b36565b5050565b3360008181526001602090815260408083206001600160a01b038716845290915281205490916104129185906105b6908690611120565b61076a565b600060008051602061124f8339815191526105d68133610a4c565b7f00000000000000000000000000000000000000000000000000000000000000008361060160025490565b61060b9190611120565b116106235761061a8484610b9d565b60019150610628565b600091505b5092915050565b60008051602061122f8339815191526106488133610a4c565b6106523383610c6a565b81600660008282546106649190611120565b90915550505050565b60009182526005602090815260408084206001600160a01b0393909316845291905290205460ff1690565b606060048054610382906111b1565b3360009081526001602090815260408083206001600160a01b0386168452909152812054828110156107295760405162461bcd60e51b815260206004820152602560248201527f45524332303a2064656372656173656420616c6c6f77616e63652062656c6f77604482015264207a65726f60d81b60648201526084016104a9565b610736338585840361076a565b5060019392505050565b600061041233848461088e565b610756826104ca565b6107608133610a4c565b6104fc8383610b36565b6001600160a01b0383166107cc5760405162461bcd60e51b8152602060048201526024808201527f45524332303a20617070726f76652066726f6d20746865207a65726f206164646044820152637265737360e01b60648201526084016104a9565b6001600160a01b03821661082d5760405162461bcd60e51b815260206004820152602260248201527f45524332303a20617070726f766520746f20746865207a65726f206164647265604482015261737360f01b60648201526084016104a9565b6001600160a01b0383811660008181526001602090815260408083209487168084529482529182902085905590518481527f8c5be1e5ebec7d5bd14f71427d1e84f3dd0314c0f7b2291e5b200ac8c7c3b925910160405180910390a3505050565b6001600160a01b0383166108f25760405162461bcd60e51b815260206004820152602560248201527f45524332303a207472616e736665722066726f6d20746865207a65726f206164604482015264647265737360d81b60648201526084016104a9565b6001600160a01b0382166109545760405162461bcd60e51b815260206004820152602360248201527f45524332303a207472616e7366657220746f20746865207a65726f206164647260448201526265737360e81b60648201526084016104a9565b6001600160a01b038316600090815260208190526040902054818110156109cc5760405162461bcd60e51b815260206004820152602660248201527f45524332303a207472616e7366657220616d6f756e7420657863656564732062604482015265616c616e636560d01b60648201526084016104a9565b6001600160a01b03808516600090815260208190526040808220858503905591851681529081208054849290610a03908490611120565b92505081905550826001600160a01b0316846001600160a01b031660008051602061126f83398151915284604051610a3d91815260200190565b60405180910390a35b50505050565b610a56828261066d565b61057b57610a6e816001600160a01b03166014610da6565b610a79836020610da6565b604051602001610a8a92919061107e565b60408051601f198184030181529082905262461bcd60e51b82526104a9916004016110ed565b610aba828261066d565b61057b5760008281526005602090815260408083206001600160a01b03851684529091529020805460ff19166001179055610af23390565b6001600160a01b0316816001600160a01b0316837f2f8788117e7eff1d82e926ec794901d17c78024a50270940304540a733656f0d60405160405180910390a45050565b610b40828261066d565b1561057b5760008281526005602090815260408083206001600160a01b0385168085529252808320805460ff1916905551339285917ff6391f5c32d9c69d2a47ea670b442974b53935d1edc7fd64eb21e047a839171b9190a45050565b6001600160a01b038216610bf35760405162461bcd60e51b815260206004820152601f60248201527f45524332303a206d696e7420746f20746865207a65726f20616464726573730060448201526064016104a9565b8060026000828254610c059190611120565b90915550506001600160a01b03821660009081526020819052604081208054839290610c32908490611120565b90915550506040518181526001600160a01b0383169060009060008051602061126f8339815191529060200160405180910390a35050565b6001600160a01b038216610cca5760405162461bcd60e51b815260206004820152602160248201527f45524332303a206275726e2066726f6d20746865207a65726f206164647265736044820152607360f81b60648201526084016104a9565b6001600160a01b03821660009081526020819052604090205481811015610d3e5760405162461bcd60e51b815260206004820152602260248201527f45524332303a206275726e20616d6f756e7420657863656564732062616c616e604482015261636560f01b60648201526084016104a9565b6001600160a01b0383166000908152602081905260408120838303905560028054849290610d6d908490611157565b90915550506040518281526000906001600160a01b0385169060008051602061126f8339815191529060200160405180910390a3505050565b60606000610db5836002611138565b610dc0906002611120565b6001600160401b03811115610dd757610dd7611218565b6040519080825280601f01601f191660200182016040528015610e01576020820181803683370190505b509050600360fc1b81600081518110610e1c57610e1c611202565b60200101906001600160f81b031916908160001a905350600f60fb1b81600181518110610e4b57610e4b611202565b60200101906001600160f81b031916908160001a9053506000610e6f846002611138565b610e7a906001611120565b90505b6001811115610ef2576f181899199a1a9b1b9c1cb0b131b232b360811b85600f1660108110610eae57610eae611202565b1a60f81b828281518110610ec457610ec4611202565b60200101906001600160f81b031916908160001a90535060049490941c93610eeb8161119a565b9050610e7d565b508315610f415760405162461bcd60e51b815260206004820181905260248201527f537472696e67733a20686578206c656e67746820696e73756666696369656e7460448201526064016104a9565b9392505050565b80356001600160a01b0381168114610f5f57600080fd5b919050565b600060208284031215610f7657600080fd5b610f4182610f48565b60008060408385031215610f9257600080fd5b610f9b83610f48565b9150610fa960208401610f48565b90509250929050565b600080600060608486031215610fc757600080fd5b610fd084610f48565b9250610fde60208501610f48565b9150604084013590509250925092565b6000806040838503121561100157600080fd5b61100a83610f48565b946020939093013593505050565b60006020828403121561102a57600080fd5b5035919050565b6000806040838503121561104457600080fd5b82359150610fa960208401610f48565b60006020828403121561106657600080fd5b81356001600160e01b031981168114610f4157600080fd5b76020b1b1b2b9b9a1b7b73a3937b61d1030b1b1b7bab73a1604d1b8152600083516110b081601785016020880161116e565b7001034b99036b4b9b9b4b733903937b6329607d1b60179184019182015283516110e181602884016020880161116e565b01602801949350505050565b602081526000825180602084015261110c81604085016020870161116e565b601f01601f19169190910160400192915050565b60008219821115611133576111336111ec565b500190565b6000816000190483118215151615611152576111526111ec565b500290565b600082821015611169576111696111ec565b500390565b60005b83811015611189578181015183820152602001611171565b83811115610a465750506000910152565b6000816111a9576111a96111ec565b506000190190565b600181811c908216806111c557607f821691505b602082108114156111e657634e487b7160e01b600052602260045260246000fd5b50919050565b634e487b7160e01b600052601160045260246000fd5b634e487b7160e01b600052603260045260246000fd5b634e487b7160e01b600052604160045260246000fdfe3c11d16cbaffd01df69ce1c404f6340ee057498f5f00246190ea54220576a8489f2df0fed2c77648de5860a4cc508cd0818c85b8b8a1ab4ceeef8d981c8956a6ddf252ad1be2c89b69c2b068fc378daa952ba7f163c4a11628f55a4df523b3efa26469706673582212207b91df79f14af358088178a2c07fefe413c492f396d6a3ceb96dd9edc0130d7564736f6c63430008070033",
  "linkReferences": {},
  "deployedLinkReferences": {}
}