{
  "_format": "hh-sol-artifact-1",
  "contractName": "PlayerRewardsDistributor",
  "sourceName": "contracts/PlayerRewardsDistributor.sol",
  "abi": [
    {
      "inputs": [
        {
          "internalType": "address",
          "name": "_sesameToken",
          "type": "address"
        },
        {
          "internalType": "address",
          "name": "_accountant",
          "type": "address"
        },
        {
          "internalType": "address",
          "name": "_treasury",
          "type": "address"
        }
      ],
      "stateMutability": "nonpayable",
      "type": "constructor"
    },
    {
      "anonymous": false,
      "inputs": [
        {
          "indexed": false,
          "internalType": "uint256",
          "name": "amount",
          "type": "uint256"
        }
      ],
      "name": "EmergencyWithdrawn",
      "type": "event"
    },
    {
      "anonymous": false,
      "inputs": [
        {
          "indexed": false,
          "internalType": "address",
          "name": "account",
          "type": "address"
        }
      ],
      "name": "Paused",
      "type": "event"
    },
    {
      "anonymous": false,
      "inputs": [
        {
          "indexed": true,
          "internalType": "address",
          "name": "user",
          "type": "address"
        },
        {
          "indexed": false,
          "internalType": "uint256",
          "name": "amount",
          "type": "uint256"
        }
      ],
      "name": "RewardsClaimed",
      "type": "event"
    },
    {
      "anonymous": false,
      "inputs": [
        {
          "indexed": true,
          "internalType": "bytes32",
          "name": "role",
          "type": "bytes32"
        },
        {
          "indexed": true,
          "internalType": "bytes32",
          "name": "previousAdminRole",
          "type": "bytes32"
        },
        {
          "indexed": true,
          "internalType": "bytes32",
          "name": "newAdminRole",
          "type": "bytes32"
        }
      ],
      "name": "RoleAdminChanged",
      "type": "event"
    },
    {
      "anonymous": false,
      "inputs": [
        {
          "indexed": true,
          "internalType": "bytes32",
          "name": "role",
          "type": "bytes32"
        },
        {
          "indexed": true,
          "internalType": "address",
          "name": "account",
          "type": "address"
        },
        {
          "indexed": true,
          "internalType": "address",
          "name": "sender",
          "type": "address"
        }
      ],
      "name": "RoleGranted",
      "type": "event"
    },
    {
      "anonymous": false,
      "inputs": [
        {
          "indexed": true,
          "internalType": "bytes32",
          "name": "role",
          "type": "bytes32"
        },
        {
          "indexed": true,
          "internalType": "address",
          "name": "account",
          "type": "address"
        },
        {
          "indexed": true,
          "internalType": "address",
          "name": "sender",
          "type": "address"
        }
      ],
      "name": "RoleRevoked",
      "type": "event"
    },
    {
      "anonymous": false,
      "inputs": [
        {
          "indexed": false,
          "internalType": "address",
          "name": "account",
          "type": "address"
        }
      ],
      "name": "Unpaused",
      "type": "event"
    },
    {
      "inputs": [],
      "name": "BUFFER_ADMIN_WITHDRAW",
      "outputs": [
        {
          "internalType": "uint256",
          "name": "",
          "type": "uint256"
        }
      ],
      "stateMutability": "view",
      "type": "function"
    },
    {
      "inputs": [],
      "name": "DEFAULT_ADMIN_ROLE",
      "outputs": [
        {
          "internalType": "bytes32",
          "name": "",
          "type": "bytes32"
        }
      ],
      "stateMutability": "view",
      "type": "function"
    },
    {
      "inputs": [],
      "name": "OPERATOR_ROLE",
      "outputs": [
        {
          "internalType": "bytes32",
          "name": "",
          "type": "bytes32"
        }
      ],
      "stateMutability": "view",
      "type": "function"
    },
    {
      "inputs": [],
      "name": "accountant",
      "outputs": [
        {
          "internalType": "contract IAccountant",
          "name": "",
          "type": "address"
        }
      ],
      "stateMutability": "view",
      "type": "function"
    },
    {
      "inputs": [
        {
          "internalType": "address",
          "name": "",
          "type": "address"
        }
      ],
      "name": "amountClaimedByUser",
      "outputs": [
        {
          "internalType": "uint256",
          "name": "",
          "type": "uint256"
        }
      ],
      "stateMutability": "view",
      "type": "function"
    },
    {
      "inputs": [
        {
          "internalType": "uint256",
          "name": "amount",
          "type": "uint256"
        }
      ],
      "name": "claim",
      "outputs": [],
      "stateMutability": "nonpayable",
      "type": "function"
    },
    {
      "inputs": [
        {
          "internalType": "address",
          "name": "_player",
          "type": "address"
        }
      ],
      "name": "claimable",
      "outputs": [
        {
          "internalType": "uint256",
          "name": "",
          "type": "uint256"
        }
      ],
      "stateMutability": "view",
      "type": "function"
    },
    {
      "inputs": [
        {
          "internalType": "uint256",
          "name": "amount",
          "type": "uint256"
        }
      ],
      "name": "emergencyWithdraw",
      "outputs": [],
      "stateMutability": "nonpayable",
      "type": "function"
    },
    {
      "inputs": [
        {
          "internalType": "bytes32",
          "name": "role",
          "type": "bytes32"
        }
      ],
      "name": "getRoleAdmin",
      "outputs": [
        {
          "internalType": "bytes32",
          "name": "",
          "type": "bytes32"
        }
      ],
      "stateMutability": "view",
      "type": "function"
    },
    {
      "inputs": [
        {
          "internalType": "bytes32",
          "name": "role",
          "type": "bytes32"
        },
        {
          "internalType": "address",
          "name": "account",
          "type": "address"
        }
      ],
      "name": "grantRole",
      "outputs": [],
      "stateMutability": "nonpayable",
      "type": "function"
    },
    {
      "inputs": [
        {
          "internalType": "bytes32",
          "name": "role",
          "type": "bytes32"
        },
        {
          "internalType": "address",
          "name": "account",
          "type": "address"
        }
      ],
      "name": "hasRole",
      "outputs": [
        {
          "internalType": "bool",
          "name": "",
          "type": "bool"
        }
      ],
      "stateMutability": "view",
      "type": "function"
    },
    {
      "inputs": [],
      "name": "lastPaused",
      "outputs": [
        {
          "internalType": "uint256",
          "name": "",
          "type": "uint256"
        }
      ],
      "stateMutability": "view",
      "type": "function"
    },
    {
      "inputs": [],
      "name": "pauseDistribution",
      "outputs": [],
      "stateMutability": "nonpayable",
      "type": "function"
    },
    {
      "inputs": [],
      "name": "paused",
      "outputs": [
        {
          "internalType": "bool",
          "name": "",
          "type": "bool"
        }
      ],
      "stateMutability": "view",
      "type": "function"
    },
    {
      "inputs": [
        {
          "internalType": "bytes32",
          "name": "role",
          "type": "bytes32"
        },
        {
          "internalType": "address",
          "name": "account",
          "type": "address"
        }
      ],
      "name": "renounceRole",
      "outputs": [],
      "stateMutability": "nonpayable",
      "type": "function"
    },
    {
      "inputs": [
        {
          "internalType": "bytes32",
          "name": "role",
          "type": "bytes32"
        },
        {
          "internalType": "address",
          "name": "account",
          "type": "address"
        }
      ],
      "name": "revokeRole",
      "outputs": [],
      "stateMutability": "nonpayable",
      "type": "function"
    },
    {
      "inputs": [],
      "name": "sesameToken",
      "outputs": [
        {
          "internalType": "contract IERC20",
          "name": "",
          "type": "address"
        }
      ],
      "stateMutability": "view",
      "type": "function"
    },
    {
      "inputs": [
        {
          "internalType": "bytes4",
          "name": "interfaceId",
          "type": "bytes4"
        }
      ],
      "name": "supportsInterface",
      "outputs": [
        {
          "internalType": "bool",
          "name": "",
          "type": "bool"
        }
      ],
      "stateMutability": "view",
      "type": "function"
    },
    {
      "inputs": [],
      "name": "totalClaimed",
      "outputs": [
        {
          "internalType": "uint256",
          "name": "",
          "type": "uint256"
        }
      ],
      "stateMutability": "view",
      "type": "function"
    },
    {
      "inputs": [],
      "name": "treasury",
      "outputs": [
        {
          "internalType": "address",
          "name": "",
          "type": "address"
        }
      ],
      "stateMutability": "view",
      "type": "function"
    },
    {
      "inputs": [],
      "name": "unclaimedWithdrawn",
      "outputs": [
        {
          "internalType": "uint256",
          "name": "",
          "type": "uint256"
        }
      ],
      "stateMutability": "view",
      "type": "function"
    },
    {
      "inputs": [],
      "name": "unpauseDistribution",
      "outputs": [],
      "stateMutability": "nonpayable",
      "type": "function"
    },
    {
      "inputs": [
        {
          "internalType": "uint256",
          "name": "amount",
          "type": "uint256"
        }
      ],
      "name": "withdrawUnclaimedToken",
      "outputs": [],
      "stateMutability": "nonpayable",
      "type": "function"
    }
  ],
  "bytecode": "0x60e06040523480156200001157600080fd5b50604051620014f6380380620014f68339810160408190526200003491620001f3565b6000805460ff19169055600180556001600160601b0319606084811b821660805283811b821660a05282901b1660c0526200006e62000084565b6200007b60003362000122565b5050506200023d565b60005460ff1615620000cf5760405162461bcd60e51b815260206004820152601060248201526f14185d5cd8589b194e881c185d5cd95960821b604482015260640160405180910390fd5b6000805460ff191660011790557f62e78cea01bee320cd4e420270b5ea74000d11b0c9f74754ebdbfc544b05a258620001053390565b6040516001600160a01b03909116815260200160405180910390a1565b6200012e828262000132565b5050565b60008281526002602090815260408083206001600160a01b038516845290915290205460ff166200012e5760008281526002602090815260408083206001600160a01b03851684529091529020805460ff19166001179055620001923390565b6001600160a01b0316816001600160a01b0316837f2f8788117e7eff1d82e926ec794901d17c78024a50270940304540a733656f0d60405160405180910390a45050565b80516001600160a01b0381168114620001ee57600080fd5b919050565b6000806000606084860312156200020957600080fd5b6200021484620001d6565b92506200022460208501620001d6565b91506200023460408501620001d6565b90509250925092565b60805160601c60a05160601c60c05160601c611256620002a060003960008181610269015261088d0152600081816101f0015281816105df01526107b601526000818161022401528181610538015281816106b2015261086b01526112566000f3fe608060405234801561001057600080fd5b506004361061011d5760003560e01c806301ffc9a714610122578063141fd8c81461014a578063248a9ca3146101625780632f2ff15d1461017557806331cec7a31461018a57806336568abe14610192578063379607f5146101a55780633b66f49d146101b8578063402914f5146101d85780634fb3ccc5146101eb57806352fe618c1461021f5780635312ea8e146102465780635c975abb1461025957806361d027b31461026457806391d148541461028b578063a217fddf1461029e578063b94ec9d0146102a6578063d547741f146102ae578063d54ad2a1146102c1578063df826eb3146102ca578063ecdc0d4d146102dd578063ee9d0867146102e6578063f5b541a6146102ef575b600080fd5b610135610130366004610fbc565b610304565b60405190151581526020015b60405180910390f35b6101546203f48081565b604051908152602001610141565b610154610170366004610f77565b61033b565b610188610183366004610f90565b610350565b005b610188610372565b6101886101a0366004610f90565b6103c6565b6101886101b3366004610f77565b610444565b6101546101c6366004610f3a565b60066020526000908152604090205481565b6101546101e6366004610f3a565b6105b2565b6102127f000000000000000000000000000000000000000000000000000000000000000081565b604051610141919061108a565b6102127f000000000000000000000000000000000000000000000000000000000000000081565b610188610254366004610f77565b610670565b60005460ff16610135565b6102127f000000000000000000000000000000000000000000000000000000000000000081565b610135610299366004610f90565b610710565b610154600081565b61018861073b565b6101886102bc366004610f90565b61077e565b61015460035481565b6101886102d8366004610f77565b61079b565b61015460055481565b61015460045481565b61015460008051602061120183398151915281565b60006001600160e01b03198216637965db0b60e01b148061033557506301ffc9a760e01b6001600160e01b03198316145b92915050565b60009081526002602052604090206001015490565b6103598261033b565b61036381336108cd565b61036d8383610931565b505050565b60008051602061120183398151915261038b81336108cd565b60005460ff16156103b75760405162461bcd60e51b81526004016103ae906110ff565b60405180910390fd5b426005556103c36109b7565b50565b6001600160a01b03811633146104365760405162461bcd60e51b815260206004820152602f60248201527f416363657373436f6e74726f6c3a2063616e206f6e6c792072656e6f756e636560448201526e103937b632b9903337b91039b2b63360891b60648201526084016103ae565b6104408282610a26565b5050565b60005460ff16156104675760405162461bcd60e51b81526004016103ae906110ff565b600260015414156104ba5760405162461bcd60e51b815260206004820152601f60248201527f5265656e7472616e637947756172643a207265656e7472616e742063616c6c0060448201526064016103ae565b6002600155806104c9336105b2565b10156105065760405162461bcd60e51b815260206004820152600c60248201526b125b9cdd59999a58da595b9d60a21b60448201526064016103ae565b3360009081526006602052604081208054839290610525908490611129565b9091555061055f90506001600160a01b037f0000000000000000000000000000000000000000000000000000000000000000163383610a8d565b80600360008282546105719190611129565b909155505060405181815233907ffc30cddea38e2bf4d6ea7d3f9ed3b6ad7f176419f4963bd81318067a4aee73fe9060200160405180910390a25060018055565b6001600160a01b03808216600090815260066020526040808220549051630642cd5160e01b8152919290917f000000000000000000000000000000000000000000000000000000000000000090911690630642cd519061061690869060040161108a565b60206040518083038186803b15801561062e57600080fd5b505afa158015610642573d6000803e3d6000fd5b505050506040513d601f19601f820116820180604052508101906106669190610fe6565b6103359190611160565b60008051602061120183398151915261068981336108cd565b6203f48060055461069a9190611129565b42116106a557600080fd5b6106d96001600160a01b037f0000000000000000000000000000000000000000000000000000000000000000163384610a8d565b6040518281527ff639e28400db464cf64a55c42636df1b181f180f2ad8519cbcec893760e6e6b79060200160405180910390a15050565b60009182526002602090815260408084206001600160a01b0393909316845291905290205460ff1690565b60008051602061120183398151915261075481336108cd565b60005460ff166107765760405162461bcd60e51b81526004016103ae906110d1565b6103c3610adf565b6107878261033b565b61079181336108cd565b61036d8383610a26565b6000805160206112018339815191526107b481336108cd565b7f00000000000000000000000000000000000000000000000000000000000000006001600160a01b031663c96f14b86040518163ffffffff1660e01b815260040160206040518083038186803b15801561080d57600080fd5b505afa158015610821573d6000803e3d6000fd5b505050506040513d601f19601f820116820180604052508101906108459190610fe6565b826004546108539190611129565b111561085e57600080fd5b6108b26001600160a01b037f0000000000000000000000000000000000000000000000000000000000000000167f000000000000000000000000000000000000000000000000000000000000000084610a8d565b81600460008282546108c49190611129565b90915550505050565b6108d78282610710565b610440576108ef816001600160a01b03166014610b32565b6108fa836020610b32565b60405160200161090b92919061101b565b60408051601f198184030181529082905262461bcd60e51b82526103ae9160040161109e565b61093b8282610710565b6104405760008281526002602090815260408083206001600160a01b03851684529091529020805460ff191660011790556109733390565b6001600160a01b0316816001600160a01b0316837f2f8788117e7eff1d82e926ec794901d17c78024a50270940304540a733656f0d60405160405180910390a45050565b60005460ff16156109da5760405162461bcd60e51b81526004016103ae906110ff565b6000805460ff191660011790557f62e78cea01bee320cd4e420270b5ea74000d11b0c9f74754ebdbfc544b05a258610a0f3390565b604051610a1c919061108a565b60405180910390a1565b610a308282610710565b156104405760008281526002602090815260408083206001600160a01b0385168085529252808320805460ff1916905551339285917ff6391f5c32d9c69d2a47ea670b442974b53935d1edc7fd64eb21e047a839171b9190a45050565b604080516001600160a01b038416602482015260448082018490528251808303909101815260649091019091526020810180516001600160e01b031663a9059cbb60e01b17905261036d908490610cd4565b60005460ff16610b015760405162461bcd60e51b81526004016103ae906110d1565b6000805460ff191690557f5db9ee0a495bf2e6ff9c91a7834c1ba4fdd244a5e8aa4e537bd38aeae4b073aa33610a0f565b60606000610b41836002611141565b610b4c906002611129565b6001600160401b03811115610b6357610b636111ea565b6040519080825280601f01601f191660200182016040528015610b8d576020820181803683370190505b509050600360fc1b81600081518110610ba857610ba86111d4565b60200101906001600160f81b031916908160001a905350600f60fb1b81600181518110610bd757610bd76111d4565b60200101906001600160f81b031916908160001a9053506000610bfb846002611141565b610c06906001611129565b90505b6001811115610c7e576f181899199a1a9b1b9c1cb0b131b232b360811b85600f1660108110610c3a57610c3a6111d4565b1a60f81b828281518110610c5057610c506111d4565b60200101906001600160f81b031916908160001a90535060049490941c93610c77816111a7565b9050610c09565b508315610ccd5760405162461bcd60e51b815260206004820181905260248201527f537472696e67733a20686578206c656e67746820696e73756666696369656e7460448201526064016103ae565b9392505050565b6000610d29826040518060400160405280602081526020017f5361666545524332303a206c6f772d6c6576656c2063616c6c206661696c6564815250856001600160a01b0316610da69092919063ffffffff16565b80519091501561036d5780806020019051810190610d479190610f55565b61036d5760405162461bcd60e51b815260206004820152602a60248201527f5361666545524332303a204552433230206f7065726174696f6e20646964206e6044820152691bdd081cdd58d8d9595960b21b60648201526084016103ae565b6060610db58484600085610dbd565b949350505050565b606082471015610e1e5760405162461bcd60e51b815260206004820152602660248201527f416464726573733a20696e73756666696369656e742062616c616e636520666f6044820152651c8818d85b1b60d21b60648201526084016103ae565b843b610e6c5760405162461bcd60e51b815260206004820152601d60248201527f416464726573733a2063616c6c20746f206e6f6e2d636f6e747261637400000060448201526064016103ae565b600080866001600160a01b03168587604051610e889190610fff565b60006040518083038185875af1925050503d8060008114610ec5576040519150601f19603f3d011682016040523d82523d6000602084013e610eca565b606091505b5091509150610eda828286610ee5565b979650505050505050565b60608315610ef4575081610ccd565b825115610f045782518084602001fd5b8160405162461bcd60e51b81526004016103ae919061109e565b80356001600160a01b0381168114610f3557600080fd5b919050565b600060208284031215610f4c57600080fd5b610ccd82610f1e565b600060208284031215610f6757600080fd5b81518015158114610ccd57600080fd5b600060208284031215610f8957600080fd5b5035919050565b60008060408385031215610fa357600080fd5b82359150610fb360208401610f1e565b90509250929050565b600060208284031215610fce57600080fd5b81356001600160e01b031981168114610ccd57600080fd5b600060208284031215610ff857600080fd5b5051919050565b60008251611011818460208701611177565b9190910192915050565b76020b1b1b2b9b9a1b7b73a3937b61d1030b1b1b7bab73a1604d1b81526000835161104d816017850160208801611177565b7001034b99036b4b9b9b4b733903937b6329607d1b601791840191820152835161107e816028840160208801611177565b01602801949350505050565b6001600160a01b0391909116815260200190565b60208152600082518060208401526110bd816040850160208701611177565b601f01601f19169190910160400192915050565b60208082526014908201527314185d5cd8589b194e881b9bdd081c185d5cd95960621b604082015260600190565b60208082526010908201526f14185d5cd8589b194e881c185d5cd95960821b604082015260600190565b6000821982111561113c5761113c6111be565b500190565b600081600019048311821515161561115b5761115b6111be565b500290565b600082821015611172576111726111be565b500390565b60005b8381101561119257818101518382015260200161117a565b838111156111a1576000848401525b50505050565b6000816111b6576111b66111be565b506000190190565b634e487b7160e01b600052601160045260246000fd5b634e487b7160e01b600052603260045260246000fd5b634e487b7160e01b600052604160045260246000fdfe97667070c54ef182b0f5858b034beac1b6f3089aa2d3188bb1e8929f4fa9b929a264697066735822122000890bb68ddb4d89d16a04f9d31e6ec6da3fd7bb9903d65075c8351739de868364736f6c63430008070033",
  "linkReferences": {},
  "deployedLinkReferences": {}
}