{
  "_format": "hh-sol-artifact-1",
  "contractName": "PlayerRewardsDistributor",
  "sourceName": "contracts/PlayerRewardsDistributor.sol",
  "abi": [
    {
      "inputs": [
        {
          "internalType": "address",
          "name": "_sesameToken",
          "type": "address"
        }
      ],
      "stateMutability": "nonpayable",
      "type": "constructor"
    },
    {
      "anonymous": false,
      "inputs": [
        {
          "indexed": true,
          "internalType": "address",
          "name": "previousOwner",
          "type": "address"
        },
        {
          "indexed": true,
          "internalType": "address",
          "name": "newOwner",
          "type": "address"
        }
      ],
      "name": "OwnershipTransferred",
      "type": "event"
    },
    {
      "anonymous": false,
      "inputs": [
        {
          "indexed": false,
          "internalType": "address",
          "name": "account",
          "type": "address"
        }
      ],
      "name": "Paused",
      "type": "event"
    },
    {
      "anonymous": false,
      "inputs": [
        {
          "indexed": true,
          "internalType": "address",
          "name": "user",
          "type": "address"
        },
        {
          "indexed": true,
          "internalType": "uint256",
          "name": "rewardRound",
          "type": "uint256"
        },
        {
          "indexed": false,
          "internalType": "uint256",
          "name": "amount",
          "type": "uint256"
        }
      ],
      "name": "RewardsClaim",
      "type": "event"
    },
    {
      "anonymous": false,
      "inputs": [
        {
          "indexed": false,
          "internalType": "uint256",
          "name": "amount",
          "type": "uint256"
        }
      ],
      "name": "TokenWithdrawnOwner",
      "type": "event"
    },
    {
      "anonymous": false,
      "inputs": [
        {
          "indexed": false,
          "internalType": "address",
          "name": "account",
          "type": "address"
        }
      ],
      "name": "Unpaused",
      "type": "event"
    },
    {
      "anonymous": false,
      "inputs": [
        {
          "indexed": true,
          "internalType": "uint256",
          "name": "rewardRound",
          "type": "uint256"
        }
      ],
      "name": "UpdatePlayerRewards",
      "type": "event"
    },
    {
      "inputs": [],
      "name": "BUFFER_ADMIN_WITHDRAW",
      "outputs": [
        {
          "internalType": "uint256",
          "name": "",
          "type": "uint256"
        }
      ],
      "stateMutability": "view",
      "type": "function"
    },
    {
      "inputs": [
        {
          "internalType": "address",
          "name": "",
          "type": "address"
        }
      ],
      "name": "amountClaimedByUser",
      "outputs": [
        {
          "internalType": "uint256",
          "name": "",
          "type": "uint256"
        }
      ],
      "stateMutability": "view",
      "type": "function"
    },
    {
      "inputs": [
        {
          "internalType": "address",
          "name": "user",
          "type": "address"
        },
        {
          "internalType": "uint256",
          "name": "amount",
          "type": "uint256"
        },
        {
          "internalType": "bytes32[]",
          "name": "merkleProof",
          "type": "bytes32[]"
        }
      ],
      "name": "canClaim",
      "outputs": [
        {
          "internalType": "bool",
          "name": "verified",
          "type": "bool"
        },
        {
          "internalType": "uint256",
          "name": "available",
          "type": "uint256"
        }
      ],
      "stateMutability": "view",
      "type": "function"
    },
    {
      "inputs": [
        {
          "internalType": "uint256",
          "name": "amount",
          "type": "uint256"
        },
        {
          "internalType": "bytes32[]",
          "name": "merkleProof",
          "type": "bytes32[]"
        }
      ],
      "name": "claim",
      "outputs": [],
      "stateMutability": "nonpayable",
      "type": "function"
    },
    {
      "inputs": [],
      "name": "currentRewardRound",
      "outputs": [
        {
          "internalType": "uint256",
          "name": "",
          "type": "uint256"
        }
      ],
      "stateMutability": "view",
      "type": "function"
    },
    {
      "inputs": [
        {
          "internalType": "uint256",
          "name": "",
          "type": "uint256"
        },
        {
          "internalType": "address",
          "name": "",
          "type": "address"
        }
      ],
      "name": "hasUserClaimedForRewardRound",
      "outputs": [
        {
          "internalType": "bool",
          "name": "",
          "type": "bool"
        }
      ],
      "stateMutability": "view",
      "type": "function"
    },
    {
      "inputs": [],
      "name": "lastPausedTimestamp",
      "outputs": [
        {
          "internalType": "uint256",
          "name": "",
          "type": "uint256"
        }
      ],
      "stateMutability": "view",
      "type": "function"
    },
    {
      "inputs": [],
      "name": "maximumAmountPerUserInCurrentTree",
      "outputs": [
        {
          "internalType": "uint256",
          "name": "",
          "type": "uint256"
        }
      ],
      "stateMutability": "view",
      "type": "function"
    },
    {
      "inputs": [
        {
          "internalType": "uint256",
          "name": "",
          "type": "uint256"
        }
      ],
      "name": "merkleRootOfRewardRound",
      "outputs": [
        {
          "internalType": "bytes32",
          "name": "",
          "type": "bytes32"
        }
      ],
      "stateMutability": "view",
      "type": "function"
    },
    {
      "inputs": [
        {
          "internalType": "bytes32",
          "name": "",
          "type": "bytes32"
        }
      ],
      "name": "merkleRootUsed",
      "outputs": [
        {
          "internalType": "bool",
          "name": "",
          "type": "bool"
        }
      ],
      "stateMutability": "view",
      "type": "function"
    },
    {
      "inputs": [],
      "name": "owner",
      "outputs": [
        {
          "internalType": "address",
          "name": "",
          "type": "address"
        }
      ],
      "stateMutability": "view",
      "type": "function"
    },
    {
      "inputs": [],
      "name": "pauseDistribution",
      "outputs": [],
      "stateMutability": "nonpayable",
      "type": "function"
    },
    {
      "inputs": [],
      "name": "paused",
      "outputs": [
        {
          "internalType": "bool",
          "name": "",
          "type": "bool"
        }
      ],
      "stateMutability": "view",
      "type": "function"
    },
    {
      "inputs": [],
      "name": "renounceOwnership",
      "outputs": [],
      "stateMutability": "nonpayable",
      "type": "function"
    },
    {
      "inputs": [],
      "name": "sesameToken",
      "outputs": [
        {
          "internalType": "contract IERC20",
          "name": "",
          "type": "address"
        }
      ],
      "stateMutability": "view",
      "type": "function"
    },
    {
      "inputs": [
        {
          "internalType": "address",
          "name": "newOwner",
          "type": "address"
        }
      ],
      "name": "transferOwnership",
      "outputs": [],
      "stateMutability": "nonpayable",
      "type": "function"
    },
    {
      "inputs": [],
      "name": "unpauseDistribution",
      "outputs": [],
      "stateMutability": "nonpayable",
      "type": "function"
    },
    {
      "inputs": [
        {
          "internalType": "bytes32",
          "name": "merkleRoot",
          "type": "bytes32"
        },
        {
          "internalType": "uint256",
          "name": "newMaximumAmountPerUser",
          "type": "uint256"
        }
      ],
      "name": "updatePlayerRewards",
      "outputs": [],
      "stateMutability": "nonpayable",
      "type": "function"
    },
    {
      "inputs": [
        {
          "internalType": "uint256",
          "name": "amount",
          "type": "uint256"
        }
      ],
      "name": "withdrawTokenRewards",
      "outputs": [],
      "stateMutability": "nonpayable",
      "type": "function"
    }
  ],
  "bytecode": "0x60a060405234801561001057600080fd5b5060405161137838038061137883398101604081905261002f91610154565b6000805460ff191690556001805561004633610066565b6001600160601b0319606082901b166080526100606100b8565b50610184565b600280546001600160a01b038381166001600160a01b0319831681179093556040519116919082907f8be0079c531659141344cd1fd0a4f28419497f9722a3daafe3b4186f6b6457e090600090a35050565b60005460ff16156101025760405162461bcd60e51b815260206004820152601060248201526f14185d5cd8589b194e881c185d5cd95960821b604482015260640160405180910390fd5b6000805460ff191660011790557f62e78cea01bee320cd4e420270b5ea74000d11b0c9f74754ebdbfc544b05a2586101373390565b6040516001600160a01b03909116815260200160405180910390a1565b60006020828403121561016657600080fd5b81516001600160a01b038116811461017d57600080fd5b9392505050565b60805160601c6111c86101b06000396000818161015e0152818161048a015261064901526111c86000f3fe608060405234801561001057600080fd5b50600436106100f15760003560e01c80631040faf9146100f6578063141fd8c8146101125780632f52ebb71461011c57806331cec7a3146101315780633b66f49d1461013957806352fe618c146101595780635c975abb1461018d578063715018a6146101a457806384483c86146101ac5780638923e2f7146101cc5780638da5cb5b146101df5780639ea76f34146101e7578063b94ec9d014610215578063ba42590d1461021d578063d35dfd0514610240578063dc38bdb514610253578063f2fde38b1461027d578063fa46197414610290578063ff0a4eb014610299575b600080fd5b6100ff60035481565b6040519081526020015b60405180910390f35b6100ff6203f48081565b61012f61012a366004610fb1565b6102a2565b005b61012f6104f4565b6100ff610147366004610eb4565b60066020526000908152604090205481565b6101807f000000000000000000000000000000000000000000000000000000000000000081565b6040516101099190611018565b60005460ff165b6040519015158152602001610109565b61012f610554565b6100ff6101ba366004610f4a565b60076020526000908152604090205481565b61012f6101da366004610f4a565b61058d565b6101806106a6565b6101946101f5366004610f85565b600960209081526000928352604080842090915290825290205460ff1681565b61012f6106b5565b61019461022b366004610f4a565b60086020526000908152604090205460ff1681565b61012f61024e366004610f63565b61070e565b610266610261366004610ecf565b610810565b604080519215158352602083019190915201610109565b61012f61028b366004610eb4565b61082d565b6100ff60045481565b6100ff60055481565b60005460ff16156102ce5760405162461bcd60e51b81526004016102c59061108d565b60405180910390fd5b600260015414156103215760405162461bcd60e51b815260206004820152601f60248201527f5265656e7472616e637947756172643a207265656e7472616e742063616c6c0060448201526064016102c5565b6002600155600354600090815260096020908152604080832033845290915290205460ff161561038e5760405162461bcd60e51b815260206004820152601860248201527714995dd85c991cce88105b1c9958591e4818db185a5b595960421b60448201526064016102c5565b60008061039d338686866108cd565b91509150816103e75760405162461bcd60e51b81526020600482015260166024820152752932bbb0b932399d1024b73b30b634b210383937b7b360511b60448201526064016102c5565b8460055410156104395760405162461bcd60e51b815260206004820152601f60248201527f526577617264733a20416d6f756e7420686967686572207468616e206d61780060448201526064016102c5565b60035460009081526009602090815260408083203384528252808320805460ff191660011790556006909152812080548392906104779084906110ec565b909155506104b190506001600160a01b037f00000000000000000000000000000000000000000000000000000000000000001633836109d4565b60035460405182815233907fe8dbd8c18906df11a70832fe7c874d1fddf6952cee2320658d669256183879999060200160405180910390a3505060018055505050565b336104fd6106a6565b6001600160a01b0316146105235760405162461bcd60e51b81526004016102c5906110b7565b60005460ff16156105465760405162461bcd60e51b81526004016102c59061108d565b42600455610552610a2b565b565b3361055d6106a6565b6001600160a01b0316146105835760405162461bcd60e51b81526004016102c5906110b7565b6105526000610a9a565b336105966106a6565b6001600160a01b0316146105bc5760405162461bcd60e51b81526004016102c5906110b7565b60005460ff166105de5760405162461bcd60e51b81526004016102c59061105f565b6203f4806004546105ef91906110ec565b421161063c5760405162461bcd60e51b815260206004820152601c60248201527b4f776e65723a20546f6f206561726c7920746f20776974686472617760201b60448201526064016102c5565b6106706001600160a01b037f00000000000000000000000000000000000000000000000000000000000000001633836109d4565b6040518181527fb4cd5c4a08bbed33abfe773ece179d156730e39629e065b7dcd8263027387c1d9060200160405180910390a150565b6002546001600160a01b031690565b336106be6106a6565b6001600160a01b0316146106e45760405162461bcd60e51b81526004016102c5906110b7565b60005460ff166107065760405162461bcd60e51b81526004016102c59061105f565b610552610aec565b336107176106a6565b6001600160a01b03161461073d5760405162461bcd60e51b81526004016102c5906110b7565b60008281526008602052604090205460ff161561079c5760405162461bcd60e51b815260206004820152601f60248201527f4f776e65723a204d65726b6c6520726f6f7420616c726561647920757365640060448201526064016102c5565b600380549060006107ac8361114b565b90915550506003805460009081526007602090815260408083208690558583526008909152808220805460ff191660011790556005849055915491517f462ee2bf49e97f85749ecd9d23b0c1de0171f7122c17377b3543e89ecfd1d6d39190a25050565b60008061081f868686866108cd565b915091505b94509492505050565b336108366106a6565b6001600160a01b03161461085c5760405162461bcd60e51b81526004016102c5906110b7565b6001600160a01b0381166108c15760405162461bcd60e51b815260206004820152602660248201527f4f776e61626c653a206e6577206f776e657220697320746865207a65726f206160448201526564647265737360d01b60648201526084016102c5565b6108ca81610a9a565b50565b6040516001600160601b0319606086901b1660208201526034810184905260009081908190605401604051602081830303815290604052805190602001209050600061095c86868080602002602001604051908101604052809392919081815260200183836020028082843760009201829052506003548152600760205260409020549250869150610b3f9050565b9050801580610990575060035460009081526009602090815260408083206001600160a01b038c16845290915290205460ff165b156109a357600080935093505050610824565b6001600160a01b0388166000908152600660205260409020546001906109c99089611104565b935093505050610824565b604080516001600160a01b038416602482015260448082018490528251808303909101815260649091019091526020810180516001600160e01b031663a9059cbb60e01b179052610a26908490610b57565b505050565b60005460ff1615610a4e5760405162461bcd60e51b81526004016102c59061108d565b6000805460ff191660011790557f62e78cea01bee320cd4e420270b5ea74000d11b0c9f74754ebdbfc544b05a258610a833390565b604051610a909190611018565b60405180910390a1565b600280546001600160a01b038381166001600160a01b0319831681179093556040519116919082907f8be0079c531659141344cd1fd0a4f28419497f9722a3daafe3b4186f6b6457e090600090a35050565b60005460ff16610b0e5760405162461bcd60e51b81526004016102c59061105f565b6000805460ff191690557f5db9ee0a495bf2e6ff9c91a7834c1ba4fdd244a5e8aa4e537bd38aeae4b073aa33610a83565b600082610b4c8584610c29565b1490505b9392505050565b6000610bac826040518060400160405280602081526020017f5361666545524332303a206c6f772d6c6576656c2063616c6c206661696c6564815250856001600160a01b0316610cd59092919063ffffffff16565b805190915015610a265780806020019051810190610bca9190610f28565b610a265760405162461bcd60e51b815260206004820152602a60248201527f5361666545524332303a204552433230206f7065726174696f6e20646964206e6044820152691bdd081cdd58d8d9595960b21b60648201526084016102c5565b600081815b8451811015610ccd576000858281518110610c4b57610c4b61117c565b60200260200101519050808311610c8d576040805160208101859052908101829052606001604051602081830303815290604052805190602001209250610cba565b60408051602081018390529081018490526060016040516020818303038152906040528051906020012092505b5080610cc58161114b565b915050610c2e565b509392505050565b6060610ce48484600085610cec565b949350505050565b606082471015610d4d5760405162461bcd60e51b815260206004820152602660248201527f416464726573733a20696e73756666696369656e742062616c616e636520666f6044820152651c8818d85b1b60d21b60648201526084016102c5565b843b610d9b5760405162461bcd60e51b815260206004820152601d60248201527f416464726573733a2063616c6c20746f206e6f6e2d636f6e747261637400000060448201526064016102c5565b600080866001600160a01b03168587604051610db79190610ffc565b60006040518083038185875af1925050503d8060008114610df4576040519150601f19603f3d011682016040523d82523d6000602084013e610df9565b606091505b5091509150610e09828286610e14565b979650505050505050565b60608315610e23575081610b50565b825115610e335782518084602001fd5b8160405162461bcd60e51b81526004016102c5919061102c565b80356001600160a01b0381168114610e6457600080fd5b919050565b60008083601f840112610e7b57600080fd5b5081356001600160401b03811115610e9257600080fd5b6020830191508360208260051b8501011115610ead57600080fd5b9250929050565b600060208284031215610ec657600080fd5b610b5082610e4d565b60008060008060608587031215610ee557600080fd5b610eee85610e4d565b93506020850135925060408501356001600160401b03811115610f1057600080fd5b610f1c87828801610e69565b95989497509550505050565b600060208284031215610f3a57600080fd5b81518015158114610b5057600080fd5b600060208284031215610f5c57600080fd5b5035919050565b60008060408385031215610f7657600080fd5b50508035926020909101359150565b60008060408385031215610f9857600080fd5b82359150610fa860208401610e4d565b90509250929050565b600080600060408486031215610fc657600080fd5b8335925060208401356001600160401b03811115610fe357600080fd5b610fef86828701610e69565b9497909650939450505050565b6000825161100e81846020870161111b565b9190910192915050565b6001600160a01b0391909116815260200190565b602081526000825180602084015261104b81604085016020870161111b565b601f01601f19169190910160400192915050565b60208082526014908201527314185d5cd8589b194e881b9bdd081c185d5cd95960621b604082015260600190565b60208082526010908201526f14185d5cd8589b194e881c185d5cd95960821b604082015260600190565b6020808252818101527f4f776e61626c653a2063616c6c6572206973206e6f7420746865206f776e6572604082015260600190565b600082198211156110ff576110ff611166565b500190565b60008282101561111657611116611166565b500390565b60005b8381101561113657818101518382015260200161111e565b83811115611145576000848401525b50505050565b600060001982141561115f5761115f611166565b5060010190565b634e487b7160e01b600052601160045260246000fd5b634e487b7160e01b600052603260045260246000fdfea2646970667358221220de66a40baf50f09c624fb659e8a84b5b4fc94799cfccf52b594bd55e5a40578264736f6c63430008070033",
  "linkReferences": {},
  "deployedLinkReferences": {}
}