{
  "_format": "hh-sol-artifact-1",
  "contractName": "SesameBnb",
  "sourceName": "contracts/SesameBnb.sol",
  "abi": [
    {
      "inputs": [
        {
          "internalType": "address",
          "name": "_governance",
          "type": "address"
        },
        {
          "internalType": "address",
          "name": "_priceFeedAddress",
          "type": "address"
        },
        {
          "internalType": "uint256",
          "name": "_ticketPrice",
          "type": "uint256"
        },
        {
          "internalType": "uint256",
          "name": "_ticketPerRound",
          "type": "uint256"
        },
        {
          "internalType": "uint256",
          "name": "_feePercent",
          "type": "uint256"
        },
        {
          "internalType": "uint256",
          "name": "_priceFeedDecimal",
          "type": "uint256"
        },
        {
          "internalType": "string",
          "name": "_version",
          "type": "string"
        }
      ],
      "stateMutability": "nonpayable",
      "type": "constructor"
    },
    {
      "anonymous": false,
      "inputs": [
        {
          "indexed": true,
          "internalType": "address",
          "name": "user",
          "type": "address"
        },
        {
          "indexed": false,
          "internalType": "uint256",
          "name": "round",
          "type": "uint256"
        },
        {
          "indexed": false,
          "internalType": "uint256",
          "name": "price",
          "type": "uint256"
        }
      ],
      "name": "DeclareWinner",
      "type": "event"
    },
    {
      "anonymous": false,
      "inputs": [
        {
          "indexed": false,
          "internalType": "uint256",
          "name": "round",
          "type": "uint256"
        }
      ],
      "name": "EndedRound",
      "type": "event"
    },
    {
      "anonymous": false,
      "inputs": [
        {
          "indexed": true,
          "internalType": "address",
          "name": "by",
          "type": "address"
        },
        {
          "indexed": false,
          "internalType": "uint256",
          "name": "round",
          "type": "uint256"
        },
        {
          "indexed": false,
          "internalType": "uint256",
          "name": "tickets",
          "type": "uint256"
        }
      ],
      "name": "EnterTicket",
      "type": "event"
    },
    {
      "anonymous": false,
      "inputs": [
        {
          "indexed": true,
          "internalType": "address",
          "name": "previousOwner",
          "type": "address"
        },
        {
          "indexed": true,
          "internalType": "address",
          "name": "newOwner",
          "type": "address"
        }
      ],
      "name": "OwnershipTransferred",
      "type": "event"
    },
    {
      "anonymous": false,
      "inputs": [
        {
          "indexed": false,
          "internalType": "uint256",
          "name": "round",
          "type": "uint256"
        }
      ],
      "name": "StartedRound",
      "type": "event"
    },
    {
      "inputs": [],
      "name": "currentFees",
      "outputs": [
        {
          "internalType": "uint256",
          "name": "",
          "type": "uint256"
        }
      ],
      "stateMutability": "view",
      "type": "function"
    },
    {
      "inputs": [],
      "name": "currentFund",
      "outputs": [
        {
          "internalType": "uint256",
          "name": "",
          "type": "uint256"
        }
      ],
      "stateMutability": "view",
      "type": "function"
    },
    {
      "inputs": [],
      "name": "endLottery",
      "outputs": [],
      "stateMutability": "nonpayable",
      "type": "function"
    },
    {
      "inputs": [
        {
          "internalType": "uint256",
          "name": "tickets",
          "type": "uint256"
        }
      ],
      "name": "enter",
      "outputs": [],
      "stateMutability": "payable",
      "type": "function"
    },
    {
      "inputs": [],
      "name": "feePercent",
      "outputs": [
        {
          "internalType": "uint256",
          "name": "",
          "type": "uint256"
        }
      ],
      "stateMutability": "view",
      "type": "function"
    },
    {
      "inputs": [],
      "name": "getPlayersCount",
      "outputs": [
        {
          "internalType": "uint256",
          "name": "count",
          "type": "uint256"
        }
      ],
      "stateMutability": "view",
      "type": "function"
    },
    {
      "inputs": [],
      "name": "getPriceFeed",
      "outputs": [
        {
          "internalType": "uint256",
          "name": "",
          "type": "uint256"
        }
      ],
      "stateMutability": "view",
      "type": "function"
    },
    {
      "inputs": [],
      "name": "netTicketPrice",
      "outputs": [
        {
          "internalType": "uint256",
          "name": "",
          "type": "uint256"
        }
      ],
      "stateMutability": "view",
      "type": "function"
    },
    {
      "inputs": [],
      "name": "owner",
      "outputs": [
        {
          "internalType": "address",
          "name": "",
          "type": "address"
        }
      ],
      "stateMutability": "view",
      "type": "function"
    },
    {
      "inputs": [
        {
          "internalType": "uint256",
          "name": "rand",
          "type": "uint256"
        }
      ],
      "name": "pickWinner",
      "outputs": [],
      "stateMutability": "nonpayable",
      "type": "function"
    },
    {
      "inputs": [
        {
          "internalType": "uint256",
          "name": "",
          "type": "uint256"
        }
      ],
      "name": "players",
      "outputs": [
        {
          "internalType": "address payable",
          "name": "",
          "type": "address"
        }
      ],
      "stateMutability": "view",
      "type": "function"
    },
    {
      "inputs": [],
      "name": "recentWinner",
      "outputs": [
        {
          "internalType": "address payable",
          "name": "",
          "type": "address"
        }
      ],
      "stateMutability": "view",
      "type": "function"
    },
    {
      "inputs": [],
      "name": "renounceOwnership",
      "outputs": [],
      "stateMutability": "nonpayable",
      "type": "function"
    },
    {
      "inputs": [],
      "name": "round",
      "outputs": [
        {
          "internalType": "uint256",
          "name": "",
          "type": "uint256"
        }
      ],
      "stateMutability": "view",
      "type": "function"
    },
    {
      "inputs": [],
      "name": "startLottery",
      "outputs": [],
      "stateMutability": "nonpayable",
      "type": "function"
    },
    {
      "inputs": [],
      "name": "state",
      "outputs": [
        {
          "internalType": "enum SesameBnb.LOTTERY_STATE",
          "name": "",
          "type": "uint8"
        }
      ],
      "stateMutability": "view",
      "type": "function"
    },
    {
      "inputs": [],
      "name": "ticketPerRound",
      "outputs": [
        {
          "internalType": "uint256",
          "name": "",
          "type": "uint256"
        }
      ],
      "stateMutability": "view",
      "type": "function"
    },
    {
      "inputs": [],
      "name": "ticketPrice",
      "outputs": [
        {
          "internalType": "uint256",
          "name": "",
          "type": "uint256"
        }
      ],
      "stateMutability": "view",
      "type": "function"
    },
    {
      "inputs": [],
      "name": "totalFeesCollected",
      "outputs": [
        {
          "internalType": "uint256",
          "name": "",
          "type": "uint256"
        }
      ],
      "stateMutability": "view",
      "type": "function"
    },
    {
      "inputs": [],
      "name": "totalFeesEmitted",
      "outputs": [
        {
          "internalType": "uint256",
          "name": "",
          "type": "uint256"
        }
      ],
      "stateMutability": "view",
      "type": "function"
    },
    {
      "inputs": [],
      "name": "totalFundCollected",
      "outputs": [
        {
          "internalType": "uint256",
          "name": "",
          "type": "uint256"
        }
      ],
      "stateMutability": "view",
      "type": "function"
    },
    {
      "inputs": [],
      "name": "totalFundEmitted",
      "outputs": [
        {
          "internalType": "uint256",
          "name": "",
          "type": "uint256"
        }
      ],
      "stateMutability": "view",
      "type": "function"
    },
    {
      "inputs": [
        {
          "internalType": "address",
          "name": "newOwner",
          "type": "address"
        }
      ],
      "name": "transferOwnership",
      "outputs": [],
      "stateMutability": "nonpayable",
      "type": "function"
    },
    {
      "inputs": [],
      "name": "version",
      "outputs": [
        {
          "internalType": "string",
          "name": "",
          "type": "string"
        }
      ],
      "stateMutability": "view",
      "type": "function"
    }
  ],
  "bytecode": "0x60e06040523480156200001157600080fd5b5060405162001633380380620016338339810160408190526200003491620001cc565b6200003f33620000b9565b6000805460ff60a01b1916600160a01b179055600280546001600160a01b038981166001600160a01b0319928316179092556001805492891692909116919091179055608085905260a084905260c0839052600c8290558051620000ab90600d90602084019062000109565b50505050505050506200034c565b600080546001600160a01b038381166001600160a01b0319831681178455604051919092169283917f8be0079c531659141344cd1fd0a4f28419497f9722a3daafe3b4186f6b6457e09190a35050565b8280546200011790620002f9565b90600052602060002090601f0160209004810192826200013b576000855562000186565b82601f106200015657805160ff191683800117855562000186565b8280016001018555821562000186579182015b828111156200018657825182559160200191906001019062000169565b506200019492915062000198565b5090565b5b8082111562000194576000815560010162000199565b80516001600160a01b0381168114620001c757600080fd5b919050565b600080600080600080600060e0888a031215620001e857600080fd5b620001f388620001af565b9650602062000204818a01620001af565b60408a015160608b015160808c015160a08d015160c08e0151949b50929950909750955093506001600160401b03808211156200024057600080fd5b818b0191508b601f8301126200025557600080fd5b8151818111156200026a576200026a62000336565b604051601f8201601f19908116603f0116810190838211818310171562000295576200029562000336565b816040528281528e86848701011115620002ae57600080fd5b600093505b82841015620002d25784840186015181850187015292850192620002b3565b82841115620002e45760008684830101525b80965050505050505092959891949750929550565b600181811c908216806200030e57607f821691505b602082108114156200033057634e487b7160e01b600052602260045260246000fd5b50919050565b634e487b7160e01b600052604160045260246000fd5b60805160a05160c05161127f620003b4600039600081816102820152610de20152600081816103080152818161058501526107a80152600081816101320152818161060c015281816106df0152818161072001528181610d090152610e03015261127f6000f3fe60806040526004361061011b5760003560e01c80631209b1f614610120578063146ca531146101675780631593a8c71461017d578063160344e21461019457806334ecfbb8146101a9578063457dd268146101bf5780634f8c70cf146101d557806354fd4d501461020d5780635d9644c41461022f57806360c6d8ae14610245578063715018a61461025b5780637fd6f15c146102705780638da5cb5b146102a45780639e87a5cd146102b9578063a59f3e0c146102ce578063a76594bf146102e1578063b8f5d380146102f6578063be184b5d1461032a578063c19d93fb14610340578063d51bbbdd1461036e578063e5e078f214610384578063f2fde38b14610399578063f71d96cb146103b9578063f737d21d146103d9575b600080fd5b34801561012c57600080fd5b506101547f000000000000000000000000000000000000000000000000000000000000000081565b6040519081526020015b60405180910390f35b34801561017357600080fd5b5061015460035481565b34801561018957600080fd5b506101926103f9565b005b3480156101a057600080fd5b5061019261043b565b3480156101b557600080fd5b50610154600a5481565b3480156101cb57600080fd5b5061015460095481565b3480156101e157600080fd5b506005546101f5906001600160a01b031681565b6040516001600160a01b03909116815260200161015e565b34801561021957600080fd5b50610222610472565b60405161015e9190610f99565b34801561023b57600080fd5b5061015460065481565b34801561025157600080fd5b5061015460085481565b34801561026757600080fd5b50610192610500565b34801561027c57600080fd5b506101547f000000000000000000000000000000000000000000000000000000000000000081565b3480156102b057600080fd5b506101f5610539565b3480156102c557600080fd5b50610154610548565b6101926102dc366004610f08565b610557565b3480156102ed57600080fd5b50600454610154565b34801561030257600080fd5b506101547f000000000000000000000000000000000000000000000000000000000000000081565b34801561033657600080fd5b50610154600b5481565b34801561034c57600080fd5b5060005461036190600160a01b900460ff1681565b60405161015e9190610f71565b34801561037a57600080fd5b5061015460075481565b34801561039057600080fd5b506101546107d8565b3480156103a557600080fd5b506101926103b4366004610ec7565b6107e2565b3480156103c557600080fd5b506101f56103d4366004610f08565b61087f565b3480156103e557600080fd5b506101926103f4366004610f08565b6108a9565b33610402610539565b6001600160a01b0316146104315760405162461bcd60e51b815260040161042890610fee565b60405180910390fd5b610439610a52565b565b33610444610539565b6001600160a01b03161461046a5760405162461bcd60e51b815260040161042890610fee565b610439610b71565b600d805461047f90611172565b80601f01602080910402602001604051908101604052809291908181526020018280546104ab90611172565b80156104f85780601f106104cd576101008083540402835291602001916104f8565b820191906000526020600020905b8154815290600101906020018083116104db57829003601f168201915b505050505081565b33610509610539565b6001600160a01b03161461052f5760405162461bcd60e51b815260040161042890610fee565b6104396000610bf0565b6000546001600160a01b031690565b6000610552610c40565b905090565b60008054600160a01b900460ff16600281111561057657610576611208565b1461058057600080fd5b6004547f0000000000000000000000000000000000000000000000000000000000000000906105af9083611023565b11156105ba57600080fd5b6105c2610cf9565b6105cc908261113c565b34101561060a5760405162461bcd60e51b815260206004820152600c60248201526b125b9cdd59999a58da595b9d60a21b6044820152606401610428565b7f0000000000000000000000000000000000000000000000000000000000000000610636826001611023565b610640919061113c565b34111561067a5760405162461bcd60e51b815260206004820152600860248201526713dd995c9c185a5960c21b6044820152606401610428565b60005b818110156106d957600480546001810182556000919091527f8a35acfbc15ff81a39ae7d344fd709f28e8600b4aa8c65c6b64bfe7fe36bd19b0180546001600160a01b03191633179055806106d1816111ad565b91505061067d565b506107047f00000000000000000000000000000000000000000000000000000000000000008261113c565b600760008282546107159190611023565b9091555061074590507f00000000000000000000000000000000000000000000000000000000000000008261113c565b61074f903461115b565b600660008282546107609190611023565b9091555050600354604080519182526020820183905233917fafae5042b7c47abc99ba2ed5eb6f29027888c2765bbf9c479a5ef03683a489b1910160405180910390a26004547f000000000000000000000000000000000000000000000000000000000000000014156107d5576107d5610a52565b50565b6000610552610cf9565b336107eb610539565b6001600160a01b0316146108115760405162461bcd60e51b815260040161042890610fee565b6001600160a01b0381166108765760405162461bcd60e51b815260206004820152602660248201527f4f776e61626c653a206e6577206f776e657220697320746865207a65726f206160448201526564647265737360d01b6064820152608401610428565b6107d581610bf0565b6004818154811061088f57600080fd5b6000918252602090912001546001600160a01b0316905081565b6002600054600160a01b900460ff1660028111156108c9576108c9611208565b146108d357600080fd5b600260009054906101000a90046001600160a01b03166001600160a01b031663360131896040518163ffffffff1660e01b815260040160206040518083038186803b15801561092157600080fd5b505afa158015610935573d6000803e3d6000fd5b505050506040513d601f19601f820116820180604052508101906109599190610eeb565b6001600160a01b0316336001600160a01b03161461097657600080fd5b60045460009061098690836111c8565b90506004818154811061099b5761099b61121e565b6000918252602082200154600580546001600160a01b0319166001600160a01b039092169182179055600754604051919281156108fc029290818181858888f193505050501580156109f1573d6000803e3d6000fd5b506005546003546007546040516001600160a01b03909316927f6fc50effd94306e43c9e48ff5a94ffd13e754f4d7dceaf9803486ab81a5d6b7192610a3e92908252602082015260400190565b60405180910390a2610a4e610d2d565b5050565b6000805460ff60a01b1916600160a11b17905560025460408051633601318960e01b815290516001600160a01b0390921691633601318991600480820192602092909190829003018186803b158015610aaa57600080fd5b505afa158015610abe573d6000803e3d6000fd5b505050506040513d601f19601f82011682018060405250810190610ae29190610eeb565b6001600160a01b031663f8413b076040518163ffffffff1660e01b8152600401600060405180830381600087803b158015610b1c57600080fd5b505af1158015610b30573d6000803e3d6000fd5b505050507f8cc775ebbee0cce2baccb0a0121cb5794418a52d6edac0ea16c407d241109fd0600354604051610b6791815260200190565b60405180910390a1565b6001600054600160a01b900460ff166002811115610b9157610b91611208565b14610b9b57600080fd5b60038054906000610bab836111ad565b90915550506000805460ff60a01b191690556003546040519081527f0ab582f1afc29efbd503feb5b4a945175eee54010e1be75f88d3e0a865f1631f90602001610b67565b600080546001600160a01b038381166001600160a01b0319831681178455604051919092169283917f8be0079c531659141344cd1fd0a4f28419497f9722a3daafe3b4186f6b6457e09190a35050565b600080600160009054906101000a90046001600160a01b03166001600160a01b031663feaf968c6040518163ffffffff1660e01b815260040160a06040518083038186803b158015610c9157600080fd5b505afa158015610ca5573d6000803e3d6000fd5b505050506040513d601f19601f82011682018060405250810190610cc99190610f21565b505050915050600c546012610cde919061115b565b610ce990600a611092565b610cf3908261113c565b91505090565b6000610d03610dd9565b610552907f0000000000000000000000000000000000000000000000000000000000000000611023565b60065460096000828254610d419190611023565b9091555050600754600b8054600090610d5b908490611023565b909155505060065460088054600090610d75908490611023565b9091555050600754600a8054600090610d8f908490611023565b90915550506000600681905560078190556040805191825260208201908190529051610dbd91600491610e31565b506000805460ff60a01b1916600160a01b179055610439610b71565b60006064610e277f00000000000000000000000000000000000000000000000000000000000000007f000000000000000000000000000000000000000000000000000000000000000061113c565b610552919061103b565b828054828255906000526020600020908101928215610e86579160200282015b82811115610e8657825182546001600160a01b0319166001600160a01b03909116178255602090920191600190910190610e51565b50610e92929150610e96565b5090565b5b80821115610e925760008155600101610e97565b80516001600160501b0381168114610ec257600080fd5b919050565b600060208284031215610ed957600080fd5b8135610ee481611234565b9392505050565b600060208284031215610efd57600080fd5b8151610ee481611234565b600060208284031215610f1a57600080fd5b5035919050565b600080600080600060a08688031215610f3957600080fd5b610f4286610eab565b9450602086015193506040860151925060608601519150610f6560808701610eab565b90509295509295909350565b6020810160038310610f9357634e487b7160e01b600052602160045260246000fd5b91905290565b600060208083528351808285015260005b81811015610fc657858101830151858201604001528201610faa565b81811115610fd8576000604083870101525b50601f01601f1916929092016040019392505050565b6020808252818101527f4f776e61626c653a2063616c6c6572206973206e6f7420746865206f776e6572604082015260600190565b60008219821115611036576110366111dc565b500190565b60008261104a5761104a6111f2565b500490565b600181815b8085111561108a578160001904821115611070576110706111dc565b8085161561107d57918102915b93841c9390800290611054565b509250929050565b6000610ee483836000826110a857506001611136565b816110b557506000611136565b81600181146110cb57600281146110d5576110f1565b6001915050611136565b60ff8411156110e6576110e66111dc565b50506001821b611136565b5060208310610133831016604e8410600b8410161715611114575081810a611136565b61111e838361104f565b8060001904821115611132576111326111dc565b0290505b92915050565b6000816000190483118215151615611156576111566111dc565b500290565b60008282101561116d5761116d6111dc565b500390565b600181811c9082168061118657607f821691505b602082108114156111a757634e487b7160e01b600052602260045260246000fd5b50919050565b60006000198214156111c1576111c16111dc565b5060010190565b6000826111d7576111d76111f2565b500690565b634e487b7160e01b600052601160045260246000fd5b634e487b7160e01b600052601260045260246000fd5b634e487b7160e01b600052602160045260246000fd5b634e487b7160e01b600052603260045260246000fd5b6001600160a01b03811681146107d557600080fdfea2646970667358221220e82523b01f1982784f6881f17b9fb17f300cf8795d81c0b943cdc8bb641674d264736f6c63430008070033",
  "linkReferences": {},
  "deployedLinkReferences": {}
}