{
  "_format": "hh-sol-artifact-1",
  "contractName": "SesameGeneric",
  "sourceName": "contracts/SesameGeneric.sol",
  "abi": [
    {
      "inputs": [
        {
          "internalType": "address",
          "name": "_governance",
          "type": "address"
        },
        {
          "internalType": "address",
          "name": "_token",
          "type": "address"
        },
        {
          "internalType": "address",
          "name": "_priceFeed",
          "type": "address"
        },
        {
          "internalType": "uint256",
          "name": "_ticketPrice",
          "type": "uint256"
        },
        {
          "internalType": "uint256",
          "name": "_ticketPerRound",
          "type": "uint256"
        },
        {
          "internalType": "uint256",
          "name": "_feePercent",
          "type": "uint256"
        },
        {
          "internalType": "string",
          "name": "_version",
          "type": "string"
        }
      ],
      "stateMutability": "nonpayable",
      "type": "constructor"
    },
    {
      "anonymous": false,
      "inputs": [
        {
          "indexed": true,
          "internalType": "address",
          "name": "winner",
          "type": "address"
        },
        {
          "indexed": true,
          "internalType": "uint256",
          "name": "round",
          "type": "uint256"
        },
        {
          "indexed": false,
          "internalType": "uint256",
          "name": "price",
          "type": "uint256"
        }
      ],
      "name": "DeclareWinner",
      "type": "event"
    },
    {
      "anonymous": false,
      "inputs": [
        {
          "indexed": true,
          "internalType": "uint256",
          "name": "round",
          "type": "uint256"
        }
      ],
      "name": "EndedRound",
      "type": "event"
    },
    {
      "anonymous": false,
      "inputs": [
        {
          "indexed": true,
          "internalType": "address",
          "name": "by",
          "type": "address"
        },
        {
          "indexed": true,
          "internalType": "uint256",
          "name": "round",
          "type": "uint256"
        },
        {
          "indexed": false,
          "internalType": "uint256",
          "name": "tickets",
          "type": "uint256"
        }
      ],
      "name": "EnterTicket",
      "type": "event"
    },
    {
      "anonymous": false,
      "inputs": [
        {
          "indexed": true,
          "internalType": "uint256",
          "name": "round",
          "type": "uint256"
        }
      ],
      "name": "StartedRound",
      "type": "event"
    },
    {
      "inputs": [],
      "name": "activate",
      "outputs": [],
      "stateMutability": "nonpayable",
      "type": "function"
    },
    {
      "inputs": [],
      "name": "currentFees",
      "outputs": [
        {
          "internalType": "uint256",
          "name": "",
          "type": "uint256"
        }
      ],
      "stateMutability": "view",
      "type": "function"
    },
    {
      "inputs": [],
      "name": "currentFund",
      "outputs": [
        {
          "internalType": "uint256",
          "name": "",
          "type": "uint256"
        }
      ],
      "stateMutability": "view",
      "type": "function"
    },
    {
      "inputs": [],
      "name": "deactivate",
      "outputs": [],
      "stateMutability": "nonpayable",
      "type": "function"
    },
    {
      "inputs": [
        {
          "internalType": "uint256",
          "name": "ticket",
          "type": "uint256"
        }
      ],
      "name": "enter",
      "outputs": [],
      "stateMutability": "nonpayable",
      "type": "function"
    },
    {
      "inputs": [],
      "name": "feePerTicket",
      "outputs": [
        {
          "internalType": "uint256",
          "name": "",
          "type": "uint256"
        }
      ],
      "stateMutability": "view",
      "type": "function"
    },
    {
      "inputs": [],
      "name": "feePercent",
      "outputs": [
        {
          "internalType": "uint256",
          "name": "",
          "type": "uint256"
        }
      ],
      "stateMutability": "view",
      "type": "function"
    },
    {
      "inputs": [
        {
          "internalType": "uint256",
          "name": "amount",
          "type": "uint256"
        }
      ],
      "name": "getCredit",
      "outputs": [
        {
          "internalType": "uint256",
          "name": "",
          "type": "uint256"
        }
      ],
      "stateMutability": "view",
      "type": "function"
    },
    {
      "inputs": [],
      "name": "getPriceFeed",
      "outputs": [
        {
          "internalType": "uint256",
          "name": "",
          "type": "uint256"
        }
      ],
      "stateMutability": "view",
      "type": "function"
    },
    {
      "inputs": [],
      "name": "getTicketCount",
      "outputs": [
        {
          "internalType": "uint256",
          "name": "count",
          "type": "uint256"
        }
      ],
      "stateMutability": "view",
      "type": "function"
    },
    {
      "inputs": [
        {
          "internalType": "uint256",
          "name": "_round",
          "type": "uint256"
        },
        {
          "internalType": "address",
          "name": "_player",
          "type": "address"
        }
      ],
      "name": "getUserTicketCount",
      "outputs": [
        {
          "internalType": "uint256",
          "name": "count",
          "type": "uint256"
        }
      ],
      "stateMutability": "view",
      "type": "function"
    },
    {
      "inputs": [],
      "name": "governance",
      "outputs": [
        {
          "internalType": "contract IGovernance",
          "name": "",
          "type": "address"
        }
      ],
      "stateMutability": "view",
      "type": "function"
    },
    {
      "inputs": [],
      "name": "netTicketPrice",
      "outputs": [
        {
          "internalType": "uint256",
          "name": "",
          "type": "uint256"
        }
      ],
      "stateMutability": "view",
      "type": "function"
    },
    {
      "inputs": [
        {
          "internalType": "uint256[]",
          "name": "_rand",
          "type": "uint256[]"
        }
      ],
      "name": "pickWinner",
      "outputs": [],
      "stateMutability": "nonpayable",
      "type": "function"
    },
    {
      "inputs": [],
      "name": "priceFeed",
      "outputs": [
        {
          "internalType": "contract AggregatorV3Interface",
          "name": "",
          "type": "address"
        }
      ],
      "stateMutability": "view",
      "type": "function"
    },
    {
      "inputs": [],
      "name": "recentWinner",
      "outputs": [
        {
          "internalType": "address",
          "name": "",
          "type": "address"
        }
      ],
      "stateMutability": "view",
      "type": "function"
    },
    {
      "inputs": [],
      "name": "round",
      "outputs": [
        {
          "internalType": "uint256",
          "name": "",
          "type": "uint256"
        }
      ],
      "stateMutability": "view",
      "type": "function"
    },
    {
      "inputs": [],
      "name": "state",
      "outputs": [
        {
          "internalType": "enum SesameGeneric.STATE",
          "name": "",
          "type": "uint8"
        }
      ],
      "stateMutability": "view",
      "type": "function"
    },
    {
      "inputs": [
        {
          "internalType": "uint256",
          "name": "",
          "type": "uint256"
        },
        {
          "internalType": "address",
          "name": "",
          "type": "address"
        }
      ],
      "name": "ticketMap",
      "outputs": [
        {
          "internalType": "uint256",
          "name": "",
          "type": "uint256"
        }
      ],
      "stateMutability": "view",
      "type": "function"
    },
    {
      "inputs": [],
      "name": "ticketPerRound",
      "outputs": [
        {
          "internalType": "uint256",
          "name": "",
          "type": "uint256"
        }
      ],
      "stateMutability": "view",
      "type": "function"
    },
    {
      "inputs": [],
      "name": "ticketPrice",
      "outputs": [
        {
          "internalType": "uint256",
          "name": "",
          "type": "uint256"
        }
      ],
      "stateMutability": "view",
      "type": "function"
    },
    {
      "inputs": [
        {
          "internalType": "uint256",
          "name": "",
          "type": "uint256"
        }
      ],
      "name": "tickets",
      "outputs": [
        {
          "internalType": "address",
          "name": "",
          "type": "address"
        }
      ],
      "stateMutability": "view",
      "type": "function"
    },
    {
      "inputs": [],
      "name": "token",
      "outputs": [
        {
          "internalType": "contract IERC20",
          "name": "",
          "type": "address"
        }
      ],
      "stateMutability": "view",
      "type": "function"
    },
    {
      "inputs": [],
      "name": "totalFeesCollected",
      "outputs": [
        {
          "internalType": "uint256",
          "name": "",
          "type": "uint256"
        }
      ],
      "stateMutability": "view",
      "type": "function"
    },
    {
      "inputs": [],
      "name": "totalFeesEmitted",
      "outputs": [
        {
          "internalType": "uint256",
          "name": "",
          "type": "uint256"
        }
      ],
      "stateMutability": "view",
      "type": "function"
    },
    {
      "inputs": [],
      "name": "totalFundCollected",
      "outputs": [
        {
          "internalType": "uint256",
          "name": "",
          "type": "uint256"
        }
      ],
      "stateMutability": "view",
      "type": "function"
    },
    {
      "inputs": [],
      "name": "totalFundEmitted",
      "outputs": [
        {
          "internalType": "uint256",
          "name": "",
          "type": "uint256"
        }
      ],
      "stateMutability": "view",
      "type": "function"
    },
    {
      "inputs": [],
      "name": "version",
      "outputs": [
        {
          "internalType": "string",
          "name": "",
          "type": "string"
        }
      ],
      "stateMutability": "view",
      "type": "function"
    },
    {
      "inputs": [
        {
          "internalType": "uint256",
          "name": "",
          "type": "uint256"
        }
      ],
      "name": "winner",
      "outputs": [
        {
          "internalType": "address",
          "name": "",
          "type": "address"
        }
      ],
      "stateMutability": "view",
      "type": "function"
    },
    {
      "inputs": [
        {
          "internalType": "uint256",
          "name": "_round",
          "type": "uint256"
        }
      ],
      "name": "winnerOf",
      "outputs": [
        {
          "internalType": "address",
          "name": "",
          "type": "address"
        }
      ],
      "stateMutability": "view",
      "type": "function"
    }
  ],
  "bytecode": "0x6101406040523480156200001257600080fd5b5060405162001cb738038062001cb7833981016040819052620000359162000158565b6000805460ff191690556001600160601b0319606088811b821660805287811b821660c05286901b1660a05260e084905261010083905261012082905280516200008790600b90602084019062000095565b5050505050505050620002e0565b828054620000a3906200028d565b90600052602060002090601f016020900481019282620000c7576000855562000112565b82601f10620000e257805160ff191683800117855562000112565b8280016001018555821562000112579182015b8281111562000112578251825591602001919060010190620000f5565b506200012092915062000124565b5090565b5b8082111562000120576000815560010162000125565b80516001600160a01b03811681146200015357600080fd5b919050565b600080600080600080600060e0888a0312156200017457600080fd5b6200017f886200013b565b9650602062000190818a016200013b565b9650620001a060408a016200013b565b60608a015160808b015160a08c015160c08d0151939950919750955093506001600160401b0380821115620001d457600080fd5b818b0191508b601f830112620001e957600080fd5b815181811115620001fe57620001fe620002ca565b604051601f8201601f19908116603f01168101908382118183101715620002295762000229620002ca565b816040528281528e868487010111156200024257600080fd5b600093505b8284101562000266578484018601518185018701529285019262000247565b82841115620002785760008684830101525b80965050505050505092959891949750929550565b600181811c90821680620002a257607f821691505b60208210811415620002c457634e487b7160e01b600052602260045260246000fd5b50919050565b634e487b7160e01b600052604160045260246000fd5b60805160601c60a05160601c60c05160601c60e05161010051610120516118eb620003cc600039600081816102f901526109bb01526000818161039a0152818161073b015281816107f301528181610ae80152610e380152600081816101bb0152818161071a015281816109dc01528181610bcb01528181610c350152610ea7015260008181610408015281816107bc015281816108e601528181610b3e0152610fc10152600081816102d20152610a1401526000818161029101528181610435015281816104ed015281816105ed0152818161084d01528181610cd0015261113f01526118eb6000f3fe608060405234801561001057600080fd5b50600436106101695760003560e01c8062eb7c5e1461016e5780630f15f4c0146101ac5780631209b1f6146101b6578063146ca531146101dd5780631cbeae5e146101e657806321c63a471461022757806334ecfbb81461022f578063457dd268146102385780634f8c70cf1461024157806350b447121461024957806351b42b001461025c57806354fd4d50146102645780635827eb37146102795780635aa6e6751461028c5780635d9644c4146102b357806360c6d8ae146102bc57806369cfd9c1146102c5578063741bef1a146102cd5780637fd6f15c146102f457806383ab96f01461031b5780638cb5d700146103515780639e87a5cd1461037a578063a59f3e0c14610382578063b8f5d38014610395578063be184b5d146103bc578063c19d93fb146103c5578063d51bbbdd146103df578063da304e4d146103e8578063e5e078f2146103fb578063fc0c546a14610403575b600080fd5b61019961017c36600461161a565b600360209081526000928352604080842090915290825290205481565b6040519081526020015b60405180910390f35b6101b461042a565b005b6101997f000000000000000000000000000000000000000000000000000000000000000081565b61019960015481565b61020f6101f4366004611601565b6004602052600090815260409020546001600160a01b031681565b6040516001600160a01b0390911681526020016101a3565b600254610199565b61019960095481565b61019960085481565b61020f610485565b61020f610257366004611601565b6104b8565b6101b46104e2565b61026c61053a565b6040516101a391906116de565b6101b461028736600461151b565b6105c8565b61020f7f000000000000000000000000000000000000000000000000000000000000000081565b61019960055481565b61019960075481565b6101996109b2565b61020f7f000000000000000000000000000000000000000000000000000000000000000081565b6101997f000000000000000000000000000000000000000000000000000000000000000081565b61019961032936600461161a565b60009182526003602090815260408084206001600160a01b0393909316845291905290205490565b61020f61035f366004611601565b6000908152600460205260409020546001600160a01b031690565b610199610a0f565b6101b4610390366004611601565b610ac0565b6101997f000000000000000000000000000000000000000000000000000000000000000081565b610199600a5481565b6000546103d29060ff1681565b6040516101a391906116b6565b61019960065481565b6101996103f6366004611601565b610e6a565b610199610e97565b61020f7f000000000000000000000000000000000000000000000000000000000000000081565b336001600160a01b037f0000000000000000000000000000000000000000000000000000000000000000161461047b5760405162461bcd60e51b815260040161047290611711565b60405180910390fd5b610483610ecb565b565b600060046000600180546104999190611782565b81526020810191909152604001600020546001600160a01b0316919050565b600281815481106104c857600080fd5b6000918252602090912001546001600160a01b0316905081565b336001600160a01b037f0000000000000000000000000000000000000000000000000000000000000000161461052a5760405162461bcd60e51b815260040161047290611711565b610532610f3c565b610483611064565b600b8054610547906117c5565b80601f0160208091040260200160405190810160405280929190818152602001828054610573906117c5565b80156105c05780601f10610595576101008083540402835291602001916105c0565b820191906000526020600020905b8154815290600101906020018083116105a357829003601f168201915b505050505081565b600260005460ff1660028111156105e1576105e161185b565b146105eb57600080fd5b7f00000000000000000000000000000000000000000000000000000000000000006001600160a01b0316633bedaca26040518163ffffffff1660e01b815260040160206040518083038186803b15801561064457600080fd5b505afa158015610658573d6000803e3d6000fd5b505050506040513d601f19601f8201168201806040525081019061067c91906114fe565b6001600160a01b0316336001600160a01b03161461069957600080fd5b6000600280549050826000815181106106b4576106b4611871565b60200260200101516106c6919061181b565b9050600281815481106106db576106db611871565b600091825260208083209091015460015483526004909152604090912080546001600160a01b0319166001600160a01b0390921691909117905561075f7f00000000000000000000000000000000000000000000000000000000000000007f0000000000000000000000000000000000000000000000000000000000000000611763565b6006541461076c57600080fd5b60068054600091829055600a805491928392610789908490611737565b925050819055506107e5600283815481106107a6576107a6611871565b6000918252602090912001546001600160a01b037f0000000000000000000000000000000000000000000000000000000000000000811691168361108e565b6107ed6109b2565b610817907f0000000000000000000000000000000000000000000000000000000000000000611763565b6005541461082457600080fd5b600580546000918290556008805491928392610841908490611737565b9250508190555061090d7f00000000000000000000000000000000000000000000000000000000000000006001600160a01b031663c415b95c6040518163ffffffff1660e01b815260040160206040518083038186803b1580156108a457600080fd5b505afa1580156108b8573d6000803e3d6000fd5b505050506040513d601f19601f820116820180604052508101906108dc91906114fe565b6001600160a01b037f000000000000000000000000000000000000000000000000000000000000000016908361108e565b6001546002848154811061092357610923611871565b600091825260209182902001546006546040519081526001600160a01b03909116917f6fc50effd94306e43c9e48ff5a94ffd13e754f4d7dceaf9803486ab81a5d6b71910160405180910390a36001546040517f8cc775ebbee0cce2baccb0a0121cb5794418a52d6edac0ea16c407d241109fd090600090a26109a4611064565b6109ac610ecb565b50505050565b60006064610a007f00000000000000000000000000000000000000000000000000000000000000007f0000000000000000000000000000000000000000000000000000000000000000611763565b610a0a919061174f565b905090565b6000807f00000000000000000000000000000000000000000000000000000000000000006001600160a01b031663feaf968c6040518163ffffffff1660e01b815260040160a06040518083038186803b158015610a6b57600080fd5b505afa158015610a7f573d6000803e3d6000fd5b505050506040513d601f19601f82011682018060405250810190610aa3919061164a565b505050915050806402540be400610aba9190611763565b91505090565b600160005460ff166002811115610ad957610ad961185b565b14610ae357600080fd5b6002547f000000000000000000000000000000000000000000000000000000000000000090610b129083611737565b1115610b1d57600080fd5b610b663330610b2a610e97565b610b349085611763565b6001600160a01b037f0000000000000000000000000000000000000000000000000000000000000000169291906110f1565b60005b81811015610bc557600280546001810182556000919091527f405787fa12a823e0f2b7631cc41b3ba8828b3321ca811111fa75cd3aa3bb5ace0180546001600160a01b0319163317905580610bbd81611800565b915050610b69565b50610bf07f000000000000000000000000000000000000000000000000000000000000000082611763565b60066000828254610c019190611737565b90915550610c0f90506109b2565b610c199082611763565b60056000828254610c2a9190611737565b90915550610c5a90507f000000000000000000000000000000000000000000000000000000000000000082611763565b60096000828254610c6b9190611737565b90915550610c7990506109b2565b610c839082611763565b60076000828254610c949190611737565b9091555050600154600090815260036020908152604080832033845290915281208054839290610cc5908490611737565b9250508190555060007f00000000000000000000000000000000000000000000000000000000000000006001600160a01b0316634fb3ccc56040518163ffffffff1660e01b815260040160206040518083038186803b158015610d2757600080fd5b505afa158015610d3b573d6000803e3d6000fd5b505050506040513d601f19601f82011682018060405250810190610d5f91906114fe565b90506000610d78610d6e610e97565b6103f69085611763565b6001546040516375dbb8c960e01b8152336004820152602481018390526044810191909152606481018590529091506001600160a01b038316906375dbb8c990608401600060405180830381600087803b158015610dd557600080fd5b505af1158015610de9573d6000803e3d6000fd5b50505050600154336001600160a01b03167fafae5042b7c47abc99ba2ed5eb6f29027888c2765bbf9c479a5ef03683a489b185604051610e2b91815260200190565b60405180910390a36002547f00000000000000000000000000000000000000000000000000000000000000001415610e6557610e65611129565b505050565b6000670de0b6b3a7640000610e7d610a0f565b610e879084611763565b610e91919061174f565b92915050565b6000610ea16109b2565b610a0a907f0000000000000000000000000000000000000000000000000000000000000000611737565b6000805460ff166002811115610ee357610ee361185b565b14610eed57600080fd5b60018054906000610efd83611800565b90915550506000805460ff1916600190811782555460405190917f0ab582f1afc29efbd503feb5b4a945175eee54010e1be75f88d3e0a865f1631f91a2565b60005b60025481101561102457600060028281548110610f5e57610f5e611871565b60009182526020822001546001600160a01b03169150610f7c610e97565b60015460009081526003602090815260408083206001600160a01b0387168452909152902054610fac9190611763565b9050801561100f57610fe86001600160a01b037f000000000000000000000000000000000000000000000000000000000000000016838361108e565b60015460009081526003602090815260408083206001600160a01b03861684529091528120555b5050808061101c90611800565b915050610f3f565b50600554600760008282546110399190611782565b909155505060065460098054600090611053908490611782565b909155505060006005819055600655565b604080516000815260208101918290525161108191600291611468565b506000805460ff19169055565b6040516001600160a01b038316602482015260448101829052610e6590849063a9059cbb60e01b906064015b60408051601f198184030181529190526020810180516001600160e01b03166001600160e01b03199093169290921790915261121c565b6040516001600160a01b03808516602483015283166044820152606481018290526109ac9085906323b872dd60e01b906084016110ba565b600080546002919060ff191660018302179055507f00000000000000000000000000000000000000000000000000000000000000006001600160a01b0316633bedaca26040518163ffffffff1660e01b815260040160206040518083038186803b15801561119657600080fd5b505afa1580156111aa573d6000803e3d6000fd5b505050506040513d601f19601f820116820180604052508101906111ce91906114fe565b6001600160a01b0316638678a7b26040518163ffffffff1660e01b8152600401600060405180830381600087803b15801561120857600080fd5b505af11580156109ac573d6000803e3d6000fd5b6000611271826040518060400160405280602081526020017f5361666545524332303a206c6f772d6c6576656c2063616c6c206661696c6564815250856001600160a01b03166112ee9092919063ffffffff16565b805190915015610e65578080602001905181019061128f91906115df565b610e655760405162461bcd60e51b815260206004820152602a60248201527f5361666545524332303a204552433230206f7065726174696f6e20646964206e6044820152691bdd081cdd58d8d9595960b21b6064820152608401610472565b60606112fd8484600085611307565b90505b9392505050565b6060824710156113685760405162461bcd60e51b815260206004820152602660248201527f416464726573733a20696e73756666696369656e742062616c616e636520666f6044820152651c8818d85b1b60d21b6064820152608401610472565b843b6113b65760405162461bcd60e51b815260206004820152601d60248201527f416464726573733a2063616c6c20746f206e6f6e2d636f6e74726163740000006044820152606401610472565b600080866001600160a01b031685876040516113d2919061169a565b60006040518083038185875af1925050503d806000811461140f576040519150601f19603f3d011682016040523d82523d6000602084013e611414565b606091505b509150915061142482828661142f565b979650505050505050565b6060831561143e575081611300565b82511561144e5782518084602001fd5b8160405162461bcd60e51b815260040161047291906116de565b8280548282559060005260206000209081019282156114bd579160200282015b828111156114bd57825182546001600160a01b0319166001600160a01b03909116178255602090920191600190910190611488565b506114c99291506114cd565b5090565b5b808211156114c957600081556001016114ce565b80516001600160501b03811681146114f957600080fd5b919050565b60006020828403121561151057600080fd5b81516113008161189d565b6000602080838503121561152e57600080fd5b82356001600160401b038082111561154557600080fd5b818501915085601f83011261155957600080fd5b81358181111561156b5761156b611887565b8060051b604051601f19603f8301168101818110858211171561159057611590611887565b604052828152858101935084860182860187018a10156115af57600080fd5b600095505b838610156115d25780358552600195909501949386019386016115b4565b5098975050505050505050565b6000602082840312156115f157600080fd5b8151801515811461130057600080fd5b60006020828403121561161357600080fd5b5035919050565b6000806040838503121561162d57600080fd5b82359150602083013561163f8161189d565b809150509250929050565b600080600080600060a0868803121561166257600080fd5b61166b866114e2565b945060208601519350604086015192506060860151915061168e608087016114e2565b90509295509295909350565b600082516116ac818460208701611799565b9190910192915050565b60208101600383106116d857634e487b7160e01b600052602160045260246000fd5b91905290565b60208152600082518060208401526116fd816040850160208701611799565b601f01601f19169190910160400192915050565b6020808252600c908201526b155b985d5d1a1bdc9a5e995960a21b604082015260600190565b6000821982111561174a5761174a61182f565b500190565b60008261175e5761175e611845565b500490565b600081600019048311821515161561177d5761177d61182f565b500290565b6000828210156117945761179461182f565b500390565b60005b838110156117b457818101518382015260200161179c565b838111156109ac5750506000910152565b600181811c908216806117d957607f821691505b602082108114156117fa57634e487b7160e01b600052602260045260246000fd5b50919050565b60006000198214156118145761181461182f565b5060010190565b60008261182a5761182a611845565b500690565b634e487b7160e01b600052601160045260246000fd5b634e487b7160e01b600052601260045260246000fd5b634e487b7160e01b600052602160045260246000fd5b634e487b7160e01b600052603260045260246000fd5b634e487b7160e01b600052604160045260246000fd5b6001600160a01b03811681146118b257600080fd5b5056fea26469706673582212203ca7499958ac1fbbacac4a1e7bcc99c34280ca76439caa30dfb8c6a51392fdbf64736f6c63430008070033",
  "linkReferences": {},
  "deployedLinkReferences": {}
}