{
  "_format": "hh-sol-artifact-1",
  "contractName": "SesameGenericAsync",
  "sourceName": "contracts/SesameGenericAsync.sol",
  "abi": [
    {
      "inputs": [
        {
          "internalType": "address",
          "name": "_governance",
          "type": "address"
        },
        {
          "internalType": "address",
          "name": "_token",
          "type": "address"
        },
        {
          "internalType": "address",
          "name": "_priceFeed",
          "type": "address"
        },
        {
          "internalType": "uint256",
          "name": "_ticketPrice",
          "type": "uint256"
        },
        {
          "internalType": "uint256",
          "name": "_ticketPerRound",
          "type": "uint256"
        },
        {
          "internalType": "uint256",
          "name": "_feePercent",
          "type": "uint256"
        },
        {
          "internalType": "string",
          "name": "_version",
          "type": "string"
        }
      ],
      "stateMutability": "nonpayable",
      "type": "constructor"
    },
    {
      "anonymous": false,
      "inputs": [
        {
          "indexed": true,
          "internalType": "address",
          "name": "player",
          "type": "address"
        },
        {
          "indexed": false,
          "internalType": "uint256",
          "name": "round",
          "type": "uint256"
        },
        {
          "indexed": false,
          "internalType": "uint256",
          "name": "prize",
          "type": "uint256"
        }
      ],
      "name": "DeclareWinner",
      "type": "event"
    },
    {
      "anonymous": false,
      "inputs": [
        {
          "indexed": false,
          "internalType": "uint256",
          "name": "round",
          "type": "uint256"
        }
      ],
      "name": "EndedRound",
      "type": "event"
    },
    {
      "anonymous": false,
      "inputs": [
        {
          "indexed": true,
          "internalType": "address",
          "name": "player",
          "type": "address"
        },
        {
          "indexed": false,
          "internalType": "uint256",
          "name": "round",
          "type": "uint256"
        },
        {
          "indexed": false,
          "internalType": "uint256",
          "name": "tickets",
          "type": "uint256"
        }
      ],
      "name": "EnterTicket",
      "type": "event"
    },
    {
      "anonymous": false,
      "inputs": [
        {
          "indexed": true,
          "internalType": "address",
          "name": "player",
          "type": "address"
        },
        {
          "indexed": false,
          "internalType": "uint256",
          "name": "round",
          "type": "uint256"
        },
        {
          "indexed": false,
          "internalType": "uint256",
          "name": "tickets",
          "type": "uint256"
        }
      ],
      "name": "Refund",
      "type": "event"
    },
    {
      "anonymous": false,
      "inputs": [
        {
          "indexed": false,
          "internalType": "uint256",
          "name": "round",
          "type": "uint256"
        }
      ],
      "name": "StartedRound",
      "type": "event"
    },
    {
      "inputs": [],
      "name": "activate",
      "outputs": [],
      "stateMutability": "nonpayable",
      "type": "function"
    },
    {
      "inputs": [],
      "name": "currentFees",
      "outputs": [
        {
          "internalType": "uint256",
          "name": "",
          "type": "uint256"
        }
      ],
      "stateMutability": "view",
      "type": "function"
    },
    {
      "inputs": [],
      "name": "currentFund",
      "outputs": [
        {
          "internalType": "uint256",
          "name": "",
          "type": "uint256"
        }
      ],
      "stateMutability": "view",
      "type": "function"
    },
    {
      "inputs": [],
      "name": "deactivate",
      "outputs": [],
      "stateMutability": "nonpayable",
      "type": "function"
    },
    {
      "inputs": [
        {
          "internalType": "uint256",
          "name": "ticket",
          "type": "uint256"
        }
      ],
      "name": "enter",
      "outputs": [],
      "stateMutability": "nonpayable",
      "type": "function"
    },
    {
      "inputs": [],
      "name": "feePerTicket",
      "outputs": [
        {
          "internalType": "uint256",
          "name": "",
          "type": "uint256"
        }
      ],
      "stateMutability": "view",
      "type": "function"
    },
    {
      "inputs": [],
      "name": "feePercent",
      "outputs": [
        {
          "internalType": "uint256",
          "name": "",
          "type": "uint256"
        }
      ],
      "stateMutability": "view",
      "type": "function"
    },
    {
      "inputs": [
        {
          "internalType": "uint256",
          "name": "amount",
          "type": "uint256"
        }
      ],
      "name": "getCredit",
      "outputs": [
        {
          "internalType": "uint256",
          "name": "",
          "type": "uint256"
        }
      ],
      "stateMutability": "view",
      "type": "function"
    },
    {
      "inputs": [],
      "name": "getPriceFeed",
      "outputs": [
        {
          "internalType": "uint256",
          "name": "",
          "type": "uint256"
        }
      ],
      "stateMutability": "view",
      "type": "function"
    },
    {
      "inputs": [],
      "name": "getTicketCount",
      "outputs": [
        {
          "internalType": "uint256",
          "name": "count",
          "type": "uint256"
        }
      ],
      "stateMutability": "view",
      "type": "function"
    },
    {
      "inputs": [
        {
          "internalType": "uint256",
          "name": "_round",
          "type": "uint256"
        },
        {
          "internalType": "address",
          "name": "_player",
          "type": "address"
        }
      ],
      "name": "getUserTicketCount",
      "outputs": [
        {
          "internalType": "uint256",
          "name": "count",
          "type": "uint256"
        }
      ],
      "stateMutability": "view",
      "type": "function"
    },
    {
      "inputs": [],
      "name": "governance",
      "outputs": [
        {
          "internalType": "contract IGovernance",
          "name": "",
          "type": "address"
        }
      ],
      "stateMutability": "view",
      "type": "function"
    },
    {
      "inputs": [],
      "name": "lastRound",
      "outputs": [
        {
          "internalType": "uint256",
          "name": "",
          "type": "uint256"
        }
      ],
      "stateMutability": "view",
      "type": "function"
    },
    {
      "inputs": [],
      "name": "lastWinner",
      "outputs": [
        {
          "internalType": "address",
          "name": "",
          "type": "address"
        }
      ],
      "stateMutability": "view",
      "type": "function"
    },
    {
      "inputs": [],
      "name": "netTicketPrice",
      "outputs": [
        {
          "internalType": "uint256",
          "name": "",
          "type": "uint256"
        }
      ],
      "stateMutability": "view",
      "type": "function"
    },
    {
      "inputs": [
        {
          "internalType": "uint256[]",
          "name": "_rand",
          "type": "uint256[]"
        },
        {
          "internalType": "uint256",
          "name": "_round",
          "type": "uint256"
        }
      ],
      "name": "pickWinner",
      "outputs": [],
      "stateMutability": "nonpayable",
      "type": "function"
    },
    {
      "inputs": [],
      "name": "priceFeed",
      "outputs": [
        {
          "internalType": "contract AggregatorV3Interface",
          "name": "",
          "type": "address"
        }
      ],
      "stateMutability": "view",
      "type": "function"
    },
    {
      "inputs": [],
      "name": "round",
      "outputs": [
        {
          "internalType": "uint256",
          "name": "",
          "type": "uint256"
        }
      ],
      "stateMutability": "view",
      "type": "function"
    },
    {
      "inputs": [
        {
          "internalType": "uint256",
          "name": "",
          "type": "uint256"
        }
      ],
      "name": "state",
      "outputs": [
        {
          "internalType": "enum SesameGenericAsync.STATE",
          "name": "",
          "type": "uint8"
        }
      ],
      "stateMutability": "view",
      "type": "function"
    },
    {
      "inputs": [
        {
          "internalType": "uint256",
          "name": "",
          "type": "uint256"
        },
        {
          "internalType": "address",
          "name": "",
          "type": "address"
        }
      ],
      "name": "ticketMap",
      "outputs": [
        {
          "internalType": "uint256",
          "name": "",
          "type": "uint256"
        }
      ],
      "stateMutability": "view",
      "type": "function"
    },
    {
      "inputs": [],
      "name": "ticketPerRound",
      "outputs": [
        {
          "internalType": "uint256",
          "name": "",
          "type": "uint256"
        }
      ],
      "stateMutability": "view",
      "type": "function"
    },
    {
      "inputs": [],
      "name": "ticketPrice",
      "outputs": [
        {
          "internalType": "uint256",
          "name": "",
          "type": "uint256"
        }
      ],
      "stateMutability": "view",
      "type": "function"
    },
    {
      "inputs": [
        {
          "internalType": "uint256",
          "name": "",
          "type": "uint256"
        },
        {
          "internalType": "uint256",
          "name": "",
          "type": "uint256"
        }
      ],
      "name": "tickets",
      "outputs": [
        {
          "internalType": "address",
          "name": "",
          "type": "address"
        }
      ],
      "stateMutability": "view",
      "type": "function"
    },
    {
      "inputs": [],
      "name": "token",
      "outputs": [
        {
          "internalType": "contract IERC20",
          "name": "",
          "type": "address"
        }
      ],
      "stateMutability": "view",
      "type": "function"
    },
    {
      "inputs": [],
      "name": "totalFeesCollected",
      "outputs": [
        {
          "internalType": "uint256",
          "name": "",
          "type": "uint256"
        }
      ],
      "stateMutability": "view",
      "type": "function"
    },
    {
      "inputs": [],
      "name": "totalFeesEmitted",
      "outputs": [
        {
          "internalType": "uint256",
          "name": "",
          "type": "uint256"
        }
      ],
      "stateMutability": "view",
      "type": "function"
    },
    {
      "inputs": [],
      "name": "totalFundCollected",
      "outputs": [
        {
          "internalType": "uint256",
          "name": "",
          "type": "uint256"
        }
      ],
      "stateMutability": "view",
      "type": "function"
    },
    {
      "inputs": [],
      "name": "totalFundEmitted",
      "outputs": [
        {
          "internalType": "uint256",
          "name": "",
          "type": "uint256"
        }
      ],
      "stateMutability": "view",
      "type": "function"
    },
    {
      "inputs": [],
      "name": "version",
      "outputs": [
        {
          "internalType": "string",
          "name": "",
          "type": "string"
        }
      ],
      "stateMutability": "view",
      "type": "function"
    },
    {
      "inputs": [
        {
          "internalType": "uint256",
          "name": "",
          "type": "uint256"
        }
      ],
      "name": "winner",
      "outputs": [
        {
          "internalType": "address",
          "name": "",
          "type": "address"
        }
      ],
      "stateMutability": "view",
      "type": "function"
    }
  ],
  "bytecode": "0x6101406040523480156200001257600080fd5b5060405162001ee038038062001ee083398101604081905262000035916200014e565b6001600160601b0319606088811b821660805287811b821660c05286901b1660a05260e084905261010083905261012082905280516200007d90600d9060208401906200008b565b5050505050505050620002d6565b828054620000999062000283565b90600052602060002090601f016020900481019282620000bd576000855562000108565b82601f10620000d857805160ff191683800117855562000108565b8280016001018555821562000108579182015b8281111562000108578251825591602001919060010190620000eb565b50620001169291506200011a565b5090565b5b808211156200011657600081556001016200011b565b80516001600160a01b03811681146200014957600080fd5b919050565b600080600080600080600060e0888a0312156200016a57600080fd5b620001758862000131565b9650602062000186818a0162000131565b96506200019660408a0162000131565b60608a015160808b015160a08c015160c08d0151939950919750955093506001600160401b0380821115620001ca57600080fd5b818b0191508b601f830112620001df57600080fd5b815181811115620001f457620001f4620002c0565b604051601f8201601f19908116603f011681019083821181831017156200021f576200021f620002c0565b816040528281528e868487010111156200023857600080fd5b600093505b828410156200025c57848401860151818501870152928501926200023d565b828411156200026e5760008684830101525b80965050505050505092959891949750929550565b600181811c908216806200029857607f821691505b60208210811415620002ba57634e487b7160e01b600052602260045260246000fd5b50919050565b634e487b7160e01b600052604160045260246000fd5b60805160601c60a05160601c60c05160601c60e0516101005161012051611b02620003de600039600081816103120152610b290152600081816103a60152818161061d015281816106a701528181610cab01528181610cef01526110430152600081816101bb015281816105fc01528181610b4a01528181610dcf01528181610e3901526110ba0152600081816103fa015281816106700152818161078c0152818161094c0152818161097c01528181610d54015261124f0152600081816102eb0152610b820152600081816102aa0152818161043a015281816104bb015281816106f301528181610862015281816108b901528181610ed401526113670152611b026000f3fe608060405234801561001057600080fd5b50600436106101695760003560e01c8062eb7c5e1461016e5780630f15f4c0146101ac5780631209b1f6146101b6578063146ca531146101dd5780631cbeae5e146101e657806321c63a471461021c57806334ecfbb8146102335780633e4f49e61461023c578063457dd2681461026c5780635071cf411461027557806351b42b001461028857806354fd4d50146102905780635aa6e675146102a55780635d9644c4146102cc57806360c6d8ae146102d557806369cfd9c1146102de578063741bef1a146102e65780637fd6f15c1461030d57806382bc07e61461033457806383ab96f01461033d5780639e87a5cd14610373578063a374e43f1461037b578063a59f3e0c1461038e578063b8f5d380146103a1578063be184b5d146103c8578063d51bbbdd146103d1578063da304e4d146103da578063e5e078f2146103ed578063fc0c546a146103f5578063fe1881841461041c575b600080fd5b61019961017c3660046117e2565b600560209081526000928352604080842090915290825290205481565b6040519081526020015b60405180910390f35b6101b461042f565b005b6101997f000000000000000000000000000000000000000000000000000000000000000081565b61019960015481565b61020f6101f43660046117b0565b6006602052600090815260409020546001600160a01b031681565b6040516101a391906118a0565b600154600090815260046020526040902054610199565b610199600b5481565b61025f61024a3660046117b0565b60006020819052908152604090205460ff1681565b6040516101a391906118cd565b610199600a5481565b6101b46102833660046116c4565b61048a565b6101b4610857565b610298610a92565b6040516101a391906118f5565b61020f7f000000000000000000000000000000000000000000000000000000000000000081565b61019960075481565b61019960095481565b610199610b20565b61020f7f000000000000000000000000000000000000000000000000000000000000000081565b6101997f000000000000000000000000000000000000000000000000000000000000000081565b61019960025481565b61019961034b3660046117e2565b60009182526005602090815260408084206001600160a01b0393909316845291905290205490565b610199610b7d565b61020f610389366004611812565b610c2e565b6101b461039c3660046117b0565b610c66565b6101997f000000000000000000000000000000000000000000000000000000000000000081565b610199600c5481565b61019960085481565b6101996103e83660046117b0565b61107d565b6101996110aa565b61020f7f000000000000000000000000000000000000000000000000000000000000000081565b60035461020f906001600160a01b031681565b336001600160a01b037f000000000000000000000000000000000000000000000000000000000000000016146104805760405162461bcd60e51b815260040161047790611928565b60405180910390fd5b6104886110de565b565b600260008281526020819052604090205460ff1660028111156104af576104af611a72565b146104b957600080fd5b7f00000000000000000000000000000000000000000000000000000000000000006001600160a01b0316633bedaca26040518163ffffffff1660e01b815260040160206040518083038186803b15801561051257600080fd5b505afa158015610526573d6000803e3d6000fd5b505050506040513d601f19601f8201168201806040525081019061054a91906116a7565b6001600160a01b0316336001600160a01b03161461056757600080fd5b60008181526004602052604081205483518490839061058857610588611a88565b602002602001015161059a9190611a32565b600083815260046020526040812080549293509091839081106105bf576105bf611a88565b600091825260208083209091015485835260069091526040822080546001600160a01b0319166001600160a01b03909216918217905591506106417f00000000000000000000000000000000000000000000000000000000000000007f000000000000000000000000000000000000000000000000000000000000000061197a565b9050600060088190555080600c600082825461065d919061194e565b9091555061069790506001600160a01b037f0000000000000000000000000000000000000000000000000000000000000000168383611145565b60006106a1610b20565b6106cb907f000000000000000000000000000000000000000000000000000000000000000061197a565b9050600060078190555080600a60008282546106e7919061194e565b925050819055506107b37f00000000000000000000000000000000000000000000000000000000000000006001600160a01b031663c415b95c6040518163ffffffff1660e01b815260040160206040518083038186803b15801561074a57600080fd5b505afa15801561075e573d6000803e3d6000fd5b505050506040513d601f19601f8201168201806040525081019061078291906116a7565b6001600160a01b037f0000000000000000000000000000000000000000000000000000000000000000169083611145565b60028590556040518581527f8cc775ebbee0cce2baccb0a0121cb5794418a52d6edac0ea16c407d241109fd09060200160405180910390a1600380546001600160a01b0319166001600160a01b0385169081179091556008546040805188815260208101929092527f6fc50effd94306e43c9e48ff5a94ffd13e754f4d7dceaf9803486ab81a5d6b71910160405180910390a261084f8561119b565b505050505050565b336001600160a01b037f0000000000000000000000000000000000000000000000000000000000000000161461089f5760405162461bcd60e51b815260040161047790611928565b6108aa6001546111b3565b6108b560015461119b565b60007f00000000000000000000000000000000000000000000000000000000000000006001600160a01b031663c415b95c6040518163ffffffff1660e01b815260040160206040518083038186803b15801561091057600080fd5b505afa158015610924573d6000803e3d6000fd5b505050506040513d601f19601f8201168201806040525081019061094891906116a7565b90507f00000000000000000000000000000000000000000000000000000000000000006001600160a01b031663a9059cbb827f00000000000000000000000000000000000000000000000000000000000000006001600160a01b03166370a08231306040518263ffffffff1660e01b81526004016109c691906118a0565b60206040518083038186803b1580156109de57600080fd5b505afa1580156109f2573d6000803e3d6000fd5b505050506040513d601f19601f82011682018060405250810190610a1691906117c9565b6040518363ffffffff1660e01b8152600401610a339291906118b4565b602060405180830381600087803b158015610a4d57600080fd5b505af1158015610a61573d6000803e3d6000fd5b505050506040513d601f19601f82011682018060405250810190610a85919061178e565b50806001600160a01b0316ff5b600d8054610a9f906119dc565b80601f0160208091040260200160405190810160405280929190818152602001828054610acb906119dc565b8015610b185780601f10610aed57610100808354040283529160200191610b18565b820191906000526020600020905b815481529060010190602001808311610afb57829003601f168201915b505050505081565b60006064610b6e7f00000000000000000000000000000000000000000000000000000000000000007f000000000000000000000000000000000000000000000000000000000000000061197a565b610b789190611966565b905090565b6000807f00000000000000000000000000000000000000000000000000000000000000006001600160a01b031663feaf968c6040518163ffffffff1660e01b815260040160a06040518083038186803b158015610bd957600080fd5b505afa158015610bed573d6000803e3d6000fd5b505050506040513d601f19601f82011682018060405250810190610c119190611834565b505050915050806402540be400610c28919061197a565b91505090565b60046020528160005260406000208181548110610c4a57600080fd5b6000918252602090912001546001600160a01b03169150829050565b6001805460009081526020819052604090205460ff166002811115610c8d57610c8d611a72565b14610c9757600080fd5b6001546000908152600460205260409020547f000000000000000000000000000000000000000000000000000000000000000090610cd5908361194e565b1115610d33576001546000908152600460205260408120547f000000000000000000000000000000000000000000000000000000000000000090610d19908461194e565b610d239190611999565b9050610d2f8183611999565b9150505b610d7c3330610d406110aa565b610d4a908561197a565b6001600160a01b037f0000000000000000000000000000000000000000000000000000000000000000169291906112f3565b60005b81811015610dc957600180546000908152600460209081526040822080549384018155825290200180546001600160a01b0319163317905580610dc181611a17565b915050610d7f565b50610df47f00000000000000000000000000000000000000000000000000000000000000008261197a565b60086000828254610e05919061194e565b90915550610e139050610b20565b610e1d908261197a565b60076000828254610e2e919061194e565b90915550610e5e90507f00000000000000000000000000000000000000000000000000000000000000008261197a565b600b6000828254610e6f919061194e565b90915550610e7d9050610b20565b610e87908261197a565b60096000828254610e98919061194e565b9091555050600154600090815260056020908152604080832033845290915281208054839290610ec990849061194e565b9250508190555060007f00000000000000000000000000000000000000000000000000000000000000006001600160a01b0316634fb3ccc56040518163ffffffff1660e01b815260040160206040518083038186803b158015610f2b57600080fd5b505afa158015610f3f573d6000803e3d6000fd5b505050506040513d601f19601f82011682018060405250810190610f6391906116a7565b90506000610f7c610f726110aa565b6103e8908561197a565b6001546040516375dbb8c960e01b8152336004820152602481018390526044810191909152606481018590529091506001600160a01b038316906375dbb8c990608401600060405180830381600087803b158015610fd957600080fd5b505af1158015610fed573d6000803e3d6000fd5b505060015460408051918252602082018790523393507fafae5042b7c47abc99ba2ed5eb6f29027888c2765bbf9c479a5ef03683a489b192500160405180910390a26001546000908152600460205260409020547f0000000000000000000000000000000000000000000000000000000000000000141561107857611070611331565b6110786110de565b505050565b6000670de0b6b3a7640000611090610b7d565b61109a908461197a565b6110a49190611966565b92915050565b60006110b4610b20565b610b78907f000000000000000000000000000000000000000000000000000000000000000061194e565b600180549060006110ee83611a17565b90915550506001805460009081526020818152604091829020805460ff191684179055915490519081527f0ab582f1afc29efbd503feb5b4a945175eee54010e1be75f88d3e0a865f1631f910160405180910390a1565b6110788363a9059cbb60e01b84846040516024016111649291906118b4565b60408051601f198184030181529190526020810180516001600160e01b03166001600160e01b03199093169290921790915261143f565b6000908152602081905260409020805460ff19169055565b60005b6000828152600460205260409020548110156112b25760008281526004602052604081208054839081106111ec576111ec611a88565b60009182526020822001546001600160a01b0316915061120a6110aa565b60015460009081526005602090815260408083206001600160a01b038716845290915290205461123a919061197a565b9050801561129d576112766001600160a01b037f0000000000000000000000000000000000000000000000000000000000000000168383611145565b60015460009081526005602090815260408083206001600160a01b03861684529091528120555b505080806112aa90611a17565b9150506111b6565b50600754600960008282546112c79190611999565b9091555050600854600b80546000906112e1908490611999565b90915550506000600781905560085550565b6040516001600160a01b038085166024830152831660448201526064810182905261132b9085906323b872dd60e01b90608401611164565b50505050565b60015460009081526020818152604091829020805460ff191660021790558151631df6d65160e11b815291516001600160a01b037f00000000000000000000000000000000000000000000000000000000000000001692633bedaca2926004808301939192829003018186803b1580156113aa57600080fd5b505afa1580156113be573d6000803e3d6000fd5b505050506040513d601f19601f820116820180604052508101906113e291906116a7565b6001600160a01b031663b1eb96c96001546040518263ffffffff1660e01b815260040161141191815260200190565b600060405180830381600087803b15801561142b57600080fd5b505af115801561132b573d6000803e3d6000fd5b6000611494826040518060400160405280602081526020017f5361666545524332303a206c6f772d6c6576656c2063616c6c206661696c6564815250856001600160a01b03166115119092919063ffffffff16565b80519091501561107857808060200190518101906114b2919061178e565b6110785760405162461bcd60e51b815260206004820152602a60248201527f5361666545524332303a204552433230206f7065726174696f6e20646964206e6044820152691bdd081cdd58d8d9595960b21b6064820152608401610477565b6060611520848460008561152a565b90505b9392505050565b60608247101561158b5760405162461bcd60e51b815260206004820152602660248201527f416464726573733a20696e73756666696369656e742062616c616e636520666f6044820152651c8818d85b1b60d21b6064820152608401610477565b843b6115d95760405162461bcd60e51b815260206004820152601d60248201527f416464726573733a2063616c6c20746f206e6f6e2d636f6e74726163740000006044820152606401610477565b600080866001600160a01b031685876040516115f59190611884565b60006040518083038185875af1925050503d8060008114611632576040519150601f19603f3d011682016040523d82523d6000602084013e611637565b606091505b5091509150611647828286611652565b979650505050505050565b60608315611661575081611523565b8251156116715782518084602001fd5b8160405162461bcd60e51b815260040161047791906118f5565b80516001600160501b03811681146116a257600080fd5b919050565b6000602082840312156116b957600080fd5b815161152381611ab4565b600080604083850312156116d757600080fd5b82356001600160401b03808211156116ee57600080fd5b818501915085601f83011261170257600080fd5b813560208282111561171657611716611a9e565b8160051b604051601f19603f8301168101818110868211171561173b5761173b611a9e565b604052838152828101945085830182870184018b101561175a57600080fd5b600096505b8487101561177d57803586526001969096019594830194830161175f565b509997909101359750505050505050565b6000602082840312156117a057600080fd5b8151801515811461152357600080fd5b6000602082840312156117c257600080fd5b5035919050565b6000602082840312156117db57600080fd5b5051919050565b600080604083850312156117f557600080fd5b82359150602083013561180781611ab4565b809150509250929050565b6000806040838503121561182557600080fd5b50508035926020909101359150565b600080600080600060a0868803121561184c57600080fd5b6118558661168b565b94506020860151935060408601519250606086015191506118786080870161168b565b90509295509295909350565b600082516118968184602087016119b0565b9190910192915050565b6001600160a01b0391909116815260200190565b6001600160a01b03929092168252602082015260400190565b60208101600383106118ef57634e487b7160e01b600052602160045260246000fd5b91905290565b60208152600082518060208401526119148160408501602087016119b0565b601f01601f19169190910160400192915050565b6020808252600c908201526b155b985d5d1a1bdc9a5e995960a21b604082015260600190565b6000821982111561196157611961611a46565b500190565b60008261197557611975611a5c565b500490565b600081600019048311821515161561199457611994611a46565b500290565b6000828210156119ab576119ab611a46565b500390565b60005b838110156119cb5781810151838201526020016119b3565b8381111561132b5750506000910152565b600181811c908216806119f057607f821691505b60208210811415611a1157634e487b7160e01b600052602260045260246000fd5b50919050565b6000600019821415611a2b57611a2b611a46565b5060010190565b600082611a4157611a41611a5c565b500690565b634e487b7160e01b600052601160045260246000fd5b634e487b7160e01b600052601260045260246000fd5b634e487b7160e01b600052602160045260246000fd5b634e487b7160e01b600052603260045260246000fd5b634e487b7160e01b600052604160045260246000fd5b6001600160a01b0381168114611ac957600080fd5b5056fea264697066735822122005b0bbc2038ef096d00a19168e03faac5b3283dea9a33ff103f15a97ceca69a064736f6c63430008070033",
  "linkReferences": {},
  "deployedLinkReferences": {}
}