{
  "_format": "hh-sol-artifact-1",
  "contractName": "SesameNativeAsync",
  "sourceName": "contracts/SesameNativeAsync.sol",
  "abi": [
    {
      "inputs": [
        {
          "internalType": "address",
          "name": "_governance",
          "type": "address"
        },
        {
          "internalType": "address",
          "name": "_token",
          "type": "address"
        },
        {
          "internalType": "address",
          "name": "_priceFeed",
          "type": "address"
        },
        {
          "internalType": "uint256",
          "name": "_ticketPrice",
          "type": "uint256"
        },
        {
          "internalType": "uint256",
          "name": "_ticketPerRound",
          "type": "uint256"
        },
        {
          "internalType": "uint256",
          "name": "_feePercent",
          "type": "uint256"
        },
        {
          "internalType": "string",
          "name": "_version",
          "type": "string"
        }
      ],
      "stateMutability": "nonpayable",
      "type": "constructor"
    },
    {
      "anonymous": false,
      "inputs": [
        {
          "indexed": true,
          "internalType": "address",
          "name": "player",
          "type": "address"
        },
        {
          "indexed": false,
          "internalType": "uint256",
          "name": "round",
          "type": "uint256"
        },
        {
          "indexed": false,
          "internalType": "uint256",
          "name": "prize",
          "type": "uint256"
        }
      ],
      "name": "DeclareWinner",
      "type": "event"
    },
    {
      "anonymous": false,
      "inputs": [
        {
          "indexed": false,
          "internalType": "uint256",
          "name": "round",
          "type": "uint256"
        }
      ],
      "name": "EndedRound",
      "type": "event"
    },
    {
      "anonymous": false,
      "inputs": [
        {
          "indexed": true,
          "internalType": "address",
          "name": "player",
          "type": "address"
        },
        {
          "indexed": false,
          "internalType": "uint256",
          "name": "round",
          "type": "uint256"
        },
        {
          "indexed": false,
          "internalType": "uint256",
          "name": "tickets",
          "type": "uint256"
        }
      ],
      "name": "EnterTicket",
      "type": "event"
    },
    {
      "anonymous": false,
      "inputs": [
        {
          "indexed": true,
          "internalType": "address",
          "name": "player",
          "type": "address"
        },
        {
          "indexed": false,
          "internalType": "uint256",
          "name": "round",
          "type": "uint256"
        },
        {
          "indexed": false,
          "internalType": "uint256",
          "name": "tickets",
          "type": "uint256"
        }
      ],
      "name": "Refund",
      "type": "event"
    },
    {
      "anonymous": false,
      "inputs": [
        {
          "indexed": false,
          "internalType": "uint256",
          "name": "round",
          "type": "uint256"
        }
      ],
      "name": "StartedRound",
      "type": "event"
    },
    {
      "inputs": [],
      "name": "activate",
      "outputs": [],
      "stateMutability": "nonpayable",
      "type": "function"
    },
    {
      "inputs": [],
      "name": "currentFees",
      "outputs": [
        {
          "internalType": "uint256",
          "name": "",
          "type": "uint256"
        }
      ],
      "stateMutability": "view",
      "type": "function"
    },
    {
      "inputs": [],
      "name": "currentFund",
      "outputs": [
        {
          "internalType": "uint256",
          "name": "",
          "type": "uint256"
        }
      ],
      "stateMutability": "view",
      "type": "function"
    },
    {
      "inputs": [],
      "name": "deactivate",
      "outputs": [],
      "stateMutability": "nonpayable",
      "type": "function"
    },
    {
      "inputs": [
        {
          "internalType": "uint256",
          "name": "ticket",
          "type": "uint256"
        }
      ],
      "name": "enter",
      "outputs": [],
      "stateMutability": "payable",
      "type": "function"
    },
    {
      "inputs": [],
      "name": "feePerTicket",
      "outputs": [
        {
          "internalType": "uint256",
          "name": "",
          "type": "uint256"
        }
      ],
      "stateMutability": "view",
      "type": "function"
    },
    {
      "inputs": [],
      "name": "feePercent",
      "outputs": [
        {
          "internalType": "uint256",
          "name": "",
          "type": "uint256"
        }
      ],
      "stateMutability": "view",
      "type": "function"
    },
    {
      "inputs": [
        {
          "internalType": "uint256",
          "name": "amount",
          "type": "uint256"
        }
      ],
      "name": "getCredit",
      "outputs": [
        {
          "internalType": "uint256",
          "name": "",
          "type": "uint256"
        }
      ],
      "stateMutability": "view",
      "type": "function"
    },
    {
      "inputs": [],
      "name": "getPriceFeed",
      "outputs": [
        {
          "internalType": "uint256",
          "name": "",
          "type": "uint256"
        }
      ],
      "stateMutability": "view",
      "type": "function"
    },
    {
      "inputs": [],
      "name": "getTicketCount",
      "outputs": [
        {
          "internalType": "uint256",
          "name": "count",
          "type": "uint256"
        }
      ],
      "stateMutability": "view",
      "type": "function"
    },
    {
      "inputs": [
        {
          "internalType": "uint256",
          "name": "_round",
          "type": "uint256"
        },
        {
          "internalType": "address",
          "name": "_player",
          "type": "address"
        }
      ],
      "name": "getUserTicketCount",
      "outputs": [
        {
          "internalType": "uint256",
          "name": "count",
          "type": "uint256"
        }
      ],
      "stateMutability": "view",
      "type": "function"
    },
    {
      "inputs": [],
      "name": "governance",
      "outputs": [
        {
          "internalType": "contract IGovernance",
          "name": "",
          "type": "address"
        }
      ],
      "stateMutability": "view",
      "type": "function"
    },
    {
      "inputs": [],
      "name": "lastRound",
      "outputs": [
        {
          "internalType": "uint256",
          "name": "",
          "type": "uint256"
        }
      ],
      "stateMutability": "view",
      "type": "function"
    },
    {
      "inputs": [],
      "name": "lastWinner",
      "outputs": [
        {
          "internalType": "address",
          "name": "",
          "type": "address"
        }
      ],
      "stateMutability": "view",
      "type": "function"
    },
    {
      "inputs": [],
      "name": "netTicketPrice",
      "outputs": [
        {
          "internalType": "uint256",
          "name": "",
          "type": "uint256"
        }
      ],
      "stateMutability": "view",
      "type": "function"
    },
    {
      "inputs": [
        {
          "internalType": "uint256[]",
          "name": "_rand",
          "type": "uint256[]"
        },
        {
          "internalType": "uint256",
          "name": "_round",
          "type": "uint256"
        }
      ],
      "name": "pickWinner",
      "outputs": [],
      "stateMutability": "nonpayable",
      "type": "function"
    },
    {
      "inputs": [],
      "name": "priceFeed",
      "outputs": [
        {
          "internalType": "contract AggregatorV3Interface",
          "name": "",
          "type": "address"
        }
      ],
      "stateMutability": "view",
      "type": "function"
    },
    {
      "inputs": [],
      "name": "round",
      "outputs": [
        {
          "internalType": "uint256",
          "name": "",
          "type": "uint256"
        }
      ],
      "stateMutability": "view",
      "type": "function"
    },
    {
      "inputs": [
        {
          "internalType": "uint256",
          "name": "",
          "type": "uint256"
        }
      ],
      "name": "state",
      "outputs": [
        {
          "internalType": "enum SesameNativeAsync.STATE",
          "name": "",
          "type": "uint8"
        }
      ],
      "stateMutability": "view",
      "type": "function"
    },
    {
      "inputs": [
        {
          "internalType": "uint256",
          "name": "",
          "type": "uint256"
        },
        {
          "internalType": "address",
          "name": "",
          "type": "address"
        }
      ],
      "name": "ticketMap",
      "outputs": [
        {
          "internalType": "uint256",
          "name": "",
          "type": "uint256"
        }
      ],
      "stateMutability": "view",
      "type": "function"
    },
    {
      "inputs": [],
      "name": "ticketPerRound",
      "outputs": [
        {
          "internalType": "uint256",
          "name": "",
          "type": "uint256"
        }
      ],
      "stateMutability": "view",
      "type": "function"
    },
    {
      "inputs": [],
      "name": "ticketPrice",
      "outputs": [
        {
          "internalType": "uint256",
          "name": "",
          "type": "uint256"
        }
      ],
      "stateMutability": "view",
      "type": "function"
    },
    {
      "inputs": [
        {
          "internalType": "uint256",
          "name": "",
          "type": "uint256"
        },
        {
          "internalType": "uint256",
          "name": "",
          "type": "uint256"
        }
      ],
      "name": "tickets",
      "outputs": [
        {
          "internalType": "address",
          "name": "",
          "type": "address"
        }
      ],
      "stateMutability": "view",
      "type": "function"
    },
    {
      "inputs": [],
      "name": "token",
      "outputs": [
        {
          "internalType": "contract IWBNB",
          "name": "",
          "type": "address"
        }
      ],
      "stateMutability": "view",
      "type": "function"
    },
    {
      "inputs": [],
      "name": "totalFeesCollected",
      "outputs": [
        {
          "internalType": "uint256",
          "name": "",
          "type": "uint256"
        }
      ],
      "stateMutability": "view",
      "type": "function"
    },
    {
      "inputs": [],
      "name": "totalFeesEmitted",
      "outputs": [
        {
          "internalType": "uint256",
          "name": "",
          "type": "uint256"
        }
      ],
      "stateMutability": "view",
      "type": "function"
    },
    {
      "inputs": [],
      "name": "totalFundCollected",
      "outputs": [
        {
          "internalType": "uint256",
          "name": "",
          "type": "uint256"
        }
      ],
      "stateMutability": "view",
      "type": "function"
    },
    {
      "inputs": [],
      "name": "totalFundEmitted",
      "outputs": [
        {
          "internalType": "uint256",
          "name": "",
          "type": "uint256"
        }
      ],
      "stateMutability": "view",
      "type": "function"
    },
    {
      "inputs": [],
      "name": "version",
      "outputs": [
        {
          "internalType": "string",
          "name": "",
          "type": "string"
        }
      ],
      "stateMutability": "view",
      "type": "function"
    },
    {
      "inputs": [
        {
          "internalType": "uint256",
          "name": "",
          "type": "uint256"
        }
      ],
      "name": "winner",
      "outputs": [
        {
          "internalType": "address",
          "name": "",
          "type": "address"
        }
      ],
      "stateMutability": "view",
      "type": "function"
    }
  ],
  "bytecode": "0x6101406040523480156200001257600080fd5b5060405162001e9138038062001e9183398101604081905262000035916200014e565b6001600160601b0319606088811b821660805287811b821660c05286901b1660a05260e084905261010083905261012082905280516200007d90600d9060208401906200008b565b5050505050505050620002d6565b828054620000999062000283565b90600052602060002090601f016020900481019282620000bd576000855562000108565b82601f10620000d857805160ff191683800117855562000108565b8280016001018555821562000108579182015b8281111562000108578251825591602001919060010190620000eb565b50620001169291506200011a565b5090565b5b808211156200011657600081556001016200011b565b80516001600160a01b03811681146200014957600080fd5b919050565b600080600080600080600060e0888a0312156200016a57600080fd5b620001758862000131565b9650602062000186818a0162000131565b96506200019660408a0162000131565b60608a015160808b015160a08c015160c08d0151939950919750955093506001600160401b0380821115620001ca57600080fd5b818b0191508b601f830112620001df57600080fd5b815181811115620001f457620001f4620002c0565b604051601f8201601f19908116603f011681019083821181831017156200021f576200021f620002c0565b816040528281528e868487010111156200023857600080fd5b600093505b828410156200025c57848401860151818501870152928501926200023d565b828411156200026e5760008684830101525b80965050505050505092959891949750929550565b600181811c908216806200029857607f821691505b60208210811415620002ba57634e487b7160e01b600052602260045260246000fd5b50919050565b634e487b7160e01b600052604160045260246000fd5b60805160601c60a05160601c60c05160601c60e0516101005161012051611aba620003d7600039600081816103ef0152610d8c0152600081816104c4015281816106d70152818161079e0152818161082a01528181610f2b01528181610f6f01526112f70152600081816101d50152818161077d01528181610dad01528181611083015281816110ed015261136e01526000818161055901528181610873015281816108e701528181610baf0152610bdf0152600081816103bb0152610de5015260008181610346015281816105a6015281816106270152818161091601528181610ac501528181610b1c0152818161118801526115840152611aba6000f3fe60806040526004361061015c5760003560e01c8062eb7c5e146101615780630f15f4c0146101ac5780631209b1f6146101c3578063146ca531146101f75780631cbeae5e1461020d57806321c63a471461025057806334ecfbb8146102745780633e4f49e61461028a578063457dd268146102c75780635071cf41146102dd57806351b42b00146102fd57806354fd4d50146103125780635aa6e675146103345780635d9644c41461036857806360c6d8ae1461037e57806369cfd9c114610394578063741bef1a146103a95780637fd6f15c146103dd57806382bc07e61461041157806383ab96f0146104275780639e87a5cd1461046a578063a374e43f1461047f578063a59f3e0c1461049f578063b8f5d380146104b2578063be184b5d146104e6578063d51bbbdd146104fc578063da304e4d14610512578063e5e078f214610532578063fc0c546a14610547578063fe1881841461057b575b600080fd5b34801561016d57600080fd5b5061019961017c3660046117c0565b600560209081526000928352604080842090915290825290205481565b6040519081526020015b60405180910390f35b3480156101b857600080fd5b506101c161059b565b005b3480156101cf57600080fd5b506101997f000000000000000000000000000000000000000000000000000000000000000081565b34801561020357600080fd5b5061019960015481565b34801561021957600080fd5b5061024361022836600461178e565b6006602052600090815260409020546001600160a01b031681565b6040516101a39190611862565b34801561025c57600080fd5b50600154600090815260046020526040902054610199565b34801561028057600080fd5b50610199600b5481565b34801561029657600080fd5b506102ba6102a536600461178e565b60006020819052908152604090205460ff1681565b6040516101a3919061188f565b3480156102d357600080fd5b50610199600a5481565b3480156102e957600080fd5b506101c16102f83660046116a2565b6105f6565b34801561030957600080fd5b506101c1610aba565b34801561031e57600080fd5b50610327610cf5565b6040516101a391906118b7565b34801561034057600080fd5b506102437f000000000000000000000000000000000000000000000000000000000000000081565b34801561037457600080fd5b5061019960075481565b34801561038a57600080fd5b5061019960095481565b3480156103a057600080fd5b50610199610d83565b3480156103b557600080fd5b506102437f000000000000000000000000000000000000000000000000000000000000000081565b3480156103e957600080fd5b506101997f000000000000000000000000000000000000000000000000000000000000000081565b34801561041d57600080fd5b5061019960025481565b34801561043357600080fd5b506101996104423660046117c0565b60009182526005602090815260408084206001600160a01b0393909316845291905290205490565b34801561047657600080fd5b50610199610de0565b34801561048b57600080fd5b5061024361049a3660046117f0565b610e91565b6101c16104ad36600461178e565b610ec9565b3480156104be57600080fd5b506101997f000000000000000000000000000000000000000000000000000000000000000081565b3480156104f257600080fd5b50610199600c5481565b34801561050857600080fd5b5061019960085481565b34801561051e57600080fd5b5061019961052d36600461178e565b611331565b34801561053e57600080fd5b5061019961135e565b34801561055357600080fd5b506102437f000000000000000000000000000000000000000000000000000000000000000081565b34801561058757600080fd5b50600354610243906001600160a01b031681565b336001600160a01b037f000000000000000000000000000000000000000000000000000000000000000016146105ec5760405162461bcd60e51b81526004016105e39061190c565b60405180910390fd5b6105f4611392565b565b600260008281526020819052604090205460ff16600281111561061b5761061b611a2a565b1461062557600080fd5b7f00000000000000000000000000000000000000000000000000000000000000006001600160a01b0316633bedaca26040518163ffffffff1660e01b815260040160206040518083038186803b15801561067e57600080fd5b505afa158015610692573d6000803e3d6000fd5b505050506040513d601f19601f820116820180604052508101906106b6919061167e565b6001600160a01b0316336001600160a01b0316146106d357600080fd5b60007f00000000000000000000000000000000000000000000000000000000000000008360008151811061070957610709611a40565b602002602001015161071b91906119ea565b6000838152600460205260408120805492935090918390811061074057610740611a40565b600091825260208083209091015485835260069091526040822080546001600160a01b0319166001600160a01b03909216918217905591506107c27f00000000000000000000000000000000000000000000000000000000000000007f000000000000000000000000000000000000000000000000000000000000000061195e565b9050600060088190555080600c60008282546107de9190611932565b90915550506040516001600160a01b0383169082156108fc029083906000818181858888f19350505050158015610819573d6000803e3d6000fd5b506000610824610d83565b61084e907f000000000000000000000000000000000000000000000000000000000000000061195e565b9050600060078190555080600a600082825461086a9190611932565b925050819055507f00000000000000000000000000000000000000000000000000000000000000006001600160a01b031663d0e30db0826040518263ffffffff1660e01b81526004016000604051808303818588803b1580156108cc57600080fd5b505af11580156108e0573d6000803e3d6000fd5b50505050507f00000000000000000000000000000000000000000000000000000000000000006001600160a01b031663a9059cbb7f00000000000000000000000000000000000000000000000000000000000000006001600160a01b031663c415b95c6040518163ffffffff1660e01b815260040160206040518083038186803b15801561096d57600080fd5b505afa158015610981573d6000803e3d6000fd5b505050506040513d601f19601f820116820180604052508101906109a5919061167e565b836040518363ffffffff1660e01b81526004016109c3929190611876565b602060405180830381600087803b1580156109dd57600080fd5b505af11580156109f1573d6000803e3d6000fd5b505050506040513d601f19601f82011682018060405250810190610a15919061176c565b5060028590556040518581527f8cc775ebbee0cce2baccb0a0121cb5794418a52d6edac0ea16c407d241109fd09060200160405180910390a1600380546001600160a01b0319166001600160a01b0385169081179091556008546040805188815260208101929092527f6fc50effd94306e43c9e48ff5a94ffd13e754f4d7dceaf9803486ab81a5d6b71910160405180910390a2610ab2856113f9565b505050505050565b336001600160a01b037f00000000000000000000000000000000000000000000000000000000000000001614610b025760405162461bcd60e51b81526004016105e39061190c565b610b0d600154611411565b610b186001546113f9565b60007f00000000000000000000000000000000000000000000000000000000000000006001600160a01b031663c415b95c6040518163ffffffff1660e01b815260040160206040518083038186803b158015610b7357600080fd5b505afa158015610b87573d6000803e3d6000fd5b505050506040513d601f19601f82011682018060405250810190610bab919061167e565b90507f00000000000000000000000000000000000000000000000000000000000000006001600160a01b031663a9059cbb827f00000000000000000000000000000000000000000000000000000000000000006001600160a01b03166370a08231306040518263ffffffff1660e01b8152600401610c299190611862565b60206040518083038186803b158015610c4157600080fd5b505afa158015610c55573d6000803e3d6000fd5b505050506040513d601f19601f82011682018060405250810190610c7991906117a7565b6040518363ffffffff1660e01b8152600401610c96929190611876565b602060405180830381600087803b158015610cb057600080fd5b505af1158015610cc4573d6000803e3d6000fd5b505050506040513d601f19601f82011682018060405250810190610ce8919061176c565b50806001600160a01b0316ff5b600d8054610d0290611994565b80601f0160208091040260200160405190810160405280929190818152602001828054610d2e90611994565b8015610d7b5780601f10610d5057610100808354040283529160200191610d7b565b820191906000526020600020905b815481529060010190602001808311610d5e57829003601f168201915b505050505081565b60006064610dd17f00000000000000000000000000000000000000000000000000000000000000007f000000000000000000000000000000000000000000000000000000000000000061195e565b610ddb919061194a565b905090565b6000807f00000000000000000000000000000000000000000000000000000000000000006001600160a01b031663feaf968c6040518163ffffffff1660e01b815260040160a06040518083038186803b158015610e3c57600080fd5b505afa158015610e50573d6000803e3d6000fd5b505050506040513d601f19601f82011682018060405250810190610e749190611812565b505050915050806402540be400610e8b919061195e565b91505090565b60046020528160005260406000208181548110610ead57600080fd5b6000918252602090912001546001600160a01b03169150829050565b6001805460009081526020819052604090205460ff166002811115610ef057610ef0611a2a565b14610efa57600080fd5b610f0261135e565b610f0c908261195e565b3414610f1757600080fd5b6001546000908152600460205260409020547f000000000000000000000000000000000000000000000000000000000000000090610f559083611932565b1115611030576001546000908152600460205260408120547f000000000000000000000000000000000000000000000000000000000000000090610f999084611932565b610fa3919061197d565b9050610faf818361197d565b9150336108fc610fbd61135e565b610fc7908461195e565b6040518115909202916000818181858888f19350505050158015610fef573d6000803e3d6000fd5b50600154604080519182526020820183905233917f73f04af9dcc582a923ec15d3eea990fe34adabfff2879e28d44572e01a54abb6910160405180910390a2505b60005b8181101561107d57600180546000908152600460209081526040822080549384018155825290200180546001600160a01b0319163317905580611075816119cf565b915050611033565b506110a87f00000000000000000000000000000000000000000000000000000000000000008261195e565b600860008282546110b99190611932565b909155506110c79050610d83565b6110d1908261195e565b600760008282546110e29190611932565b9091555061111290507f00000000000000000000000000000000000000000000000000000000000000008261195e565b600b60008282546111239190611932565b909155506111319050610d83565b61113b908261195e565b6009600082825461114c9190611932565b909155505060015460009081526005602090815260408083203384529091528120805483929061117d908490611932565b9250508190555060007f00000000000000000000000000000000000000000000000000000000000000006001600160a01b0316634fb3ccc56040518163ffffffff1660e01b815260040160206040518083038186803b1580156111df57600080fd5b505afa1580156111f3573d6000803e3d6000fd5b505050506040513d601f19601f82011682018060405250810190611217919061167e565b9050600061123061122661135e565b61052d908561195e565b6001546040516375dbb8c960e01b8152336004820152602481018390526044810191909152606481018590529091506001600160a01b038316906375dbb8c990608401600060405180830381600087803b15801561128d57600080fd5b505af11580156112a1573d6000803e3d6000fd5b505060015460408051918252602082018790523393507fafae5042b7c47abc99ba2ed5eb6f29027888c2765bbf9c479a5ef03683a489b192500160405180910390a26001546000908152600460205260409020547f0000000000000000000000000000000000000000000000000000000000000000141561132c5761132461154e565b61132c611392565b505050565b6000670de0b6b3a7640000611344610de0565b61134e908461195e565b611358919061194a565b92915050565b6000611368610d83565b610ddb907f0000000000000000000000000000000000000000000000000000000000000000611932565b600180549060006113a2836119cf565b90915550506001805460009081526020818152604091829020805460ff191684179055915490519081527f0ab582f1afc29efbd503feb5b4a945175eee54010e1be75f88d3e0a865f1631f910160405180910390a1565b6000908152602081905260409020805460ff19169055565b60005b60008281526004602052604090205481101561150d57600082815260046020526040812080548390811061144a5761144a611a40565b60009182526020822001546001600160a01b0316915061146861135e565b60008581526005602090815260408083206001600160a01b0387168452909152902054611495919061195e565b905080156114f8576040516001600160a01b0383169082156108fc029083906000818181858888f193505050501580156114d3573d6000803e3d6000fd5b5060008481526005602090815260408083206001600160a01b03861684529091528120555b50508080611505906119cf565b915050611414565b5060075460096000828254611522919061197d565b9091555050600854600b805460009061153c90849061197d565b90915550506000600781905560085550565b60015460009081526020818152604091829020805460ff191660021790558151631df6d65160e11b815291516001600160a01b037f00000000000000000000000000000000000000000000000000000000000000001692633bedaca2926004808301939192829003018186803b1580156115c757600080fd5b505afa1580156115db573d6000803e3d6000fd5b505050506040513d601f19601f820116820180604052508101906115ff919061167e565b6001600160a01b031663b1eb96c96001546040518263ffffffff1660e01b815260040161162e91815260200190565b600060405180830381600087803b15801561164857600080fd5b505af115801561165c573d6000803e3d6000fd5b50505050565b80516001600160501b038116811461167957600080fd5b919050565b60006020828403121561169057600080fd5b815161169b81611a6c565b9392505050565b600080604083850312156116b557600080fd5b82356001600160401b03808211156116cc57600080fd5b818501915085601f8301126116e057600080fd5b81356020828211156116f4576116f4611a56565b8160051b604051601f19603f8301168101818110868211171561171957611719611a56565b604052838152828101945085830182870184018b101561173857600080fd5b600096505b8487101561175b57803586526001969096019594830194830161173d565b509997909101359750505050505050565b60006020828403121561177e57600080fd5b8151801515811461169b57600080fd5b6000602082840312156117a057600080fd5b5035919050565b6000602082840312156117b957600080fd5b5051919050565b600080604083850312156117d357600080fd5b8235915060208301356117e581611a6c565b809150509250929050565b6000806040838503121561180357600080fd5b50508035926020909101359150565b600080600080600060a0868803121561182a57600080fd5b61183386611662565b945060208601519350604086015192506060860151915061185660808701611662565b90509295509295909350565b6001600160a01b0391909116815260200190565b6001600160a01b03929092168252602082015260400190565b60208101600383106118b157634e487b7160e01b600052602160045260246000fd5b91905290565b600060208083528351808285015260005b818110156118e4578581018301518582016040015282016118c8565b818111156118f6576000604083870101525b50601f01601f1916929092016040019392505050565b6020808252600c908201526b155b985d5d1a1bdc9a5e995960a21b604082015260600190565b60008219821115611945576119456119fe565b500190565b60008261195957611959611a14565b500490565b6000816000190483118215151615611978576119786119fe565b500290565b60008282101561198f5761198f6119fe565b500390565b600181811c908216806119a857607f821691505b602082108114156119c957634e487b7160e01b600052602260045260246000fd5b50919050565b60006000198214156119e3576119e36119fe565b5060010190565b6000826119f9576119f9611a14565b500690565b634e487b7160e01b600052601160045260246000fd5b634e487b7160e01b600052601260045260246000fd5b634e487b7160e01b600052602160045260246000fd5b634e487b7160e01b600052603260045260246000fd5b634e487b7160e01b600052604160045260246000fd5b6001600160a01b0381168114611a8157600080fd5b5056fea2646970667358221220ed0761e2692130790202a9f2f65ae6f2cc781c94770cabcba3f6519ca5bb51b864736f6c63430008070033",
  "linkReferences": {},
  "deployedLinkReferences": {}
}