{
  "_format": "hh-sol-artifact-1",
  "contractName": "TokenDistributor",
  "sourceName": "contracts/TokenDistributor.sol",
  "abi": [
    {
      "inputs": [
        {
          "internalType": "address",
          "name": "_sesameToken",
          "type": "address"
        },
        {
          "internalType": "address",
          "name": "_playerRewardDistributor",
          "type": "address"
        },
        {
          "internalType": "address",
          "name": "_tokenSplitter",
          "type": "address"
        },
        {
          "internalType": "uint256[]",
          "name": "_rewardsPerBlockForPlayer",
          "type": "uint256[]"
        },
        {
          "internalType": "uint256[]",
          "name": "_rewardsPerBlockForStaking",
          "type": "uint256[]"
        },
        {
          "internalType": "uint256[]",
          "name": "_rewardsPerBlockForOthers",
          "type": "uint256[]"
        },
        {
          "internalType": "uint256[]",
          "name": "_periodLengthesInBlocks",
          "type": "uint256[]"
        },
        {
          "internalType": "uint256",
          "name": "_numberPeriods",
          "type": "uint256"
        }
      ],
      "stateMutability": "nonpayable",
      "type": "constructor"
    },
    {
      "anonymous": false,
      "inputs": [
        {
          "indexed": true,
          "internalType": "address",
          "name": "user",
          "type": "address"
        },
        {
          "indexed": false,
          "internalType": "uint256",
          "name": "harvestedAmount",
          "type": "uint256"
        }
      ],
      "name": "Compound",
      "type": "event"
    },
    {
      "anonymous": false,
      "inputs": [
        {
          "indexed": true,
          "internalType": "address",
          "name": "user",
          "type": "address"
        },
        {
          "indexed": false,
          "internalType": "uint256",
          "name": "amount",
          "type": "uint256"
        },
        {
          "indexed": false,
          "internalType": "uint256",
          "name": "harvestedAmount",
          "type": "uint256"
        }
      ],
      "name": "Deposit",
      "type": "event"
    },
    {
      "anonymous": false,
      "inputs": [
        {
          "indexed": true,
          "internalType": "uint256",
          "name": "currentPhase",
          "type": "uint256"
        },
        {
          "indexed": false,
          "internalType": "uint256",
          "name": "startBlock",
          "type": "uint256"
        },
        {
          "indexed": false,
          "internalType": "uint256",
          "name": "rewardPerBlockForStaking",
          "type": "uint256"
        },
        {
          "indexed": false,
          "internalType": "uint256",
          "name": "rewardPerBlockForOthers",
          "type": "uint256"
        }
      ],
      "name": "NewRewardsPerBlock",
      "type": "event"
    },
    {
      "anonymous": false,
      "inputs": [
        {
          "indexed": true,
          "internalType": "address",
          "name": "user",
          "type": "address"
        },
        {
          "indexed": false,
          "internalType": "uint256",
          "name": "amount",
          "type": "uint256"
        },
        {
          "indexed": false,
          "internalType": "uint256",
          "name": "harvestedAmount",
          "type": "uint256"
        }
      ],
      "name": "Withdraw",
      "type": "event"
    },
    {
      "inputs": [],
      "name": "NUMBER_PERIODS",
      "outputs": [
        {
          "internalType": "uint256",
          "name": "",
          "type": "uint256"
        }
      ],
      "stateMutability": "view",
      "type": "function"
    },
    {
      "inputs": [],
      "name": "PRECISION_FACTOR",
      "outputs": [
        {
          "internalType": "uint256",
          "name": "",
          "type": "uint256"
        }
      ],
      "stateMutability": "view",
      "type": "function"
    },
    {
      "inputs": [],
      "name": "START_BLOCK",
      "outputs": [
        {
          "internalType": "uint256",
          "name": "",
          "type": "uint256"
        }
      ],
      "stateMutability": "view",
      "type": "function"
    },
    {
      "inputs": [],
      "name": "accTokenPerShare",
      "outputs": [
        {
          "internalType": "uint256",
          "name": "",
          "type": "uint256"
        }
      ],
      "stateMutability": "view",
      "type": "function"
    },
    {
      "inputs": [
        {
          "internalType": "address",
          "name": "user",
          "type": "address"
        }
      ],
      "name": "calculatePendingRewards",
      "outputs": [
        {
          "internalType": "uint256",
          "name": "",
          "type": "uint256"
        }
      ],
      "stateMutability": "view",
      "type": "function"
    },
    {
      "inputs": [],
      "name": "currentPhase",
      "outputs": [
        {
          "internalType": "uint256",
          "name": "",
          "type": "uint256"
        }
      ],
      "stateMutability": "view",
      "type": "function"
    },
    {
      "inputs": [
        {
          "internalType": "uint256",
          "name": "amount",
          "type": "uint256"
        }
      ],
      "name": "deposit",
      "outputs": [],
      "stateMutability": "nonpayable",
      "type": "function"
    },
    {
      "inputs": [],
      "name": "endBlock",
      "outputs": [
        {
          "internalType": "uint256",
          "name": "",
          "type": "uint256"
        }
      ],
      "stateMutability": "view",
      "type": "function"
    },
    {
      "inputs": [],
      "name": "harvestAndCompound",
      "outputs": [],
      "stateMutability": "nonpayable",
      "type": "function"
    },
    {
      "inputs": [],
      "name": "lastRewardBlock",
      "outputs": [
        {
          "internalType": "uint256",
          "name": "",
          "type": "uint256"
        }
      ],
      "stateMutability": "view",
      "type": "function"
    },
    {
      "inputs": [],
      "name": "playerRewardDistributor",
      "outputs": [
        {
          "internalType": "address",
          "name": "",
          "type": "address"
        }
      ],
      "stateMutability": "view",
      "type": "function"
    },
    {
      "inputs": [],
      "name": "rewardPerBlockForOthers",
      "outputs": [
        {
          "internalType": "uint256",
          "name": "",
          "type": "uint256"
        }
      ],
      "stateMutability": "view",
      "type": "function"
    },
    {
      "inputs": [],
      "name": "rewardPerBlockForStaking",
      "outputs": [
        {
          "internalType": "uint256",
          "name": "",
          "type": "uint256"
        }
      ],
      "stateMutability": "view",
      "type": "function"
    },
    {
      "inputs": [],
      "name": "rewardsPerBlockForPlayer",
      "outputs": [
        {
          "internalType": "uint256",
          "name": "",
          "type": "uint256"
        }
      ],
      "stateMutability": "view",
      "type": "function"
    },
    {
      "inputs": [],
      "name": "sesameToken",
      "outputs": [
        {
          "internalType": "contract ISesame",
          "name": "",
          "type": "address"
        }
      ],
      "stateMutability": "view",
      "type": "function"
    },
    {
      "inputs": [
        {
          "internalType": "uint256",
          "name": "",
          "type": "uint256"
        }
      ],
      "name": "stakingPeriod",
      "outputs": [
        {
          "internalType": "uint256",
          "name": "rewardPerBlockForPlayer",
          "type": "uint256"
        },
        {
          "internalType": "uint256",
          "name": "rewardPerBlockForStaking",
          "type": "uint256"
        },
        {
          "internalType": "uint256",
          "name": "rewardPerBlockForOthers",
          "type": "uint256"
        },
        {
          "internalType": "uint256",
          "name": "periodLengthInBlock",
          "type": "uint256"
        }
      ],
      "stateMutability": "view",
      "type": "function"
    },
    {
      "inputs": [],
      "name": "tokenSplitter",
      "outputs": [
        {
          "internalType": "address",
          "name": "",
          "type": "address"
        }
      ],
      "stateMutability": "view",
      "type": "function"
    },
    {
      "inputs": [],
      "name": "totalAmountStaked",
      "outputs": [
        {
          "internalType": "uint256",
          "name": "",
          "type": "uint256"
        }
      ],
      "stateMutability": "view",
      "type": "function"
    },
    {
      "inputs": [],
      "name": "updatePool",
      "outputs": [],
      "stateMutability": "nonpayable",
      "type": "function"
    },
    {
      "inputs": [
        {
          "internalType": "address",
          "name": "",
          "type": "address"
        }
      ],
      "name": "userInfo",
      "outputs": [
        {
          "internalType": "uint256",
          "name": "amount",
          "type": "uint256"
        },
        {
          "internalType": "uint256",
          "name": "rewardDebt",
          "type": "uint256"
        }
      ],
      "stateMutability": "view",
      "type": "function"
    },
    {
      "inputs": [
        {
          "internalType": "uint256",
          "name": "amount",
          "type": "uint256"
        }
      ],
      "name": "withdraw",
      "outputs": [],
      "stateMutability": "nonpayable",
      "type": "function"
    },
    {
      "inputs": [],
      "name": "withdrawAll",
      "outputs": [],
      "stateMutability": "nonpayable",
      "type": "function"
    }
  ],
  "bytecode": "0x6101206040523480156200001257600080fd5b5060405162001c5f38038062001c5f8339810160408190526200003591620004e7565b60016000558151811480156200004b5750808451145b8015620000585750808451145b620000c05760405162461bcd60e51b815260206004820152602e60248201527f4469737472696275746f723a204c656e6774686573206d757374206d6174636860448201526d206e756d626572506572696f647360901b606482015260840160405180910390fd5b6000886001600160a01b03166318160ddd6040518163ffffffff1660e01b815260040160206040518083038186803b158015620000fc57600080fd5b505afa15801562000111573d6000803e3d6000fd5b505050506040513d601f19601f82011682018060405250810190620001379190620005e3565b896001600160a01b0316630cfccc836040518163ffffffff1660e01b815260040160206040518083038186803b1580156200017157600080fd5b505afa15801562000186573d6000803e3d6000fd5b505050506040513d601f19601f82011682018060405250810190620001ac9190620005e3565b620001b891906200063a565b90506000805b838110156200034757848181518110620001dc57620001dc62000688565b6020026020010151888281518110620001f957620001f962000688565b602002602001015187838151811062000216576200021662000688565b602002602001015189848151811062000233576200023362000688565b6020026020010151620002479190620005fd565b620002539190620005fd565b6200025f919062000618565b6200026b9083620005fd565b915060405180608001604052808983815181106200028d576200028d62000688565b60200260200101518152602001888381518110620002af57620002af62000688565b60200260200101518152602001878381518110620002d157620002d162000688565b60200260200101518152602001868381518110620002f357620002f362000688565b602090810291909101810151909152600083815260098252604090819020835181559183015160018301558201516002820155606090910151600390910155806200033e8162000654565b915050620001be565b506001600160601b031960608b811b82166080528a811b821660a05289901b1660c0528651879060009062000380576200038062000688565b602002602001015160058190555085600081518110620003a457620003a462000688565b602002602001015160078190555084600081518110620003c857620003c862000688565b6020908102919091010151600655436101005283518490600090620003f157620003f162000688565b602002602001015143620004069190620005fd565b600355505060e05250504360045550620006b49350505050565b80516001600160a01b03811681146200043857600080fd5b919050565b600082601f8301126200044f57600080fd5b815160206001600160401b03808311156200046e576200046e6200069e565b8260051b604051601f19603f830116810181811084821117156200049657620004966200069e565b60405284815283810192508684018288018501891015620004b657600080fd5b600092505b85831015620004db578051845292840192600192909201918401620004bb565b50979650505050505050565b600080600080600080600080610100898b0312156200050557600080fd5b620005108962000420565b97506200052060208a0162000420565b96506200053060408a0162000420565b60608a01519096506001600160401b03808211156200054e57600080fd5b6200055c8c838d016200043d565b965060808b01519150808211156200057357600080fd5b620005818c838d016200043d565b955060a08b01519150808211156200059857600080fd5b620005a68c838d016200043d565b945060c08b0151915080821115620005bd57600080fd5b50620005cc8b828c016200043d565b92505060e089015190509295985092959890939650565b600060208284031215620005f657600080fd5b5051919050565b6000821982111562000613576200061362000672565b500190565b600081600019048311821515161562000635576200063562000672565b500290565b6000828210156200064f576200064f62000672565b500390565b60006000198214156200066b576200066b62000672565b5060010190565b634e487b7160e01b600052601160045260246000fd5b634e487b7160e01b600052603260045260246000fd5b634e487b7160e01b600052604160045260246000fd5b60805160601c60a05160601c60c05160601c60e051610100516115176200074860003960006101e501526000818161020c0152818161038b0152610c6901526000818161027d0152610ef90152600081816101a60152610e38015260008181610233015281816107e20152818161096a01528181610a4a01528181610d3601528181610e0b0152610ecc01526115176000f3fe608060405234801561001057600080fd5b50600436106101125760003560e01c8063055ad42e14610117578063083c632314610133578063097aad101461013c5780631959a0021461014f5780632a4e051b146101845780632e1a7d4d1461018e578063387b9b05146101a157806339b3e826146101e057806352bf348c1461020757806352fe618c1461022e5780635a9477e91461025557806377a968f81461025e578063853828b6146102675780638f6629151461026f578063a46074c314610278578063a9f8d1811461029f578063b6b55f25146102a8578063c1027c98146102bb578063ccd34cd514610310578063e3161ddd1461031c578063e683d96f14610324578063fe961f611461032d575b600080fd5b61012060025481565b6040519081526020015b60405180910390f35b61012060035481565b61012061014a3660046112e3565b610336565b61017661015d3660046112e3565b600a602052600090815260409020805460019091015482565b60405161012a9291906113e6565b61018c610507565b005b61018c61019c36600461132e565b610651565b6101c87f000000000000000000000000000000000000000000000000000000000000000081565b6040516001600160a01b03909116815260200161012a565b6101207f000000000000000000000000000000000000000000000000000000000000000081565b6101207f000000000000000000000000000000000000000000000000000000000000000081565b6101c87f000000000000000000000000000000000000000000000000000000000000000081565b61012060075481565b61012060055481565b61018c610843565b61012060015481565b6101c87f000000000000000000000000000000000000000000000000000000000000000081565b61012060045481565b61018c6102b636600461132e565b6109c2565b6102f06102c936600461132e565b60096020526000908152604090208054600182015460028301546003909301549192909184565b60408051948552602085019390935291830152606082015260800161012a565b61012064e8d4a5100081565b61018c610b8c565b61012060065481565b61012060085481565b60006004544311801561034a575060085415155b156104b857600061035d60045443610bbc565b905060006007548261036f919061142e565b600354600254919250905b81431180156103b257506103af60017f000000000000000000000000000000000000000000000000000000000000000061144d565b81105b1561043857806103c181611490565b60008181526009602052604090206001810154600390910154919350915083906103eb90826113f4565b935060008443111561040e57600084815260096020526040902060030154610418565b610418824361144d565b9050610424838261142e565b61042e90876113f4565b955050505061037a565b60085460009061044d64e8d4a510008661142e565b610457919061140c565b60015461046491906113f4565b6001600160a01b0388166000908152600a60205260409020600181015490549192509064e8d4a510009061049990849061142e565b6104a3919061140c565b6104ad919061144d565b979650505050505050565b6001600160a01b0382166000908152600a6020526040902060018082015490549154909164e8d4a51000916104ed919061142e565b6104f7919061140c565b610501919061144d565b92915050565b600260005414156105335760405162461bcd60e51b815260040161052a906113af565b60405180910390fd5b6002600055610540610bf7565b336000908152600a6020526040812060018082015490549154909164e8d4a510009161056c919061142e565b610576919061140c565b610580919061144d565b90508061058d575061064a565b336000908152600a6020526040812080548392906105ac9084906113f4565b9250508190555080600860008282546105c591906113f4565b9091555050600154336000908152600a602052604090205464e8d4a51000916105ed9161142e565b6105f7919061140c565b336000818152600a6020526040908190206001019290925590517f169f1815ebdea059aac3bb00ec9a9594c7a5ffcb64a17e8392b5d84909a14556906106409084815260200190565b60405180910390a2505b6001600055565b600260005414156106745760405162461bcd60e51b815260040161052a906113af565b60026000908155338152600a602052604090205481118015906106975750600081115b6107035760405162461bcd60e51b815260206004820152603760248201527f57697468647261773a20416d6f756e74206d757374206265203e2030206f72206044820152766c6f776572207468616e20757365722062616c616e636560481b606482015260840161052a565b61070b610bf7565b336000908152600a6020526040812060018082015490549154909164e8d4a5100091610737919061142e565b610741919061140c565b61074b919061144d565b336000908152600a6020526040902054909150829061076b9083906113f4565b610775919061144d565b336000908152600a6020526040902081905560015464e8d4a510009161079b919061142e565b6107a5919061140c565b336000908152600a602052604090206001015560085482906107c89083906113f4565b6107d2919061144d565b6008556108096001600160a01b037f0000000000000000000000000000000000000000000000000000000000000000163384610f8e565b336001600160a01b03166000805160206114c283398151915283836040516108329291906113e6565b60405180910390a250506001600055565b600260005414156108665760405162461bcd60e51b815260040161052a906113af565b60026000908155338152600a60205260409020546108c55760405162461bcd60e51b815260206004820152601c60248201527b057697468647261773a20416d6f756e74206d757374206265203e20360241b604482015260640161052a565b6108cd610bf7565b336000908152600a6020526040812060018082015490549154909164e8d4a51000916108f9919061142e565b610903919061140c565b61090d919061144d565b336000908152600a60205260408120549192509061092c9083906113f4565b336000908152600a602052604090205460085491925061094b9161144d565b600855336000818152600a6020526040812081815560010155610999907f00000000000000000000000000000000000000000000000000000000000000006001600160a01b03169083610f8e565b336001600160a01b03166000805160206114c283398151915282846040516108329291906113e6565b600260005414156109e55760405162461bcd60e51b815260040161052a906113af565b600260005580610a355760405162461bcd60e51b815260206004820152601b60248201527a04465706f7369743a20416d6f756e74206d757374206265203e203602c1b604482015260640161052a565b610a3d610bf7565b610a726001600160a01b037f000000000000000000000000000000000000000000000000000000000000000016333084610fe9565b336000908152600a602052604081205415610aca57336000908152600a6020526040902060018082015490549154909164e8d4a5100091610ab3919061142e565b610abd919061140c565b610ac7919061144d565b90505b610ad481836113f4565b336000908152600a602052604081208054909190610af39084906113f4565b9091555050600154336000908152600a602052604090205464e8d4a5100091610b1b9161142e565b610b25919061140c565b336000908152600a6020526040902060010155610b4281836113f4565b60086000828254610b5391906113f4565b909155505060405133907f90890809c654f11d6e72a28fa60149770a0d11ec6c92319d6ceb2bb0a4ea1a159061083290859085906113e6565b60026000541415610baf5760405162461bcd60e51b815260040161052a906113af565b600260005561064a610bf7565b60006003548211610bd857610bd1838361144d565b9050610501565b6003548310610be957506000610501565b82600354610bd1919061144d565b6004544311610c0257565b600854610c0f5743600455565b6000610c1d60045443610bbc565b9050600060055482610c2f919061142e565b9050600060075483610c41919061142e565b9050600060065484610c53919061142e565b90505b60035443118015610c925750610c8d60017f000000000000000000000000000000000000000000000000000000000000000061144d565b600254105b15610d1657610ca2600354611021565b600380546002546000908152600960205260408120830154919290610cc783856113f4565b9091555060009050610cd98243610bbc565b905060075481610ce9919061142e565b610cf390856113f4565b935060065481610d03919061142e565b610d0d90846113f4565b92505050610c56565b8115610f78576040516340c10f1960e01b81526000906001600160a01b037f000000000000000000000000000000000000000000000000000000000000000016906340c10f1990610d6d9030908790600401611363565b602060405180830381600087803b158015610d8757600080fd5b505af1158015610d9b573d6000803e3d6000fd5b505050506040513d601f19601f82011682018060405250810190610dbf919061130c565b90508015610df457600854610dd964e8d4a510008561142e565b610de3919061140c565b600154610df091906113f4565b6001555b6040516340c10f1960e01b81526001600160a01b037f000000000000000000000000000000000000000000000000000000000000000016906340c10f1990610e62907f0000000000000000000000000000000000000000000000000000000000000000908890600401611363565b602060405180830381600087803b158015610e7c57600080fd5b505af1158015610e90573d6000803e3d6000fd5b505050506040513d601f19601f82011682018060405250810190610eb4919061130c565b506040516340c10f1960e01b81526001600160a01b037f000000000000000000000000000000000000000000000000000000000000000016906340c10f1990610f23907f0000000000000000000000000000000000000000000000000000000000000000908690600401611363565b602060405180830381600087803b158015610f3d57600080fd5b505af1158015610f51573d6000803e3d6000fd5b505050506040513d601f19601f82011682018060405250810190610f75919061130c565b50505b60035460045411610f8857436004555b50505050565b610fe48363a9059cbb60e01b8484604051602401610fad929190611363565b60408051601f198184030181529190526020810180516001600160e01b03166001600160e01b0319909316929092179091526110a7565b505050565b6040516001600160a01b0380851660248301528316604482015260648101829052610f889085906323b872dd60e01b90608401610fad565b6002805490600061103183611490565b909155505060028054600081815260096020908152604091829020805460055560018101546007819055940154600681905582518681529182019490945290810192909252907f40181eb77bccfdef1a73b669bb4290d98e2fbec678c7cf4578ae256210420e179060600160405180910390a250565b60006110fc826040518060400160405280602081526020017f5361666545524332303a206c6f772d6c6576656c2063616c6c206661696c6564815250856001600160a01b03166111799092919063ffffffff16565b805190915015610fe4578080602001905181019061111a919061130c565b610fe45760405162461bcd60e51b815260206004820152602a60248201527f5361666545524332303a204552433230206f7065726174696f6e20646964206e6044820152691bdd081cdd58d8d9595960b21b606482015260840161052a565b60606111888484600085611192565b90505b9392505050565b6060824710156111f35760405162461bcd60e51b815260206004820152602660248201527f416464726573733a20696e73756666696369656e742062616c616e636520666f6044820152651c8818d85b1b60d21b606482015260840161052a565b843b6112415760405162461bcd60e51b815260206004820152601d60248201527f416464726573733a2063616c6c20746f206e6f6e2d636f6e7472616374000000604482015260640161052a565b600080866001600160a01b0316858760405161125d9190611347565b60006040518083038185875af1925050503d806000811461129a576040519150601f19603f3d011682016040523d82523d6000602084013e61129f565b606091505b50915091506104ad828286606083156112b957508161118b565b8251156112c95782518084602001fd5b8160405162461bcd60e51b815260040161052a919061137c565b6000602082840312156112f557600080fd5b81356001600160a01b038116811461118b57600080fd5b60006020828403121561131e57600080fd5b8151801515811461118b57600080fd5b60006020828403121561134057600080fd5b5035919050565b60008251611359818460208701611464565b9190910192915050565b6001600160a01b03929092168252602082015260400190565b602081526000825180602084015261139b816040850160208701611464565b601f01601f19169190910160400192915050565b6020808252601f908201527f5265656e7472616e637947756172643a207265656e7472616e742063616c6c00604082015260600190565b918252602082015260400190565b60008219821115611407576114076114ab565b500190565b60008261142957634e487b7160e01b600052601260045260246000fd5b500490565b6000816000190483118215151615611448576114486114ab565b500290565b60008282101561145f5761145f6114ab565b500390565b60005b8381101561147f578181015183820152602001611467565b83811115610f885750506000910152565b60006000198214156114a4576114a46114ab565b5060010190565b634e487b7160e01b600052601160045260246000fdfef279e6a1f5e320cca91135676d9cb6e44ca8a08c0b88342bcdb1144f6511b568a2646970667358221220a53c8e38d461caa55518d24b610a14e589bd9638f59945fc2fda7a0e929d4f0d64736f6c63430008070033",
  "linkReferences": {},
  "deployedLinkReferences": {}
}