{
  "_format": "hh-sol-artifact-1",
  "contractName": "TokenDistributor",
  "sourceName": "contracts/TokenDistributor.sol",
  "abi": [
    {
      "inputs": [
        {
          "internalType": "address",
          "name": "_sesameToken",
          "type": "address"
        },
        {
          "internalType": "address",
          "name": "_playerRewardDistributor",
          "type": "address"
        },
        {
          "internalType": "address",
          "name": "_tokenSplitter",
          "type": "address"
        },
        {
          "internalType": "uint256[]",
          "name": "_rewardsPerBlockForPlayer",
          "type": "uint256[]"
        },
        {
          "internalType": "uint256[]",
          "name": "_rewardsPerBlockForStaking",
          "type": "uint256[]"
        },
        {
          "internalType": "uint256[]",
          "name": "_rewardsPerBlockForOthers",
          "type": "uint256[]"
        },
        {
          "internalType": "uint256[]",
          "name": "_periodLengthesInBlocks",
          "type": "uint256[]"
        },
        {
          "internalType": "uint256",
          "name": "_numberPeriods",
          "type": "uint256"
        }
      ],
      "stateMutability": "nonpayable",
      "type": "constructor"
    },
    {
      "anonymous": false,
      "inputs": [
        {
          "indexed": true,
          "internalType": "address",
          "name": "user",
          "type": "address"
        },
        {
          "indexed": false,
          "internalType": "uint256",
          "name": "harvestedAmount",
          "type": "uint256"
        }
      ],
      "name": "Compound",
      "type": "event"
    },
    {
      "anonymous": false,
      "inputs": [
        {
          "indexed": true,
          "internalType": "address",
          "name": "user",
          "type": "address"
        },
        {
          "indexed": false,
          "internalType": "uint256",
          "name": "amount",
          "type": "uint256"
        },
        {
          "indexed": false,
          "internalType": "uint256",
          "name": "harvestedAmount",
          "type": "uint256"
        }
      ],
      "name": "Deposit",
      "type": "event"
    },
    {
      "anonymous": false,
      "inputs": [
        {
          "indexed": true,
          "internalType": "uint256",
          "name": "currentPhase",
          "type": "uint256"
        },
        {
          "indexed": false,
          "internalType": "uint256",
          "name": "startBlock",
          "type": "uint256"
        },
        {
          "indexed": false,
          "internalType": "uint256",
          "name": "rewardPerBlockForStaking",
          "type": "uint256"
        },
        {
          "indexed": false,
          "internalType": "uint256",
          "name": "rewardPerBlockForOthers",
          "type": "uint256"
        }
      ],
      "name": "NewRewardsPerBlock",
      "type": "event"
    },
    {
      "anonymous": false,
      "inputs": [
        {
          "indexed": true,
          "internalType": "address",
          "name": "user",
          "type": "address"
        },
        {
          "indexed": false,
          "internalType": "uint256",
          "name": "amount",
          "type": "uint256"
        },
        {
          "indexed": false,
          "internalType": "uint256",
          "name": "harvestedAmount",
          "type": "uint256"
        }
      ],
      "name": "Withdraw",
      "type": "event"
    },
    {
      "inputs": [],
      "name": "NUMBER_PERIODS",
      "outputs": [
        {
          "internalType": "uint256",
          "name": "",
          "type": "uint256"
        }
      ],
      "stateMutability": "view",
      "type": "function"
    },
    {
      "inputs": [],
      "name": "PRECISION_FACTOR",
      "outputs": [
        {
          "internalType": "uint256",
          "name": "",
          "type": "uint256"
        }
      ],
      "stateMutability": "view",
      "type": "function"
    },
    {
      "inputs": [],
      "name": "START_BLOCK",
      "outputs": [
        {
          "internalType": "uint256",
          "name": "",
          "type": "uint256"
        }
      ],
      "stateMutability": "view",
      "type": "function"
    },
    {
      "inputs": [],
      "name": "accTokenPerShare",
      "outputs": [
        {
          "internalType": "uint256",
          "name": "",
          "type": "uint256"
        }
      ],
      "stateMutability": "view",
      "type": "function"
    },
    {
      "inputs": [
        {
          "internalType": "address",
          "name": "user",
          "type": "address"
        }
      ],
      "name": "calculatePendingRewards",
      "outputs": [
        {
          "internalType": "uint256",
          "name": "",
          "type": "uint256"
        }
      ],
      "stateMutability": "view",
      "type": "function"
    },
    {
      "inputs": [],
      "name": "currentPhase",
      "outputs": [
        {
          "internalType": "uint256",
          "name": "",
          "type": "uint256"
        }
      ],
      "stateMutability": "view",
      "type": "function"
    },
    {
      "inputs": [
        {
          "internalType": "uint256",
          "name": "amount",
          "type": "uint256"
        }
      ],
      "name": "deposit",
      "outputs": [],
      "stateMutability": "nonpayable",
      "type": "function"
    },
    {
      "inputs": [],
      "name": "endBlock",
      "outputs": [
        {
          "internalType": "uint256",
          "name": "",
          "type": "uint256"
        }
      ],
      "stateMutability": "view",
      "type": "function"
    },
    {
      "inputs": [],
      "name": "harvestAndCompound",
      "outputs": [],
      "stateMutability": "nonpayable",
      "type": "function"
    },
    {
      "inputs": [],
      "name": "lastRewardBlock",
      "outputs": [
        {
          "internalType": "uint256",
          "name": "",
          "type": "uint256"
        }
      ],
      "stateMutability": "view",
      "type": "function"
    },
    {
      "inputs": [],
      "name": "playerRewardDistributor",
      "outputs": [
        {
          "internalType": "address",
          "name": "",
          "type": "address"
        }
      ],
      "stateMutability": "view",
      "type": "function"
    },
    {
      "inputs": [],
      "name": "rewardPerBlockForOthers",
      "outputs": [
        {
          "internalType": "uint256",
          "name": "",
          "type": "uint256"
        }
      ],
      "stateMutability": "view",
      "type": "function"
    },
    {
      "inputs": [],
      "name": "rewardPerBlockForStaking",
      "outputs": [
        {
          "internalType": "uint256",
          "name": "",
          "type": "uint256"
        }
      ],
      "stateMutability": "view",
      "type": "function"
    },
    {
      "inputs": [],
      "name": "rewardsPerBlockForPlayer",
      "outputs": [
        {
          "internalType": "uint256",
          "name": "",
          "type": "uint256"
        }
      ],
      "stateMutability": "view",
      "type": "function"
    },
    {
      "inputs": [],
      "name": "sesameToken",
      "outputs": [
        {
          "internalType": "contract ISesame",
          "name": "",
          "type": "address"
        }
      ],
      "stateMutability": "view",
      "type": "function"
    },
    {
      "inputs": [],
      "name": "stakingAPR",
      "outputs": [
        {
          "internalType": "uint256",
          "name": "",
          "type": "uint256"
        }
      ],
      "stateMutability": "view",
      "type": "function"
    },
    {
      "inputs": [
        {
          "internalType": "uint256",
          "name": "",
          "type": "uint256"
        }
      ],
      "name": "stakingPeriod",
      "outputs": [
        {
          "internalType": "uint256",
          "name": "rewardPerBlockForPlayer",
          "type": "uint256"
        },
        {
          "internalType": "uint256",
          "name": "rewardPerBlockForStaking",
          "type": "uint256"
        },
        {
          "internalType": "uint256",
          "name": "rewardPerBlockForOthers",
          "type": "uint256"
        },
        {
          "internalType": "uint256",
          "name": "periodLengthInBlock",
          "type": "uint256"
        }
      ],
      "stateMutability": "view",
      "type": "function"
    },
    {
      "inputs": [],
      "name": "tokenSplitter",
      "outputs": [
        {
          "internalType": "address",
          "name": "",
          "type": "address"
        }
      ],
      "stateMutability": "view",
      "type": "function"
    },
    {
      "inputs": [],
      "name": "totalAmountStaked",
      "outputs": [
        {
          "internalType": "uint256",
          "name": "",
          "type": "uint256"
        }
      ],
      "stateMutability": "view",
      "type": "function"
    },
    {
      "inputs": [],
      "name": "updatePool",
      "outputs": [],
      "stateMutability": "nonpayable",
      "type": "function"
    },
    {
      "inputs": [
        {
          "internalType": "address",
          "name": "",
          "type": "address"
        }
      ],
      "name": "userInfo",
      "outputs": [
        {
          "internalType": "uint256",
          "name": "amount",
          "type": "uint256"
        },
        {
          "internalType": "uint256",
          "name": "rewardDebt",
          "type": "uint256"
        }
      ],
      "stateMutability": "view",
      "type": "function"
    },
    {
      "inputs": [
        {
          "internalType": "uint256",
          "name": "amount",
          "type": "uint256"
        }
      ],
      "name": "withdraw",
      "outputs": [],
      "stateMutability": "nonpayable",
      "type": "function"
    },
    {
      "inputs": [],
      "name": "withdrawAll",
      "outputs": [],
      "stateMutability": "nonpayable",
      "type": "function"
    }
  ],
  "bytecode": "0x6101206040523480156200001257600080fd5b5060405162001d1438038062001d14833981016040819052620000359162000545565b60016000558151811480156200004b5750808451145b8015620000585750808451145b620000c15760405162461bcd60e51b815260206004820152602e60248201527f4469737472696275746f723a204c656e6774686573206d757374206d6174636860448201526d206e756d626572506572696f647360901b60648201526084015b60405180910390fd5b6000886001600160a01b03166318160ddd6040518163ffffffff1660e01b815260040160206040518083038186803b158015620000fd57600080fd5b505afa15801562000112573d6000803e3d6000fd5b505050506040513d601f19601f8201168201806040525081019062000138919062000641565b896001600160a01b0316630cfccc836040518163ffffffff1660e01b815260040160206040518083038186803b1580156200017257600080fd5b505afa15801562000187573d6000803e3d6000fd5b505050506040513d601f19601f82011682018060405250810190620001ad919062000641565b620001b9919062000698565b90506000805b838110156200034857848181518110620001dd57620001dd620006e6565b6020026020010151888281518110620001fa57620001fa620006e6565b6020026020010151878381518110620002175762000217620006e6565b6020026020010151898481518110620002345762000234620006e6565b60200260200101516200024891906200065b565b6200025491906200065b565b62000260919062000676565b6200026c90836200065b565b915060405180608001604052808983815181106200028e576200028e620006e6565b60200260200101518152602001888381518110620002b057620002b0620006e6565b60200260200101518152602001878381518110620002d257620002d2620006e6565b60200260200101518152602001868381518110620002f457620002f4620006e6565b602090810291909101810151909152600083815260098252604090819020835181559183015160018301558201516002820155606090910151600390910155806200033f81620006b2565b915050620001bf565b50818114620003a65760405162461bcd60e51b8152602060048201526024808201527f4469737472696275746f723a2057726f6e672072657761726420706172616d656044820152637465727360e01b6064820152608401620000b8565b6001600160601b031960608b811b82166080528a811b821660a05289901b1660c05286518790600090620003de57620003de620006e6565b602002602001015160058190555085600081518110620004025762000402620006e6565b602002602001015160078190555084600081518110620004265762000426620006e6565b60209081029190910101516006554361010052835184906000906200044f576200044f620006e6565b6020026020010151436200046491906200065b565b600355505060e05250504360045550620007129350505050565b80516001600160a01b03811681146200049657600080fd5b919050565b600082601f830112620004ad57600080fd5b815160206001600160401b0380831115620004cc57620004cc620006fc565b8260051b604051601f19603f83011681018181108482111715620004f457620004f4620006fc565b604052848152838101925086840182880185018910156200051457600080fd5b600092505b858310156200053957805184529284019260019290920191840162000519565b50979650505050505050565b600080600080600080600080610100898b0312156200056357600080fd5b6200056e896200047e565b97506200057e60208a016200047e565b96506200058e60408a016200047e565b60608a01519096506001600160401b0380821115620005ac57600080fd5b620005ba8c838d016200049b565b965060808b0151915080821115620005d157600080fd5b620005df8c838d016200049b565b955060a08b0151915080821115620005f657600080fd5b620006048c838d016200049b565b945060c08b01519150808211156200061b57600080fd5b506200062a8b828c016200049b565b92505060e089015190509295985092959890939650565b6000602082840312156200065457600080fd5b5051919050565b60008219821115620006715762000671620006d0565b500190565b6000816000190483118215151615620006935762000693620006d0565b500290565b600082821015620006ad57620006ad620006d0565b500390565b6000600019821415620006c957620006c9620006d0565b5060010190565b634e487b7160e01b600052601160045260246000fd5b634e487b7160e01b600052603260045260246000fd5b634e487b7160e01b600052604160045260246000fd5b60805160601c60a05160601c60c05160601c60e0516101005161156e620007a660003960006101f00152600081816102170152818161039e0152610cc00152600081816102880152610f500152600081816101b10152610e8f01526000818161023e015281816107f50152818161097d01528181610a5d01528181610d8d01528181610e620152610f23015261156e6000f3fe608060405234801561001057600080fd5b506004361061011d5760003560e01c8063055ad42e14610122578063083c63231461013e578063097aad10146101475780631959a0021461015a5780632a4e051b1461018f5780632e1a7d4d14610199578063387b9b05146101ac57806339b3e826146101eb57806352bf348c1461021257806352fe618c146102395780635a9477e91461026057806377a968f814610269578063853828b6146102725780638f6629151461027a578063a46074c314610283578063a9f8d181146102aa578063b6b55f25146102b3578063c1027c98146102c6578063ccd34cd51461031b578063e3161ddd14610327578063e683d96f1461032f578063eb7203fe14610338578063fe961f6114610340575b600080fd5b61012b60025481565b6040519081526020015b60405180910390f35b61012b60035481565b61012b61015536600461133a565b610349565b61018161016836600461133a565b600a602052600090815260409020805460019091015482565b60405161013592919061143d565b61019761051a565b005b6101976101a7366004611385565b610664565b6101d37f000000000000000000000000000000000000000000000000000000000000000081565b6040516001600160a01b039091168152602001610135565b61012b7f000000000000000000000000000000000000000000000000000000000000000081565b61012b7f000000000000000000000000000000000000000000000000000000000000000081565b6101d37f000000000000000000000000000000000000000000000000000000000000000081565b61012b60075481565b61012b60055481565b610197610856565b61012b60015481565b6101d37f000000000000000000000000000000000000000000000000000000000000000081565b61012b60045481565b6101976102c1366004611385565b6109d5565b6102fb6102d4366004611385565b60096020526000908152604090208054600182015460028301546003909301549192909184565b604080519485526020850193909352918301526060820152608001610135565b61012b64e8d4a5100081565b610197610b9f565b61012b60065481565b61012b610bcf565b61012b60085481565b60006004544311801561035d575060085415155b156104cb57600061037060045443610c13565b90506000600754826103829190611485565b600354600254919250905b81431180156103c557506103c260017f00000000000000000000000000000000000000000000000000000000000000006114a4565b81105b1561044b57806103d4816114e7565b60008181526009602052604090206001810154600390910154919350915083906103fe908261144b565b93506000844311156104215760008481526009602052604090206003015461042b565b61042b82436114a4565b90506104378382611485565b610441908761144b565b955050505061038d565b60085460009061046064e8d4a5100086611485565b61046a9190611463565b600154610477919061144b565b6001600160a01b0388166000908152600a60205260409020600181015490549192509064e8d4a51000906104ac908490611485565b6104b69190611463565b6104c091906114a4565b979650505050505050565b6001600160a01b0382166000908152600a6020526040902060018082015490549154909164e8d4a51000916105009190611485565b61050a9190611463565b61051491906114a4565b92915050565b600260005414156105465760405162461bcd60e51b815260040161053d90611406565b60405180910390fd5b6002600055610553610c4e565b336000908152600a6020526040812060018082015490549154909164e8d4a510009161057f9190611485565b6105899190611463565b61059391906114a4565b9050806105a0575061065d565b336000908152600a6020526040812080548392906105bf90849061144b565b9250508190555080600860008282546105d8919061144b565b9091555050600154336000908152600a602052604090205464e8d4a510009161060091611485565b61060a9190611463565b336000818152600a6020526040908190206001019290925590517f169f1815ebdea059aac3bb00ec9a9594c7a5ffcb64a17e8392b5d84909a14556906106539084815260200190565b60405180910390a2505b6001600055565b600260005414156106875760405162461bcd60e51b815260040161053d90611406565b60026000908155338152600a602052604090205481118015906106aa5750600081115b6107165760405162461bcd60e51b815260206004820152603760248201527f57697468647261773a20416d6f756e74206d757374206265203e2030206f72206044820152766c6f776572207468616e20757365722062616c616e636560481b606482015260840161053d565b61071e610c4e565b336000908152600a6020526040812060018082015490549154909164e8d4a510009161074a9190611485565b6107549190611463565b61075e91906114a4565b336000908152600a6020526040902054909150829061077e90839061144b565b61078891906114a4565b336000908152600a6020526040902081905560015464e8d4a51000916107ae9190611485565b6107b89190611463565b336000908152600a602052604090206001015560085482906107db90839061144b565b6107e591906114a4565b60085561081c6001600160a01b037f0000000000000000000000000000000000000000000000000000000000000000163384610fe5565b336001600160a01b0316600080516020611519833981519152838360405161084592919061143d565b60405180910390a250506001600055565b600260005414156108795760405162461bcd60e51b815260040161053d90611406565b60026000908155338152600a60205260409020546108d85760405162461bcd60e51b815260206004820152601c60248201527b057697468647261773a20416d6f756e74206d757374206265203e20360241b604482015260640161053d565b6108e0610c4e565b336000908152600a6020526040812060018082015490549154909164e8d4a510009161090c9190611485565b6109169190611463565b61092091906114a4565b336000908152600a60205260408120549192509061093f90839061144b565b336000908152600a602052604090205460085491925061095e916114a4565b600855336000818152600a60205260408120818155600101556109ac907f00000000000000000000000000000000000000000000000000000000000000006001600160a01b03169083610fe5565b336001600160a01b0316600080516020611519833981519152828460405161084592919061143d565b600260005414156109f85760405162461bcd60e51b815260040161053d90611406565b600260005580610a485760405162461bcd60e51b815260206004820152601b60248201527a04465706f7369743a20416d6f756e74206d757374206265203e203602c1b604482015260640161053d565b610a50610c4e565b610a856001600160a01b037f000000000000000000000000000000000000000000000000000000000000000016333084611040565b336000908152600a602052604081205415610add57336000908152600a6020526040902060018082015490549154909164e8d4a5100091610ac69190611485565b610ad09190611463565b610ada91906114a4565b90505b610ae7818361144b565b336000908152600a602052604081208054909190610b0690849061144b565b9091555050600154336000908152600a602052604090205464e8d4a5100091610b2e91611485565b610b389190611463565b336000908152600a6020526040902060010155610b55818361144b565b60086000828254610b66919061144b565b909155505060405133907f90890809c654f11d6e72a28fa60149770a0d11ec6c92319d6ceb2bb0a4ea1a1590610845908590859061143d565b60026000541415610bc25760405162461bcd60e51b815260040161053d90611406565b600260005561065d610c4e565b600060085460036007546301e13380610be89190611485565b610bfa90670de0b6b3a7640000611485565b610c049190611463565b610c0e9190611463565b905090565b60006003548211610c2f57610c2883836114a4565b9050610514565b6003548310610c4057506000610514565b82600354610c2891906114a4565b6004544311610c5957565b600854610c665743600455565b6000610c7460045443610c13565b9050600060055482610c869190611485565b9050600060075483610c989190611485565b9050600060065484610caa9190611485565b90505b60035443118015610ce95750610ce460017f00000000000000000000000000000000000000000000000000000000000000006114a4565b600254105b15610d6d57610cf9600354611078565b600380546002546000908152600960205260408120830154919290610d1e838561144b565b9091555060009050610d308243610c13565b905060075481610d409190611485565b610d4a908561144b565b935060065481610d5a9190611485565b610d64908461144b565b92505050610cad565b8115610fcf576040516340c10f1960e01b81526000906001600160a01b037f000000000000000000000000000000000000000000000000000000000000000016906340c10f1990610dc490309087906004016113ba565b602060405180830381600087803b158015610dde57600080fd5b505af1158015610df2573d6000803e3d6000fd5b505050506040513d601f19601f82011682018060405250810190610e169190611363565b90508015610e4b57600854610e3064e8d4a5100085611485565b610e3a9190611463565b600154610e47919061144b565b6001555b6040516340c10f1960e01b81526001600160a01b037f000000000000000000000000000000000000000000000000000000000000000016906340c10f1990610eb9907f00000000000000000000000000000000000000000000000000000000000000009088906004016113ba565b602060405180830381600087803b158015610ed357600080fd5b505af1158015610ee7573d6000803e3d6000fd5b505050506040513d601f19601f82011682018060405250810190610f0b9190611363565b506040516340c10f1960e01b81526001600160a01b037f000000000000000000000000000000000000000000000000000000000000000016906340c10f1990610f7a907f00000000000000000000000000000000000000000000000000000000000000009086906004016113ba565b602060405180830381600087803b158015610f9457600080fd5b505af1158015610fa8573d6000803e3d6000fd5b505050506040513d601f19601f82011682018060405250810190610fcc9190611363565b50505b60035460045411610fdf57436004555b50505050565b61103b8363a9059cbb60e01b84846040516024016110049291906113ba565b60408051601f198184030181529190526020810180516001600160e01b03166001600160e01b0319909316929092179091526110fe565b505050565b6040516001600160a01b0380851660248301528316604482015260648101829052610fdf9085906323b872dd60e01b90608401611004565b60028054906000611088836114e7565b909155505060028054600081815260096020908152604091829020805460055560018101546007819055940154600681905582518681529182019490945290810192909252907f40181eb77bccfdef1a73b669bb4290d98e2fbec678c7cf4578ae256210420e179060600160405180910390a250565b6000611153826040518060400160405280602081526020017f5361666545524332303a206c6f772d6c6576656c2063616c6c206661696c6564815250856001600160a01b03166111d09092919063ffffffff16565b80519091501561103b57808060200190518101906111719190611363565b61103b5760405162461bcd60e51b815260206004820152602a60248201527f5361666545524332303a204552433230206f7065726174696f6e20646964206e6044820152691bdd081cdd58d8d9595960b21b606482015260840161053d565b60606111df84846000856111e9565b90505b9392505050565b60608247101561124a5760405162461bcd60e51b815260206004820152602660248201527f416464726573733a20696e73756666696369656e742062616c616e636520666f6044820152651c8818d85b1b60d21b606482015260840161053d565b843b6112985760405162461bcd60e51b815260206004820152601d60248201527f416464726573733a2063616c6c20746f206e6f6e2d636f6e7472616374000000604482015260640161053d565b600080866001600160a01b031685876040516112b4919061139e565b60006040518083038185875af1925050503d80600081146112f1576040519150601f19603f3d011682016040523d82523d6000602084013e6112f6565b606091505b50915091506104c0828286606083156113105750816111e2565b8251156113205782518084602001fd5b8160405162461bcd60e51b815260040161053d91906113d3565b60006020828403121561134c57600080fd5b81356001600160a01b03811681146111e257600080fd5b60006020828403121561137557600080fd5b815180151581146111e257600080fd5b60006020828403121561139757600080fd5b5035919050565b600082516113b08184602087016114bb565b9190910192915050565b6001600160a01b03929092168252602082015260400190565b60208152600082518060208401526113f28160408501602087016114bb565b601f01601f19169190910160400192915050565b6020808252601f908201527f5265656e7472616e637947756172643a207265656e7472616e742063616c6c00604082015260600190565b918252602082015260400190565b6000821982111561145e5761145e611502565b500190565b60008261148057634e487b7160e01b600052601260045260246000fd5b500490565b600081600019048311821515161561149f5761149f611502565b500290565b6000828210156114b6576114b6611502565b500390565b60005b838110156114d65781810151838201526020016114be565b83811115610fdf5750506000910152565b60006000198214156114fb576114fb611502565b5060010190565b634e487b7160e01b600052601160045260246000fdfef279e6a1f5e320cca91135676d9cb6e44ca8a08c0b88342bcdb1144f6511b568a2646970667358221220fd2a8e4071f62c164d09b72e189661792dc83f6a79461b33ed17c9fb13577bda64736f6c63430008070033",
  "linkReferences": {},
  "deployedLinkReferences": {}
}