{
  "_format": "hh-sol-artifact-1",
  "contractName": "SesameGame",
  "sourceName": "contracts/SesameGame.sol",
  "abi": [
    {
      "inputs": [
        {
          "internalType": "address",
          "name": "_governance",
          "type": "address"
        },
        {
          "internalType": "address",
          "name": "_rewardToken",
          "type": "address"
        },
        {
          "internalType": "address",
          "name": "_gameToken",
          "type": "address"
        },
        {
          "internalType": "address",
          "name": "_priceFeed",
          "type": "address"
        },
        {
          "internalType": "uint256",
          "name": "_ticketPrice",
          "type": "uint256"
        },
        {
          "internalType": "uint256",
          "name": "_ticketPerRound",
          "type": "uint256"
        },
        {
          "internalType": "uint256",
          "name": "_feePercent",
          "type": "uint256"
        },
        {
          "internalType": "string",
          "name": "_version",
          "type": "string"
        }
      ],
      "stateMutability": "nonpayable",
      "type": "constructor"
    },
    {
      "anonymous": false,
      "inputs": [
        {
          "indexed": true,
          "internalType": "address",
          "name": "player",
          "type": "address"
        },
        {
          "indexed": false,
          "internalType": "uint256",
          "name": "round",
          "type": "uint256"
        },
        {
          "indexed": false,
          "internalType": "uint256",
          "name": "prize",
          "type": "uint256"
        }
      ],
      "name": "DeclareWinner",
      "type": "event"
    },
    {
      "anonymous": false,
      "inputs": [
        {
          "indexed": false,
          "internalType": "uint256",
          "name": "round",
          "type": "uint256"
        }
      ],
      "name": "EndedRound",
      "type": "event"
    },
    {
      "anonymous": false,
      "inputs": [
        {
          "indexed": true,
          "internalType": "address",
          "name": "player",
          "type": "address"
        },
        {
          "indexed": false,
          "internalType": "uint256",
          "name": "round",
          "type": "uint256"
        },
        {
          "indexed": false,
          "internalType": "uint256",
          "name": "tickets",
          "type": "uint256"
        }
      ],
      "name": "EnterTicket",
      "type": "event"
    },
    {
      "anonymous": false,
      "inputs": [
        {
          "indexed": true,
          "internalType": "address",
          "name": "player",
          "type": "address"
        },
        {
          "indexed": false,
          "internalType": "uint256",
          "name": "round",
          "type": "uint256"
        },
        {
          "indexed": false,
          "internalType": "uint256",
          "name": "tickets",
          "type": "uint256"
        }
      ],
      "name": "Refund",
      "type": "event"
    },
    {
      "anonymous": false,
      "inputs": [
        {
          "indexed": false,
          "internalType": "uint256",
          "name": "round",
          "type": "uint256"
        }
      ],
      "name": "StartedRound",
      "type": "event"
    },
    {
      "inputs": [],
      "name": "activate",
      "outputs": [],
      "stateMutability": "nonpayable",
      "type": "function"
    },
    {
      "inputs": [],
      "name": "currentFees",
      "outputs": [
        {
          "internalType": "uint256",
          "name": "",
          "type": "uint256"
        }
      ],
      "stateMutability": "view",
      "type": "function"
    },
    {
      "inputs": [],
      "name": "currentFund",
      "outputs": [
        {
          "internalType": "uint256",
          "name": "",
          "type": "uint256"
        }
      ],
      "stateMutability": "view",
      "type": "function"
    },
    {
      "inputs": [],
      "name": "deactivate",
      "outputs": [],
      "stateMutability": "nonpayable",
      "type": "function"
    },
    {
      "inputs": [
        {
          "internalType": "uint256",
          "name": "ticket",
          "type": "uint256"
        }
      ],
      "name": "enter",
      "outputs": [],
      "stateMutability": "payable",
      "type": "function"
    },
    {
      "inputs": [],
      "name": "feePerTicket",
      "outputs": [
        {
          "internalType": "uint256",
          "name": "",
          "type": "uint256"
        }
      ],
      "stateMutability": "view",
      "type": "function"
    },
    {
      "inputs": [],
      "name": "feePercent",
      "outputs": [
        {
          "internalType": "uint256",
          "name": "",
          "type": "uint256"
        }
      ],
      "stateMutability": "view",
      "type": "function"
    },
    {
      "inputs": [],
      "name": "gameToken",
      "outputs": [
        {
          "internalType": "contract IERC20",
          "name": "",
          "type": "address"
        }
      ],
      "stateMutability": "view",
      "type": "function"
    },
    {
      "inputs": [
        {
          "internalType": "uint256",
          "name": "amount",
          "type": "uint256"
        }
      ],
      "name": "getCredit",
      "outputs": [
        {
          "internalType": "uint256",
          "name": "",
          "type": "uint256"
        }
      ],
      "stateMutability": "view",
      "type": "function"
    },
    {
      "inputs": [],
      "name": "getPriceFeed",
      "outputs": [
        {
          "internalType": "uint256",
          "name": "",
          "type": "uint256"
        }
      ],
      "stateMutability": "view",
      "type": "function"
    },
    {
      "inputs": [],
      "name": "getTicketCount",
      "outputs": [
        {
          "internalType": "uint256",
          "name": "count",
          "type": "uint256"
        }
      ],
      "stateMutability": "view",
      "type": "function"
    },
    {
      "inputs": [
        {
          "internalType": "uint256",
          "name": "_round",
          "type": "uint256"
        },
        {
          "internalType": "address",
          "name": "_player",
          "type": "address"
        }
      ],
      "name": "getUserTicketCount",
      "outputs": [
        {
          "internalType": "uint256",
          "name": "count",
          "type": "uint256"
        }
      ],
      "stateMutability": "view",
      "type": "function"
    },
    {
      "inputs": [],
      "name": "governance",
      "outputs": [
        {
          "internalType": "contract IGovernance",
          "name": "",
          "type": "address"
        }
      ],
      "stateMutability": "view",
      "type": "function"
    },
    {
      "inputs": [],
      "name": "lastRound",
      "outputs": [
        {
          "internalType": "uint256",
          "name": "",
          "type": "uint256"
        }
      ],
      "stateMutability": "view",
      "type": "function"
    },
    {
      "inputs": [],
      "name": "lastWinner",
      "outputs": [
        {
          "internalType": "address",
          "name": "",
          "type": "address"
        }
      ],
      "stateMutability": "view",
      "type": "function"
    },
    {
      "inputs": [],
      "name": "netTicketPrice",
      "outputs": [
        {
          "internalType": "uint256",
          "name": "",
          "type": "uint256"
        }
      ],
      "stateMutability": "view",
      "type": "function"
    },
    {
      "inputs": [
        {
          "internalType": "uint256[]",
          "name": "_rand",
          "type": "uint256[]"
        },
        {
          "internalType": "uint256",
          "name": "_round",
          "type": "uint256"
        }
      ],
      "name": "pickWinner",
      "outputs": [],
      "stateMutability": "nonpayable",
      "type": "function"
    },
    {
      "inputs": [],
      "name": "priceFeed",
      "outputs": [
        {
          "internalType": "contract AggregatorV3Interface",
          "name": "",
          "type": "address"
        }
      ],
      "stateMutability": "view",
      "type": "function"
    },
    {
      "inputs": [],
      "name": "rewardToken",
      "outputs": [
        {
          "internalType": "contract IWBNB",
          "name": "",
          "type": "address"
        }
      ],
      "stateMutability": "view",
      "type": "function"
    },
    {
      "inputs": [],
      "name": "round",
      "outputs": [
        {
          "internalType": "uint256",
          "name": "",
          "type": "uint256"
        }
      ],
      "stateMutability": "view",
      "type": "function"
    },
    {
      "inputs": [
        {
          "internalType": "uint256",
          "name": "",
          "type": "uint256"
        }
      ],
      "name": "state",
      "outputs": [
        {
          "internalType": "enum SesameGame.STATE",
          "name": "",
          "type": "uint8"
        }
      ],
      "stateMutability": "view",
      "type": "function"
    },
    {
      "inputs": [
        {
          "internalType": "uint256",
          "name": "",
          "type": "uint256"
        },
        {
          "internalType": "address",
          "name": "",
          "type": "address"
        }
      ],
      "name": "ticketMap",
      "outputs": [
        {
          "internalType": "uint256",
          "name": "",
          "type": "uint256"
        }
      ],
      "stateMutability": "view",
      "type": "function"
    },
    {
      "inputs": [],
      "name": "ticketPerRound",
      "outputs": [
        {
          "internalType": "uint256",
          "name": "",
          "type": "uint256"
        }
      ],
      "stateMutability": "view",
      "type": "function"
    },
    {
      "inputs": [],
      "name": "ticketPrice",
      "outputs": [
        {
          "internalType": "uint256",
          "name": "",
          "type": "uint256"
        }
      ],
      "stateMutability": "view",
      "type": "function"
    },
    {
      "inputs": [
        {
          "internalType": "uint256",
          "name": "",
          "type": "uint256"
        },
        {
          "internalType": "uint256",
          "name": "",
          "type": "uint256"
        }
      ],
      "name": "tickets",
      "outputs": [
        {
          "internalType": "address",
          "name": "",
          "type": "address"
        }
      ],
      "stateMutability": "view",
      "type": "function"
    },
    {
      "inputs": [],
      "name": "totalFeesCollected",
      "outputs": [
        {
          "internalType": "uint256",
          "name": "",
          "type": "uint256"
        }
      ],
      "stateMutability": "view",
      "type": "function"
    },
    {
      "inputs": [],
      "name": "totalFeesEmitted",
      "outputs": [
        {
          "internalType": "uint256",
          "name": "",
          "type": "uint256"
        }
      ],
      "stateMutability": "view",
      "type": "function"
    },
    {
      "inputs": [],
      "name": "totalFundCollected",
      "outputs": [
        {
          "internalType": "uint256",
          "name": "",
          "type": "uint256"
        }
      ],
      "stateMutability": "view",
      "type": "function"
    },
    {
      "inputs": [],
      "name": "totalFundEmitted",
      "outputs": [
        {
          "internalType": "uint256",
          "name": "",
          "type": "uint256"
        }
      ],
      "stateMutability": "view",
      "type": "function"
    },
    {
      "inputs": [],
      "name": "version",
      "outputs": [
        {
          "internalType": "string",
          "name": "",
          "type": "string"
        }
      ],
      "stateMutability": "view",
      "type": "function"
    },
    {
      "inputs": [
        {
          "internalType": "uint256",
          "name": "",
          "type": "uint256"
        }
      ],
      "name": "winner",
      "outputs": [
        {
          "internalType": "address",
          "name": "",
          "type": "address"
        }
      ],
      "stateMutability": "view",
      "type": "function"
    }
  ],
  "bytecode": "0x6101606040523480156200001257600080fd5b50604051620024dd380380620024dd833981016040819052620000359162000172565b6001805460ff19166001600160a01b03898116908916141790556001600160601b0319606089811b821660805288811b821660c05287811b821660e05286901b1660a0526101008490526101208390526101408290528051620000a090600e906020840190620000af565b5050505050505050506200030d565b828054620000bd90620002ba565b90600052602060002090601f016020900481019282620000e157600085556200012c565b82601f10620000fc57805160ff19168380011785556200012c565b828001600101855582156200012c579182015b828111156200012c5782518255916020019190600101906200010f565b506200013a9291506200013e565b5090565b5b808211156200013a57600081556001016200013f565b80516001600160a01b03811681146200016d57600080fd5b919050565b600080600080600080600080610100898b0312156200019057600080fd5b6200019b8962000155565b97506020620001ac818b0162000155565b9750620001bc60408b0162000155565b9650620001cc60608b0162000155565b60808b015160a08c015160c08d015160e08e0151939950919750955093506001600160401b03808211156200020057600080fd5b818c0191508c601f8301126200021557600080fd5b8151818111156200022a576200022a620002f7565b604051601f8201601f19908116603f01168101908382118183101715620002555762000255620002f7565b816040528281528f868487010111156200026e57600080fd5b600093505b8284101562000292578484018601518185018701529285019262000273565b82841115620002a45760008684830101525b8096505050505050509295985092959890939650565b600181811c90821680620002cf57607f821691505b60208210811415620002f157634e487b7160e01b600052602260045260246000fd5b50919050565b634e487b7160e01b600052604160045260246000fd5b60805160601c60a05160601c60c05160601c60e05160601c6101005161012051610140516120906200044d600039600081816103fa0152610f710152600081816104cf01528181610716015281816107dd015281816108330152818161112a0152818161116e01526115570152600081816101e0015281816107bc01528181610f92015281816112e30152818161134d01526115ce01526000818161051901528181610a7101528181610b3601528181610e0301528181610ea70152818161126701526117a9015260008181610598015281816108bc0152818161093001528181610cc30152610cf30152600081816103c60152610fca015260008181610351015281816105e5015281816106660152818161095f01528181610a9d01528181610bd901528181610c30015281816113e801526118aa01526120906000f3fe6080604052600436106101675760003560e01c8062eb7c5e1461016c5780630f15f4c0146101b75780631209b1f6146101ce578063146ca531146102025780631cbeae5e1461021857806321c63a471461025b57806334ecfbb81461027f5780633e4f49e614610295578063457dd268146102d25780635071cf41146102e857806351b42b001461030857806354fd4d501461031d5780635aa6e6751461033f5780635d9644c41461037357806360c6d8ae1461038957806369cfd9c11461039f578063741bef1a146103b45780637fd6f15c146103e857806382bc07e61461041c57806383ab96f0146104325780639e87a5cd14610475578063a374e43f1461048a578063a59f3e0c146104aa578063b8f5d380146104bd578063be184b5d146104f1578063c3dfdae614610507578063d51bbbdd1461053b578063da304e4d14610551578063e5e078f214610571578063f7c618c114610586578063fe188184146105ba575b600080fd5b34801561017857600080fd5b506101a4610187366004611d70565b600660209081526000928352604080842090915290825290205481565b6040519081526020015b60405180910390f35b3480156101c357600080fd5b506101cc6105da565b005b3480156101da57600080fd5b506101a47f000000000000000000000000000000000000000000000000000000000000000081565b34801561020e57600080fd5b506101a460025481565b34801561022457600080fd5b5061024e610233366004611d3e565b6007602052600090815260409020546001600160a01b031681565b6040516101ae9190611e2e565b34801561026757600080fd5b506002546000908152600560205260409020546101a4565b34801561028b57600080fd5b506101a4600c5481565b3480156102a157600080fd5b506102c56102b0366004611d3e565b60006020819052908152604090205460ff1681565b6040516101ae9190611e5b565b3480156102de57600080fd5b506101a4600b5481565b3480156102f457600080fd5b506101cc610303366004611c52565b610635565b34801561031457600080fd5b506101cc610bce565b34801561032957600080fd5b50610332610eda565b6040516101ae9190611e83565b34801561034b57600080fd5b5061024e7f000000000000000000000000000000000000000000000000000000000000000081565b34801561037f57600080fd5b506101a460085481565b34801561039557600080fd5b506101a4600a5481565b3480156103ab57600080fd5b506101a4610f68565b3480156103c057600080fd5b5061024e7f000000000000000000000000000000000000000000000000000000000000000081565b3480156103f457600080fd5b506101a47f000000000000000000000000000000000000000000000000000000000000000081565b34801561042857600080fd5b506101a460035481565b34801561043e57600080fd5b506101a461044d366004611d70565b60009182526006602090815260408084206001600160a01b0393909316845291905290205490565b34801561048157600080fd5b506101a4610fc5565b34801561049657600080fd5b5061024e6104a5366004611da0565b611076565b6101cc6104b8366004611d3e565b6110ae565b3480156104c957600080fd5b506101a47f000000000000000000000000000000000000000000000000000000000000000081565b3480156104fd57600080fd5b506101a4600d5481565b34801561051357600080fd5b5061024e7f000000000000000000000000000000000000000000000000000000000000000081565b34801561054757600080fd5b506101a460095481565b34801561055d57600080fd5b506101a461056c366004611d3e565b611591565b34801561057d57600080fd5b506101a46115be565b34801561059257600080fd5b5061024e7f000000000000000000000000000000000000000000000000000000000000000081565b3480156105c657600080fd5b5060045461024e906001600160a01b031681565b336001600160a01b037f0000000000000000000000000000000000000000000000000000000000000000161461062b5760405162461bcd60e51b815260040161062290611eb6565b60405180910390fd5b6106336115f2565b565b600260008281526020819052604090205460ff16600281111561065a5761065a612000565b1461066457600080fd5b7f00000000000000000000000000000000000000000000000000000000000000006001600160a01b0316633bedaca26040518163ffffffff1660e01b815260040160206040518083038186803b1580156106bd57600080fd5b505afa1580156106d1573d6000803e3d6000fd5b505050506040513d601f19601f820116820180604052508101906106f59190611c35565b6001600160a01b0316336001600160a01b03161461071257600080fd5b60007f00000000000000000000000000000000000000000000000000000000000000008360008151811061074857610748612016565b602002602001015161075a9190611fc0565b6000838152600560205260408120805492935090918390811061077f5761077f612016565b600091825260208083209091015485835260079091526040822080546001600160a01b0319166001600160a01b03909216918217905591506108017f00000000000000000000000000000000000000000000000000000000000000007f0000000000000000000000000000000000000000000000000000000000000000611f08565b9050600060098190555080600d600082825461081d9190611edc565b909155506000905061082d610f68565b610857907f0000000000000000000000000000000000000000000000000000000000000000611f08565b9050600060088190555080600b60008282546108739190611edc565b909155505060015460ff1615610a64576040516001600160a01b0384169083156108fc029084906000818181858888f193505050501580156108b9573d6000803e3d6000fd5b507f00000000000000000000000000000000000000000000000000000000000000006001600160a01b031663d0e30db0826040518263ffffffff1660e01b81526004016000604051808303818588803b15801561091557600080fd5b505af1158015610929573d6000803e3d6000fd5b50505050507f00000000000000000000000000000000000000000000000000000000000000006001600160a01b031663a9059cbb7f00000000000000000000000000000000000000000000000000000000000000006001600160a01b031663c415b95c6040518163ffffffff1660e01b815260040160206040518083038186803b1580156109b657600080fd5b505afa1580156109ca573d6000803e3d6000fd5b505050506040513d601f19601f820116820180604052508101906109ee9190611c35565b836040518363ffffffff1660e01b8152600401610a0c929190611e42565b602060405180830381600087803b158015610a2657600080fd5b505af1158015610a3a573d6000803e3d6000fd5b505050506040513d601f19601f82011682018060405250810190610a5e9190611d1c565b50610b5d565b610a986001600160a01b037f000000000000000000000000000000000000000000000000000000000000000016848461165b565b610b5d7f00000000000000000000000000000000000000000000000000000000000000006001600160a01b031663c415b95c6040518163ffffffff1660e01b815260040160206040518083038186803b158015610af457600080fd5b505afa158015610b08573d6000803e3d6000fd5b505050506040513d601f19601f82011682018060405250810190610b2c9190611c35565b6001600160a01b037f000000000000000000000000000000000000000000000000000000000000000016908361165b565b600480546001600160a01b0319166001600160a01b0385169081179091556009546040805188815260208101929092527f6fc50effd94306e43c9e48ff5a94ffd13e754f4d7dceaf9803486ab81a5d6b71910160405180910390a26003859055610bc6856116b1565b505050505050565b336001600160a01b037f00000000000000000000000000000000000000000000000000000000000000001614610c165760405162461bcd60e51b815260040161062290611eb6565b610c216002546116c9565b610c2c6002546116b1565b60007f00000000000000000000000000000000000000000000000000000000000000006001600160a01b031663c415b95c6040518163ffffffff1660e01b815260040160206040518083038186803b158015610c8757600080fd5b505afa158015610c9b573d6000803e3d6000fd5b505050506040513d601f19601f82011682018060405250810190610cbf9190611c35565b90507f00000000000000000000000000000000000000000000000000000000000000006001600160a01b031663a9059cbb827f00000000000000000000000000000000000000000000000000000000000000006001600160a01b03166370a08231306040518263ffffffff1660e01b8152600401610d3d9190611e2e565b60206040518083038186803b158015610d5557600080fd5b505afa158015610d69573d6000803e3d6000fd5b505050506040513d601f19601f82011682018060405250810190610d8d9190611d57565b6040518363ffffffff1660e01b8152600401610daa929190611e42565b602060405180830381600087803b158015610dc457600080fd5b505af1158015610dd8573d6000803e3d6000fd5b505050506040513d601f19601f82011682018060405250810190610dfc9190611d1c565b50610ece817f00000000000000000000000000000000000000000000000000000000000000006001600160a01b03166370a08231306040518263ffffffff1660e01b8152600401610e4d9190611e2e565b60206040518083038186803b158015610e6557600080fd5b505afa158015610e79573d6000803e3d6000fd5b505050506040513d601f19601f82011682018060405250810190610e9d9190611d57565b6001600160a01b037f000000000000000000000000000000000000000000000000000000000000000016919061165b565b806001600160a01b0316ff5b600e8054610ee790611f6a565b80601f0160208091040260200160405190810160405280929190818152602001828054610f1390611f6a565b8015610f605780601f10610f3557610100808354040283529160200191610f60565b820191906000526020600020905b815481529060010190602001808311610f4357829003601f168201915b505050505081565b60006064610fb67f00000000000000000000000000000000000000000000000000000000000000007f0000000000000000000000000000000000000000000000000000000000000000611f08565b610fc09190611ef4565b905090565b6000807f00000000000000000000000000000000000000000000000000000000000000006001600160a01b031663feaf968c6040518163ffffffff1660e01b815260040160a06040518083038186803b15801561102157600080fd5b505afa158015611035573d6000803e3d6000fd5b505050506040513d601f19601f820116820180604052508101906110599190611dc2565b505050915050806402540be4006110709190611f08565b91505090565b6005602052816000526040600020818154811061109257600080fd5b6000918252602090912001546001600160a01b03169150829050565b60016002805460009081526020819052604090205460ff16908111156110d6576110d6612000565b146110e057600080fd5b60015460ff16156111165760015460ff16801561110d57506111006115be565b61110a9082611f08565b34145b61111657600080fd5b6002546000908152600560205260409020547f0000000000000000000000000000000000000000000000000000000000000000906111549083611edc565b111561123c576002546000908152600560205260408120547f0000000000000000000000000000000000000000000000000000000000000000906111989084611edc565b6111a29190611f27565b60015490915060ff161561122e57336108fc6111bc6115be565b6111c69084611f08565b6040518115909202916000818181858888f193505050501580156111ee573d6000803e3d6000fd5b50600254604080519182526020820183905233917f73f04af9dcc582a923ec15d3eea990fe34adabfff2879e28d44572e01a54abb6910160405180910390a25b6112388183611f27565b9150505b60015460ff1661128f5761128f33306112536115be565b61125d9085611f08565b6001600160a01b037f00000000000000000000000000000000000000000000000000000000000000001692919061184a565b60005b818110156112dd5760025460009081526005602090815260408220805460018101825590835291200180546001600160a01b03191633179055806112d581611fa5565b915050611292565b506113087f000000000000000000000000000000000000000000000000000000000000000082611f08565b600960008282546113199190611edc565b909155506113279050610f68565b6113319082611f08565b600860008282546113429190611edc565b9091555061137290507f000000000000000000000000000000000000000000000000000000000000000082611f08565b600c60008282546113839190611edc565b909155506113919050610f68565b61139b9082611f08565b600a60008282546113ac9190611edc565b90915550506002546000908152600660209081526040808320338452909152812080548392906113dd908490611edc565b9250508190555060007f00000000000000000000000000000000000000000000000000000000000000006001600160a01b0316634fb3ccc56040518163ffffffff1660e01b815260040160206040518083038186803b15801561143f57600080fd5b505afa158015611453573d6000803e3d6000fd5b505050506040513d601f19601f820116820180604052508101906114779190611c35565b905060006114906114866115be565b61056c9085611f08565b6002546040516375dbb8c960e01b8152336004820152602481018390526044810191909152606481018590529091506001600160a01b038316906375dbb8c990608401600060405180830381600087803b1580156114ed57600080fd5b505af1158015611501573d6000803e3d6000fd5b505060025460408051918252602082018790523393507fafae5042b7c47abc99ba2ed5eb6f29027888c2765bbf9c479a5ef03683a489b192500160405180910390a26002546000908152600560205260409020547f0000000000000000000000000000000000000000000000000000000000000000141561158c57611584611888565b61158c6115f2565b505050565b6000670de0b6b3a76400006115a4610fc5565b6115ae9084611f08565b6115b89190611ef4565b92915050565b60006115c8610f68565b610fc0907f0000000000000000000000000000000000000000000000000000000000000000611edc565b6002805490600061160283611fa5565b90915550506002805460009081526020818152604091829020805460ff19166001179055915490519081527f0ab582f1afc29efbd503feb5b4a945175eee54010e1be75f88d3e0a865f1631f91015b60405180910390a1565b61158c8363a9059cbb60e01b848460405160240161167a929190611e42565b60408051601f198184030181529190526020810180516001600160e01b03166001600160e01b0319909316929092179091526119cd565b6000908152602081905260409020805460ff19169055565b60005b60008281526005602052604090205481101561180957600082815260056020526040812080548390811061170257611702612016565b60009182526020822001546001600160a01b031691506117206115be565b60008581526006602090815260408083206001600160a01b038716845290915290205461174d9190611f08565b905080156117f45760015460ff161561179c576040516001600160a01b0383169082156108fc029083906000818181858888f19350505050158015611796573d6000803e3d6000fd5b506117d0565b6117d06001600160a01b037f000000000000000000000000000000000000000000000000000000000000000016838361165b565b60008481526006602090815260408083206001600160a01b03861684529091528120555b5050808061180190611fa5565b9150506116cc565b50600854600a600082825461181e9190611f27565b9091555050600954600c8054600090611838908490611f27565b90915550506000600881905560095550565b6040516001600160a01b03808516602483015283166044820152606481018290526118829085906323b872dd60e01b9060840161167a565b50505050565b600280546000908152602081905260409020805460ff191660018302179055507f00000000000000000000000000000000000000000000000000000000000000006001600160a01b0316633bedaca26040518163ffffffff1660e01b815260040160206040518083038186803b15801561190157600080fd5b505afa158015611915573d6000803e3d6000fd5b505050506040513d601f19601f820116820180604052508101906119399190611c35565b6001600160a01b031663b1eb96c96002546040518263ffffffff1660e01b815260040161196891815260200190565b600060405180830381600087803b15801561198257600080fd5b505af1158015611996573d6000803e3d6000fd5b505050507f8cc775ebbee0cce2baccb0a0121cb5794418a52d6edac0ea16c407d241109fd060025460405161165191815260200190565b6000611a22826040518060400160405280602081526020017f5361666545524332303a206c6f772d6c6576656c2063616c6c206661696c6564815250856001600160a01b0316611a9f9092919063ffffffff16565b80519091501561158c5780806020019051810190611a409190611d1c565b61158c5760405162461bcd60e51b815260206004820152602a60248201527f5361666545524332303a204552433230206f7065726174696f6e20646964206e6044820152691bdd081cdd58d8d9595960b21b6064820152608401610622565b6060611aae8484600085611ab8565b90505b9392505050565b606082471015611b195760405162461bcd60e51b815260206004820152602660248201527f416464726573733a20696e73756666696369656e742062616c616e636520666f6044820152651c8818d85b1b60d21b6064820152608401610622565b843b611b675760405162461bcd60e51b815260206004820152601d60248201527f416464726573733a2063616c6c20746f206e6f6e2d636f6e74726163740000006044820152606401610622565b600080866001600160a01b03168587604051611b839190611e12565b60006040518083038185875af1925050503d8060008114611bc0576040519150601f19603f3d011682016040523d82523d6000602084013e611bc5565b606091505b5091509150611bd5828286611be0565b979650505050505050565b60608315611bef575081611ab1565b825115611bff5782518084602001fd5b8160405162461bcd60e51b81526004016106229190611e83565b80516001600160501b0381168114611c3057600080fd5b919050565b600060208284031215611c4757600080fd5b8151611ab181612042565b60008060408385031215611c6557600080fd5b82356001600160401b0380821115611c7c57600080fd5b818501915085601f830112611c9057600080fd5b8135602082821115611ca457611ca461202c565b8160051b604051601f19603f83011681018181108682111715611cc957611cc961202c565b604052838152828101945085830182870184018b1015611ce857600080fd5b600096505b84871015611d0b578035865260019690960195948301948301611ced565b509997909101359750505050505050565b600060208284031215611d2e57600080fd5b81518015158114611ab157600080fd5b600060208284031215611d5057600080fd5b5035919050565b600060208284031215611d6957600080fd5b5051919050565b60008060408385031215611d8357600080fd5b823591506020830135611d9581612042565b809150509250929050565b60008060408385031215611db357600080fd5b50508035926020909101359150565b600080600080600060a08688031215611dda57600080fd5b611de386611c19565b9450602086015193506040860151925060608601519150611e0660808701611c19565b90509295509295909350565b60008251611e24818460208701611f3e565b9190910192915050565b6001600160a01b0391909116815260200190565b6001600160a01b03929092168252602082015260400190565b6020810160038310611e7d57634e487b7160e01b600052602160045260246000fd5b91905290565b6020815260008251806020840152611ea2816040850160208701611f3e565b601f01601f19169190910160400192915050565b6020808252600c908201526b155b985d5d1a1bdc9a5e995960a21b604082015260600190565b60008219821115611eef57611eef611fd4565b500190565b600082611f0357611f03611fea565b500490565b6000816000190483118215151615611f2257611f22611fd4565b500290565b600082821015611f3957611f39611fd4565b500390565b60005b83811015611f59578181015183820152602001611f41565b838111156118825750506000910152565b600181811c90821680611f7e57607f821691505b60208210811415611f9f57634e487b7160e01b600052602260045260246000fd5b50919050565b6000600019821415611fb957611fb9611fd4565b5060010190565b600082611fcf57611fcf611fea565b500690565b634e487b7160e01b600052601160045260246000fd5b634e487b7160e01b600052601260045260246000fd5b634e487b7160e01b600052602160045260246000fd5b634e487b7160e01b600052603260045260246000fd5b634e487b7160e01b600052604160045260246000fd5b6001600160a01b038116811461205757600080fd5b5056fea2646970667358221220871e2ccd267b2e4d623346bc321a6848261ed21f9131cb5e94be236f33edf74164736f6c63430008070033",
  "linkReferences": {},
  "deployedLinkReferences": {}
}