{
  "_format": "hh-sol-artifact-1",
  "contractName": "SesameGame",
  "sourceName": "contracts/SesameGame.sol",
  "abi": [
    {
      "inputs": [
        {
          "internalType": "address",
          "name": "_governance",
          "type": "address"
        },
        {
          "internalType": "address",
          "name": "_rewardToken",
          "type": "address"
        },
        {
          "internalType": "address",
          "name": "_gameToken",
          "type": "address"
        },
        {
          "internalType": "address",
          "name": "_priceFeed",
          "type": "address"
        },
        {
          "internalType": "address",
          "name": "_distributor",
          "type": "address"
        },
        {
          "internalType": "uint256",
          "name": "_ticketPrice",
          "type": "uint256"
        },
        {
          "internalType": "uint256",
          "name": "_ticketPerRound",
          "type": "uint256"
        },
        {
          "internalType": "string",
          "name": "_version",
          "type": "string"
        }
      ],
      "stateMutability": "nonpayable",
      "type": "constructor"
    },
    {
      "anonymous": false,
      "inputs": [
        {
          "indexed": true,
          "internalType": "address",
          "name": "player",
          "type": "address"
        },
        {
          "indexed": false,
          "internalType": "uint256",
          "name": "round",
          "type": "uint256"
        },
        {
          "indexed": false,
          "internalType": "uint256",
          "name": "prize",
          "type": "uint256"
        }
      ],
      "name": "DeclareWinner",
      "type": "event"
    },
    {
      "anonymous": false,
      "inputs": [
        {
          "indexed": false,
          "internalType": "uint256",
          "name": "round",
          "type": "uint256"
        }
      ],
      "name": "EndedRound",
      "type": "event"
    },
    {
      "anonymous": false,
      "inputs": [
        {
          "indexed": true,
          "internalType": "address",
          "name": "player",
          "type": "address"
        },
        {
          "indexed": false,
          "internalType": "uint256",
          "name": "round",
          "type": "uint256"
        },
        {
          "indexed": false,
          "internalType": "uint256",
          "name": "tickets",
          "type": "uint256"
        }
      ],
      "name": "EnterTicket",
      "type": "event"
    },
    {
      "anonymous": false,
      "inputs": [
        {
          "indexed": true,
          "internalType": "address",
          "name": "player",
          "type": "address"
        },
        {
          "indexed": false,
          "internalType": "uint256",
          "name": "round",
          "type": "uint256"
        },
        {
          "indexed": false,
          "internalType": "uint256",
          "name": "tickets",
          "type": "uint256"
        }
      ],
      "name": "Refund",
      "type": "event"
    },
    {
      "anonymous": false,
      "inputs": [
        {
          "indexed": false,
          "internalType": "uint256",
          "name": "round",
          "type": "uint256"
        }
      ],
      "name": "StartedRound",
      "type": "event"
    },
    {
      "inputs": [],
      "name": "accountant",
      "outputs": [
        {
          "internalType": "contract IAccountant",
          "name": "",
          "type": "address"
        }
      ],
      "stateMutability": "view",
      "type": "function"
    },
    {
      "inputs": [],
      "name": "activate",
      "outputs": [],
      "stateMutability": "nonpayable",
      "type": "function"
    },
    {
      "inputs": [],
      "name": "collector",
      "outputs": [
        {
          "internalType": "address payable",
          "name": "",
          "type": "address"
        }
      ],
      "stateMutability": "view",
      "type": "function"
    },
    {
      "inputs": [],
      "name": "currentFees",
      "outputs": [
        {
          "internalType": "uint256",
          "name": "",
          "type": "uint256"
        }
      ],
      "stateMutability": "view",
      "type": "function"
    },
    {
      "inputs": [],
      "name": "currentFund",
      "outputs": [
        {
          "internalType": "uint256",
          "name": "",
          "type": "uint256"
        }
      ],
      "stateMutability": "view",
      "type": "function"
    },
    {
      "inputs": [],
      "name": "deactivate",
      "outputs": [],
      "stateMutability": "nonpayable",
      "type": "function"
    },
    {
      "inputs": [],
      "name": "distributor",
      "outputs": [
        {
          "internalType": "contract ITokenDistributor",
          "name": "",
          "type": "address"
        }
      ],
      "stateMutability": "view",
      "type": "function"
    },
    {
      "inputs": [
        {
          "internalType": "uint256",
          "name": "ticket",
          "type": "uint256"
        }
      ],
      "name": "enter",
      "outputs": [],
      "stateMutability": "payable",
      "type": "function"
    },
    {
      "inputs": [],
      "name": "feePerTicket",
      "outputs": [
        {
          "internalType": "uint256",
          "name": "",
          "type": "uint256"
        }
      ],
      "stateMutability": "view",
      "type": "function"
    },
    {
      "inputs": [],
      "name": "feePercent",
      "outputs": [
        {
          "internalType": "uint256",
          "name": "",
          "type": "uint256"
        }
      ],
      "stateMutability": "view",
      "type": "function"
    },
    {
      "inputs": [],
      "name": "gameToken",
      "outputs": [
        {
          "internalType": "contract IERC20",
          "name": "",
          "type": "address"
        }
      ],
      "stateMutability": "view",
      "type": "function"
    },
    {
      "inputs": [
        {
          "internalType": "uint256",
          "name": "amount",
          "type": "uint256"
        }
      ],
      "name": "getCredit",
      "outputs": [
        {
          "internalType": "uint256",
          "name": "",
          "type": "uint256"
        }
      ],
      "stateMutability": "view",
      "type": "function"
    },
    {
      "inputs": [],
      "name": "getPriceFeed",
      "outputs": [
        {
          "internalType": "uint256",
          "name": "",
          "type": "uint256"
        }
      ],
      "stateMutability": "view",
      "type": "function"
    },
    {
      "inputs": [],
      "name": "getTicketCount",
      "outputs": [
        {
          "internalType": "uint256",
          "name": "count",
          "type": "uint256"
        }
      ],
      "stateMutability": "view",
      "type": "function"
    },
    {
      "inputs": [
        {
          "internalType": "uint256",
          "name": "_round",
          "type": "uint256"
        },
        {
          "internalType": "address",
          "name": "_player",
          "type": "address"
        }
      ],
      "name": "getUserTicketCount",
      "outputs": [
        {
          "internalType": "uint256",
          "name": "count",
          "type": "uint256"
        }
      ],
      "stateMutability": "view",
      "type": "function"
    },
    {
      "inputs": [],
      "name": "governance",
      "outputs": [
        {
          "internalType": "contract IGovernance",
          "name": "",
          "type": "address"
        }
      ],
      "stateMutability": "view",
      "type": "function"
    },
    {
      "inputs": [],
      "name": "lastRound",
      "outputs": [
        {
          "internalType": "uint256",
          "name": "",
          "type": "uint256"
        }
      ],
      "stateMutability": "view",
      "type": "function"
    },
    {
      "inputs": [],
      "name": "lastWinner",
      "outputs": [
        {
          "internalType": "address",
          "name": "",
          "type": "address"
        }
      ],
      "stateMutability": "view",
      "type": "function"
    },
    {
      "inputs": [],
      "name": "netTicketPrice",
      "outputs": [
        {
          "internalType": "uint256",
          "name": "",
          "type": "uint256"
        }
      ],
      "stateMutability": "view",
      "type": "function"
    },
    {
      "inputs": [
        {
          "internalType": "uint256[]",
          "name": "_rand",
          "type": "uint256[]"
        },
        {
          "internalType": "uint256",
          "name": "_round",
          "type": "uint256"
        }
      ],
      "name": "pickWinner",
      "outputs": [],
      "stateMutability": "nonpayable",
      "type": "function"
    },
    {
      "inputs": [],
      "name": "priceFeed",
      "outputs": [
        {
          "internalType": "contract AggregatorV3Interface",
          "name": "",
          "type": "address"
        }
      ],
      "stateMutability": "view",
      "type": "function"
    },
    {
      "inputs": [],
      "name": "rewardToken",
      "outputs": [
        {
          "internalType": "contract IWBNB",
          "name": "",
          "type": "address"
        }
      ],
      "stateMutability": "view",
      "type": "function"
    },
    {
      "inputs": [],
      "name": "rng",
      "outputs": [
        {
          "internalType": "contract IRandomNumberGenerator",
          "name": "",
          "type": "address"
        }
      ],
      "stateMutability": "view",
      "type": "function"
    },
    {
      "inputs": [],
      "name": "round",
      "outputs": [
        {
          "internalType": "uint256",
          "name": "",
          "type": "uint256"
        }
      ],
      "stateMutability": "view",
      "type": "function"
    },
    {
      "inputs": [
        {
          "internalType": "uint256",
          "name": "",
          "type": "uint256"
        }
      ],
      "name": "state",
      "outputs": [
        {
          "internalType": "enum SesameGame.STATE",
          "name": "",
          "type": "uint8"
        }
      ],
      "stateMutability": "view",
      "type": "function"
    },
    {
      "inputs": [
        {
          "internalType": "uint256",
          "name": "",
          "type": "uint256"
        },
        {
          "internalType": "address",
          "name": "",
          "type": "address"
        }
      ],
      "name": "ticketMap",
      "outputs": [
        {
          "internalType": "uint256",
          "name": "",
          "type": "uint256"
        }
      ],
      "stateMutability": "view",
      "type": "function"
    },
    {
      "inputs": [],
      "name": "ticketPerRound",
      "outputs": [
        {
          "internalType": "uint256",
          "name": "",
          "type": "uint256"
        }
      ],
      "stateMutability": "view",
      "type": "function"
    },
    {
      "inputs": [],
      "name": "ticketPrice",
      "outputs": [
        {
          "internalType": "uint256",
          "name": "",
          "type": "uint256"
        }
      ],
      "stateMutability": "view",
      "type": "function"
    },
    {
      "inputs": [
        {
          "internalType": "uint256",
          "name": "",
          "type": "uint256"
        },
        {
          "internalType": "uint256",
          "name": "",
          "type": "uint256"
        }
      ],
      "name": "tickets",
      "outputs": [
        {
          "internalType": "address",
          "name": "",
          "type": "address"
        }
      ],
      "stateMutability": "view",
      "type": "function"
    },
    {
      "inputs": [],
      "name": "totalFeesCollected",
      "outputs": [
        {
          "internalType": "uint256",
          "name": "",
          "type": "uint256"
        }
      ],
      "stateMutability": "view",
      "type": "function"
    },
    {
      "inputs": [],
      "name": "totalFeesEmitted",
      "outputs": [
        {
          "internalType": "uint256",
          "name": "",
          "type": "uint256"
        }
      ],
      "stateMutability": "view",
      "type": "function"
    },
    {
      "inputs": [],
      "name": "totalFundCollected",
      "outputs": [
        {
          "internalType": "uint256",
          "name": "",
          "type": "uint256"
        }
      ],
      "stateMutability": "view",
      "type": "function"
    },
    {
      "inputs": [],
      "name": "totalFundEmitted",
      "outputs": [
        {
          "internalType": "uint256",
          "name": "",
          "type": "uint256"
        }
      ],
      "stateMutability": "view",
      "type": "function"
    },
    {
      "inputs": [],
      "name": "version",
      "outputs": [
        {
          "internalType": "string",
          "name": "",
          "type": "string"
        }
      ],
      "stateMutability": "view",
      "type": "function"
    },
    {
      "inputs": [
        {
          "internalType": "uint256",
          "name": "",
          "type": "uint256"
        }
      ],
      "name": "winner",
      "outputs": [
        {
          "internalType": "address",
          "name": "",
          "type": "address"
        }
      ],
      "stateMutability": "view",
      "type": "function"
    }
  ],
  "bytecode": "0x6101e060405260056101c0523480156200001857600080fd5b506040516200279e3803806200279e8339810160408190526200003b9162000356565b6001600055600280546001600160a01b0319166001600160a01b038a1690811790915560408051631df6d65160e11b81529051633bedaca291600480820192602092909190829003018186803b1580156200009557600080fd5b505afa158015620000aa573d6000803e3d6000fd5b505050506040513d601f19601f82011682018060405250810190620000d0919062000331565b60601b6001600160601b03191660805260025460408051634fb3ccc560e01b815290516001600160a01b0390921691634fb3ccc591600480820192602092909190829003018186803b1580156200012657600080fd5b505afa1580156200013b573d6000803e3d6000fd5b505050506040513d601f19601f8201168201806040525081019062000161919062000331565b60601b6001600160601b03191660a052600254604080516331056e5760e21b815290516001600160a01b039092169163c415b95c91600480820192602092909190829003018186803b158015620001b757600080fd5b505afa158015620001cc573d6000803e3d6000fd5b505050506040513d601f19601f82011682018060405250810190620001f2919062000331565b6001600160601b0319606091821b8116610140526001600160a01b038981169089161460f81b6101605288821b81166101005287821b81166101205286821b811660e0529085901b1660c0526101808390526101a082905280516200025f90600f9060208401906200026e565b505050505050505050620004fa565b8280546200027c90620004a7565b90600052602060002090601f016020900481019282620002a05760008555620002eb565b82601f10620002bb57805160ff1916838001178555620002eb565b82800160010185558215620002eb579182015b82811115620002eb578251825591602001919060010190620002ce565b50620002f9929150620002fd565b5090565b5b80821115620002f95760008155600101620002fe565b80516001600160a01b03811681146200032c57600080fd5b919050565b6000602082840312156200034457600080fd5b6200034f8262000314565b9392505050565b600080600080600080600080610100898b0312156200037457600080fd5b6200037f8962000314565b9750602062000390818b0162000314565b9750620003a060408b0162000314565b9650620003b060608b0162000314565b9550620003c060808b0162000314565b60a08b015160c08c015160e08d015192975090955093506001600160401b0380821115620003ed57600080fd5b818c0191508c601f8301126200040257600080fd5b815181811115620004175762000417620004e4565b604051601f8201601f19908116603f01168101908382118183101715620004425762000442620004e4565b816040528281528f868487010111156200045b57600080fd5b600093505b828410156200047f578484018601518185018701529285019262000460565b82841115620004915760008684830101525b8096505050505050509295985092959890939650565b600181811c90821680620004bc57607f821691505b60208210811415620004de57634e487b7160e01b600052602260045260246000fd5b50919050565b634e487b7160e01b600052604160045260246000fd5b60805160601c60a05160601c60c05160601c60e05160601c6101005160601c6101205160601c6101405160601c6101605160f81c610180516101a0516101c0516121106200068e600039600081816104460152610fa601526000818161054f015281816107b201528181610879015281816108cf015281816111d70152818161121b01526115c301526000818161020c0152818161085801528181610fc7015281816113c50152818161142f015261163e015260008181610916015281816111520152818161125f0152818161130501526118210152600081816104d301528181610a2901528181610b0e01528181610cfc01528181610df70152610ee50152600081816105cd01528181610ab801528181610aec01528181610e1801528181610ebc01528181611349015261188e01526000818161068001528181610973015281816109f90152610cd30152600081816104120152610fff0152600081816105990152610b9e015260008181610326015261150d0152600081816106170152818161070a015261198e01526121106000f3fe6080604052600436106101935760003560e01c8062eb7c5e146101985780630f15f4c0146101e35780631209b1f6146101fa578063146ca5311461022e5780631cbeae5e1461024457806321c63a471461028757806334ecfbb8146102ab5780633e4f49e6146102c1578063457dd268146102fe5780634fb3ccc5146103145780635071cf411461034857806351b42b001461036857806354fd4d501461037d5780635aa6e6751461039f5780635d9644c4146103bf57806360c6d8ae146103d557806369cfd9c1146103eb578063741bef1a146104005780637fd6f15c1461043457806382bc07e61461046857806383ab96f01461047e578063913e77ad146104c15780639e87a5cd146104f5578063a374e43f1461050a578063a59f3e0c1461052a578063b8f5d3801461053d578063be184b5d14610571578063bfe1092814610587578063c3dfdae6146105bb578063d51bbbdd146105ef578063d605787b14610605578063da304e4d14610639578063e5e078f214610659578063f7c618c11461066e578063fe188184146106a2575b600080fd5b3480156101a457600080fd5b506101d06101b3366004611da3565b600760209081526000928352604080842090915290825290205481565b6040519081526020015b60405180910390f35b3480156101ef57600080fd5b506101f86106c2565b005b34801561020657600080fd5b506101d07f000000000000000000000000000000000000000000000000000000000000000081565b34801561023a57600080fd5b506101d060035481565b34801561025057600080fd5b5061027a61025f366004611d71565b6008602052600090815260409020546001600160a01b031681565b6040516101da9190611e6d565b34801561029357600080fd5b506003546000908152600660205260409020546101d0565b3480156102b757600080fd5b506101d0600d5481565b3480156102cd57600080fd5b506102f16102dc366004611d71565b60016020526000908152604090205460ff1681565b6040516101da9190611e9a565b34801561030a57600080fd5b506101d0600c5481565b34801561032057600080fd5b5061027a7f000000000000000000000000000000000000000000000000000000000000000081565b34801561035457600080fd5b506101f8610363366004611c85565b6106ff565b34801561037457600080fd5b506101f8610c1c565b34801561038957600080fd5b50610392610f0f565b6040516101da9190611ec2565b3480156103ab57600080fd5b5060025461027a906001600160a01b031681565b3480156103cb57600080fd5b506101d060095481565b3480156103e157600080fd5b506101d0600b5481565b3480156103f757600080fd5b506101d0610f9d565b34801561040c57600080fd5b5061027a7f000000000000000000000000000000000000000000000000000000000000000081565b34801561044057600080fd5b506101d07f000000000000000000000000000000000000000000000000000000000000000081565b34801561047457600080fd5b506101d060045481565b34801561048a57600080fd5b506101d0610499366004611da3565b60009182526007602090815260408084206001600160a01b0393909316845291905290205490565b3480156104cd57600080fd5b5061027a7f000000000000000000000000000000000000000000000000000000000000000081565b34801561050157600080fd5b506101d0610ffa565b34801561051657600080fd5b5061027a610525366004611ddf565b6110ab565b6101f8610538366004611d71565b6110e3565b34801561054957600080fd5b506101d07f000000000000000000000000000000000000000000000000000000000000000081565b34801561057d57600080fd5b506101d0600e5481565b34801561059357600080fd5b5061027a7f000000000000000000000000000000000000000000000000000000000000000081565b3480156105c757600080fd5b5061027a7f000000000000000000000000000000000000000000000000000000000000000081565b3480156105fb57600080fd5b506101d0600a5481565b34801561061157600080fd5b5061027a7f000000000000000000000000000000000000000000000000000000000000000081565b34801561064557600080fd5b506101d0610654366004611d71565b611601565b34801561066557600080fd5b506101d061162e565b34801561067a57600080fd5b5061027a7f000000000000000000000000000000000000000000000000000000000000000081565b3480156106ae57600080fd5b5060055461027a906001600160a01b031681565b6002546001600160a01b031633146106f55760405162461bcd60e51b81526004016106ec90611ef5565b60405180910390fd5b6106fd611662565b565b336001600160a01b037f000000000000000000000000000000000000000000000000000000000000000016146107475760405162461bcd60e51b81526004016106ec90611ef5565b6002600054141561076a5760405162461bcd60e51b81526004016106ec90611f3d565b600260008181558281526001602052604090205460ff168181111561079157610791612098565b146107ae5760405162461bcd60e51b81526004016106ec90611f1b565b60007f0000000000000000000000000000000000000000000000000000000000000000836000815181106107e4576107e46120ae565b60200260200101516107f69190612058565b6000838152600660205260408120805492935090918390811061081b5761081b6120ae565b600091825260208083209091015485835260089091526040822080546001600160a01b0319166001600160a01b039092169182179055915061089d7f00000000000000000000000000000000000000000000000000000000000000007f0000000000000000000000000000000000000000000000000000000000000000611fa0565b90506000600a8190555080600e60008282546108b99190611f74565b90915550600090506108c9610f9d565b6108f3907f0000000000000000000000000000000000000000000000000000000000000000611fa0565b9050600060098190555080600c600082825461090f9190611f74565b90915550507f000000000000000000000000000000000000000000000000000000000000000015610aab576040516001600160a01b0384169083156108fc029084906000818181858888f19350505050158015610970573d6000803e3d6000fd5b507f00000000000000000000000000000000000000000000000000000000000000006001600160a01b031663d0e30db0826040518263ffffffff1660e01b81526004016000604051808303818588803b1580156109cc57600080fd5b505af11580156109e0573d6000803e3d6000fd5b505060405163a9059cbb60e01b81526001600160a01b037f000000000000000000000000000000000000000000000000000000000000000016935063a9059cbb9250610a5391507f0000000000000000000000000000000000000000000000000000000000000000908590600401611e81565b602060405180830381600087803b158015610a6d57600080fd5b505af1158015610a81573d6000803e3d6000fd5b505050506040513d601f19601f82011682018060405250810190610aa59190611d4f565b50610b33565b610adf6001600160a01b037f00000000000000000000000000000000000000000000000000000000000000001684846116d5565b610b336001600160a01b037f0000000000000000000000000000000000000000000000000000000000000000167f0000000000000000000000000000000000000000000000000000000000000000836116d5565b600580546001600160a01b0319166001600160a01b038516908117909155600a546040805188815260208101929092527f6fc50effd94306e43c9e48ff5a94ffd13e754f4d7dceaf9803486ab81a5d6b71910160405180910390a26004859055610b9c85611730565b7f00000000000000000000000000000000000000000000000000000000000000006001600160a01b031663e3161ddd6040518163ffffffff1660e01b8152600401600060405180830381600087803b158015610bf757600080fd5b505af1158015610c0b573d6000803e3d6000fd5b505060016000555050505050505050565b6002546001600160a01b03163314610c465760405162461bcd60e51b81526004016106ec90611ef5565b600260035460009081526001602052604090205460ff166002811115610c6e57610c6e612098565b1415610ca65760405162461bcd60e51b815260206004820152600760248201526650454e44494e4760c81b60448201526064016106ec565b610cb1600354611748565b610cbc600354611730565b6040516370a0823160e01b81526001600160a01b037f0000000000000000000000000000000000000000000000000000000000000000169063a9059cbb907f00000000000000000000000000000000000000000000000000000000000000009083906370a0823190610d32903090600401611e6d565b60206040518083038186803b158015610d4a57600080fd5b505afa158015610d5e573d6000803e3d6000fd5b505050506040513d601f19601f82011682018060405250810190610d829190611d8a565b6040518363ffffffff1660e01b8152600401610d9f929190611e81565b602060405180830381600087803b158015610db957600080fd5b505af1158015610dcd573d6000803e3d6000fd5b505050506040513d601f19601f82011682018060405250810190610df19190611d4f565b50610ee37f00000000000000000000000000000000000000000000000000000000000000007f00000000000000000000000000000000000000000000000000000000000000006001600160a01b03166370a08231306040518263ffffffff1660e01b8152600401610e629190611e6d565b60206040518083038186803b158015610e7a57600080fd5b505afa158015610e8e573d6000803e3d6000fd5b505050506040513d601f19601f82011682018060405250810190610eb29190611d8a565b6001600160a01b037f00000000000000000000000000000000000000000000000000000000000000001691906116d5565b7f00000000000000000000000000000000000000000000000000000000000000006001600160a01b0316ff5b600f8054610f1c90612002565b80601f0160208091040260200160405190810160405280929190818152602001828054610f4890612002565b8015610f955780601f10610f6a57610100808354040283529160200191610f95565b820191906000526020600020905b815481529060010190602001808311610f7857829003601f168201915b505050505081565b60006064610feb7f00000000000000000000000000000000000000000000000000000000000000007f0000000000000000000000000000000000000000000000000000000000000000611fa0565b610ff59190611f8c565b905090565b6000807f00000000000000000000000000000000000000000000000000000000000000006001600160a01b031663feaf968c6040518163ffffffff1660e01b815260040160a06040518083038186803b15801561105657600080fd5b505afa15801561106a573d6000803e3d6000fd5b505050506040513d601f19601f8201168201806040525081019061108e9190611e01565b505050915050806402540be4006110a59190611fa0565b91505090565b600660205281600052604060002081815481106110c757600080fd5b6000918252602090912001546001600160a01b03169150829050565b600260005414156111065760405162461bcd60e51b81526004016106ec90611f3d565b6002600055600160035460009081526001602052604090205460ff16600281111561113357611133612098565b146111505760405162461bcd60e51b81526004016106ec90611f1b565b7f0000000000000000000000000000000000000000000000000000000000000000156111c35761117e61162e565b6111889082611fa0565b34146111c35760405162461bcd60e51b815260206004820152600a60248201526910905108105353d5539560b21b60448201526064016106ec565b6003546000908152600660205260409020547f0000000000000000000000000000000000000000000000000000000000000000906112019083611f74565b1115611303576003546000908152600660205260408120547f0000000000000000000000000000000000000000000000000000000000000000906112459084611f74565b61124f9190611fbf565b905061125b8183611fbf565b91507f00000000000000000000000000000000000000000000000000000000000000001561130157336108fc61128f61162e565b6112999084611fa0565b6040518115909202916000818181858888f193505050501580156112c1573d6000803e3d6000fd5b50600354604080519182526020820183905233917f73f04af9dcc582a923ec15d3eea990fe34adabfff2879e28d44572e01a54abb6910160405180910390a25b505b7f000000000000000000000000000000000000000000000000000000000000000061137157611371333061133561162e565b61133f9085611fa0565b6001600160a01b037f000000000000000000000000000000000000000000000000000000000000000016929190611911565b60005b818110156113bf5760035460009081526006602090815260408220805460018101825590835291200180546001600160a01b03191633179055806113b78161203d565b915050611374565b506113ea7f000000000000000000000000000000000000000000000000000000000000000082611fa0565b600a60008282546113fb9190611f74565b909155506114099050610f9d565b6114139082611fa0565b600960008282546114249190611f74565b9091555061145490507f000000000000000000000000000000000000000000000000000000000000000082611fa0565b600d60008282546114659190611f74565b909155506114739050610f9d565b61147d9082611fa0565b600b600082825461148e9190611f74565b90915550506003546000908152600760209081526040808320338452909152812080548392906114bf908490611f74565b90915550600090506114dc6114d261162e565b6106549084611fa0565b6003546040516375dbb8c960e01b8152336004820152602481018390526044810191909152606481018490529091507f00000000000000000000000000000000000000000000000000000000000000006001600160a01b0316906375dbb8c990608401600060405180830381600087803b15801561155957600080fd5b505af115801561156d573d6000803e3d6000fd5b505060035460408051918252602082018690523393507fafae5042b7c47abc99ba2ed5eb6f29027888c2765bbf9c479a5ef03683a489b192500160405180910390a26003546000908152600660205260409020547f000000000000000000000000000000000000000000000000000000000000000014156115f8576115f061194f565b6115f8611662565b50506001600055565b6000670de0b6b3a7640000611614610ffa565b61161e9084611fa0565b6116289190611f8c565b92915050565b6000611638610f9d565b610ff5907f0000000000000000000000000000000000000000000000000000000000000000611f74565b600380549060006116728361203d565b90915550506003546000908152600160208190526040909120805460ff1916828002179055507f0ab582f1afc29efbd503feb5b4a945175eee54010e1be75f88d3e0a865f1631f6003546040516116cb91815260200190565b60405180910390a1565b61172b8363a9059cbb60e01b84846040516024016116f4929190611e81565b60408051601f198184030181529190526020810180516001600160e01b03166001600160e01b031990931692909217909152611a1d565b505050565b6000908152600160205260409020805460ff19169055565b6002600054141561176b5760405162461bcd60e51b81526004016106ec90611f3d565b600260009081555b6000828152600660205260409020548110156118ca5760008281526006602052604081208054839081106117a9576117a96120ae565b60009182526020822001546001600160a01b031691506117c761162e565b60008581526007602090815260408083206001600160a01b03871684529091529020546117f49190611fa0565b905080156118b55760008481526007602090815260408083206001600160a01b03861684529091528120557f000000000000000000000000000000000000000000000000000000000000000015611881576040516001600160a01b0383169082156108fc029083906000818181858888f1935050505015801561187b573d6000803e3d6000fd5b506118b5565b6118b56001600160a01b037f00000000000000000000000000000000000000000000000000000000000000001683836116d5565b505080806118c29061203d565b915050611773565b50600954600b60008282546118df9190611fbf565b9091555050600a54600d80546000906118f9908490611fbf565b909155505060006009819055600a8190556001905550565b6040516001600160a01b03808516602483015283166044820152606481018290526119499085906323b872dd60e01b906084016116f4565b50505050565b6003805460009081526001602052604090819020805460ff191660021790559054905163b1eb96c960e01b815260048101919091526001600160a01b037f0000000000000000000000000000000000000000000000000000000000000000169063b1eb96c990602401600060405180830381600087803b1580156119d257600080fd5b505af11580156119e6573d6000803e3d6000fd5b505050507f8cc775ebbee0cce2baccb0a0121cb5794418a52d6edac0ea16c407d241109fd06003546040516116cb91815260200190565b6000611a72826040518060400160405280602081526020017f5361666545524332303a206c6f772d6c6576656c2063616c6c206661696c6564815250856001600160a01b0316611aef9092919063ffffffff16565b80519091501561172b5780806020019051810190611a909190611d4f565b61172b5760405162461bcd60e51b815260206004820152602a60248201527f5361666545524332303a204552433230206f7065726174696f6e20646964206e6044820152691bdd081cdd58d8d9595960b21b60648201526084016106ec565b6060611afe8484600085611b08565b90505b9392505050565b606082471015611b695760405162461bcd60e51b815260206004820152602660248201527f416464726573733a20696e73756666696369656e742062616c616e636520666f6044820152651c8818d85b1b60d21b60648201526084016106ec565b843b611bb75760405162461bcd60e51b815260206004820152601d60248201527f416464726573733a2063616c6c20746f206e6f6e2d636f6e747261637400000060448201526064016106ec565b600080866001600160a01b03168587604051611bd39190611e51565b60006040518083038185875af1925050503d8060008114611c10576040519150601f19603f3d011682016040523d82523d6000602084013e611c15565b606091505b5091509150611c25828286611c30565b979650505050505050565b60608315611c3f575081611b01565b825115611c4f5782518084602001fd5b8160405162461bcd60e51b81526004016106ec9190611ec2565b80516001600160501b0381168114611c8057600080fd5b919050565b60008060408385031215611c9857600080fd5b82356001600160401b0380821115611caf57600080fd5b818501915085601f830112611cc357600080fd5b8135602082821115611cd757611cd76120c4565b8160051b604051601f19603f83011681018181108682111715611cfc57611cfc6120c4565b604052838152828101945085830182870184018b1015611d1b57600080fd5b600096505b84871015611d3e578035865260019690960195948301948301611d20565b509997909101359750505050505050565b600060208284031215611d6157600080fd5b81518015158114611b0157600080fd5b600060208284031215611d8357600080fd5b5035919050565b600060208284031215611d9c57600080fd5b5051919050565b60008060408385031215611db657600080fd5b8235915060208301356001600160a01b0381168114611dd457600080fd5b809150509250929050565b60008060408385031215611df257600080fd5b50508035926020909101359150565b600080600080600060a08688031215611e1957600080fd5b611e2286611c69565b9450602086015193506040860151925060608601519150611e4560808701611c69565b90509295509295909350565b60008251611e63818460208701611fd6565b9190910192915050565b6001600160a01b0391909116815260200190565b6001600160a01b03929092168252602082015260400190565b6020810160038310611ebc57634e487b7160e01b600052602160045260246000fd5b91905290565b6020815260008251806020840152611ee1816040850160208701611fd6565b601f01601f19169190910160400192915050565b6020808252600c908201526b15539055551213d49256915160a21b604082015260600190565b6020808252600890820152672727aa1027a822a760c11b604082015260600190565b6020808252601f908201527f5265656e7472616e637947756172643a207265656e7472616e742063616c6c00604082015260600190565b60008219821115611f8757611f8761206c565b500190565b600082611f9b57611f9b612082565b500490565b6000816000190483118215151615611fba57611fba61206c565b500290565b600082821015611fd157611fd161206c565b500390565b60005b83811015611ff1578181015183820152602001611fd9565b838111156119495750506000910152565b600181811c9082168061201657607f821691505b6020821081141561203757634e487b7160e01b600052602260045260246000fd5b50919050565b60006000198214156120515761205161206c565b5060010190565b60008261206757612067612082565b500690565b634e487b7160e01b600052601160045260246000fd5b634e487b7160e01b600052601260045260246000fd5b634e487b7160e01b600052602160045260246000fd5b634e487b7160e01b600052603260045260246000fd5b634e487b7160e01b600052604160045260246000fdfea26469706673582212203658a769844fea0f51ab5528205fb1c04359b2ab9638f162a1993700bc26677364736f6c63430008070033",
  "linkReferences": {},
  "deployedLinkReferences": {}
}