{
  "_format": "hh-sol-artifact-1",
  "contractName": "Accountant",
  "sourceName": "contracts/Accountant.sol",
  "abi": [
    {
      "inputs": [
        {
          "internalType": "uint256",
          "name": "_periodLength",
          "type": "uint256"
        }
      ],
      "stateMutability": "nonpayable",
      "type": "constructor"
    },
    {
      "anonymous": false,
      "inputs": [
        {
          "indexed": true,
          "internalType": "address",
          "name": "player",
          "type": "address"
        },
        {
          "indexed": true,
          "internalType": "address",
          "name": "product",
          "type": "address"
        },
        {
          "indexed": true,
          "internalType": "uint256",
          "name": "round",
          "type": "uint256"
        },
        {
          "indexed": false,
          "internalType": "uint256",
          "name": "ticket",
          "type": "uint256"
        },
        {
          "indexed": false,
          "internalType": "uint256",
          "name": "credit",
          "type": "uint256"
        }
      ],
      "name": "Credit",
      "type": "event"
    },
    {
      "anonymous": false,
      "inputs": [
        {
          "indexed": true,
          "internalType": "address",
          "name": "player",
          "type": "address"
        },
        {
          "indexed": false,
          "internalType": "uint256",
          "name": "reward",
          "type": "uint256"
        },
        {
          "indexed": false,
          "internalType": "uint256",
          "name": "credit",
          "type": "uint256"
        },
        {
          "indexed": false,
          "internalType": "uint256",
          "name": "period",
          "type": "uint256"
        }
      ],
      "name": "DeclarePlayerReward",
      "type": "event"
    },
    {
      "anonymous": false,
      "inputs": [
        {
          "indexed": false,
          "internalType": "uint256",
          "name": "period",
          "type": "uint256"
        },
        {
          "indexed": false,
          "internalType": "uint256",
          "name": "amount",
          "type": "uint256"
        }
      ],
      "name": "EmptyPeriodWithdrawn",
      "type": "event"
    },
    {
      "anonymous": false,
      "inputs": [
        {
          "indexed": false,
          "internalType": "uint256",
          "name": "period",
          "type": "uint256"
        }
      ],
      "name": "NewPeriod",
      "type": "event"
    },
    {
      "anonymous": false,
      "inputs": [
        {
          "indexed": true,
          "internalType": "bytes32",
          "name": "role",
          "type": "bytes32"
        },
        {
          "indexed": true,
          "internalType": "bytes32",
          "name": "previousAdminRole",
          "type": "bytes32"
        },
        {
          "indexed": true,
          "internalType": "bytes32",
          "name": "newAdminRole",
          "type": "bytes32"
        }
      ],
      "name": "RoleAdminChanged",
      "type": "event"
    },
    {
      "anonymous": false,
      "inputs": [
        {
          "indexed": true,
          "internalType": "bytes32",
          "name": "role",
          "type": "bytes32"
        },
        {
          "indexed": true,
          "internalType": "address",
          "name": "account",
          "type": "address"
        },
        {
          "indexed": true,
          "internalType": "address",
          "name": "sender",
          "type": "address"
        }
      ],
      "name": "RoleGranted",
      "type": "event"
    },
    {
      "anonymous": false,
      "inputs": [
        {
          "indexed": true,
          "internalType": "bytes32",
          "name": "role",
          "type": "bytes32"
        },
        {
          "indexed": true,
          "internalType": "address",
          "name": "account",
          "type": "address"
        },
        {
          "indexed": true,
          "internalType": "address",
          "name": "sender",
          "type": "address"
        }
      ],
      "name": "RoleRevoked",
      "type": "event"
    },
    {
      "anonymous": false,
      "inputs": [
        {
          "indexed": false,
          "internalType": "address",
          "name": "governance",
          "type": "address"
        }
      ],
      "name": "SetGovernance",
      "type": "event"
    },
    {
      "anonymous": false,
      "inputs": [
        {
          "indexed": false,
          "internalType": "address",
          "name": "tokenDistributor",
          "type": "address"
        }
      ],
      "name": "SetTokenDistributor",
      "type": "event"
    },
    {
      "inputs": [],
      "name": "DEFAULT_ADMIN_ROLE",
      "outputs": [
        {
          "internalType": "bytes32",
          "name": "",
          "type": "bytes32"
        }
      ],
      "stateMutability": "view",
      "type": "function"
    },
    {
      "inputs": [],
      "name": "OPERATOR_ROLE",
      "outputs": [
        {
          "internalType": "bytes32",
          "name": "",
          "type": "bytes32"
        }
      ],
      "stateMutability": "view",
      "type": "function"
    },
    {
      "inputs": [
        {
          "internalType": "address",
          "name": "_player",
          "type": "address"
        },
        {
          "internalType": "uint256",
          "name": "_credit",
          "type": "uint256"
        },
        {
          "internalType": "uint256",
          "name": "_round",
          "type": "uint256"
        },
        {
          "internalType": "uint256",
          "name": "_ticket",
          "type": "uint256"
        }
      ],
      "name": "credit",
      "outputs": [],
      "stateMutability": "nonpayable",
      "type": "function"
    },
    {
      "inputs": [],
      "name": "currentPeriodBlock",
      "outputs": [
        {
          "internalType": "uint256",
          "name": "",
          "type": "uint256"
        }
      ],
      "stateMutability": "view",
      "type": "function"
    },
    {
      "inputs": [
        {
          "internalType": "bytes32",
          "name": "role",
          "type": "bytes32"
        }
      ],
      "name": "getRoleAdmin",
      "outputs": [
        {
          "internalType": "bytes32",
          "name": "",
          "type": "bytes32"
        }
      ],
      "stateMutability": "view",
      "type": "function"
    },
    {
      "inputs": [],
      "name": "governance",
      "outputs": [
        {
          "internalType": "contract IGovernance",
          "name": "",
          "type": "address"
        }
      ],
      "stateMutability": "view",
      "type": "function"
    },
    {
      "inputs": [
        {
          "internalType": "bytes32",
          "name": "role",
          "type": "bytes32"
        },
        {
          "internalType": "address",
          "name": "account",
          "type": "address"
        }
      ],
      "name": "grantRole",
      "outputs": [],
      "stateMutability": "nonpayable",
      "type": "function"
    },
    {
      "inputs": [
        {
          "internalType": "bytes32",
          "name": "role",
          "type": "bytes32"
        },
        {
          "internalType": "address",
          "name": "account",
          "type": "address"
        }
      ],
      "name": "hasRole",
      "outputs": [
        {
          "internalType": "bool",
          "name": "",
          "type": "bool"
        }
      ],
      "stateMutability": "view",
      "type": "function"
    },
    {
      "inputs": [],
      "name": "period",
      "outputs": [
        {
          "internalType": "uint256",
          "name": "",
          "type": "uint256"
        }
      ],
      "stateMutability": "view",
      "type": "function"
    },
    {
      "inputs": [
        {
          "internalType": "uint256",
          "name": "",
          "type": "uint256"
        }
      ],
      "name": "periodCredit",
      "outputs": [
        {
          "internalType": "uint256",
          "name": "",
          "type": "uint256"
        }
      ],
      "stateMutability": "view",
      "type": "function"
    },
    {
      "inputs": [],
      "name": "periodLength",
      "outputs": [
        {
          "internalType": "uint256",
          "name": "",
          "type": "uint256"
        }
      ],
      "stateMutability": "view",
      "type": "function"
    },
    {
      "inputs": [
        {
          "internalType": "uint256",
          "name": "",
          "type": "uint256"
        }
      ],
      "name": "periodReward",
      "outputs": [
        {
          "internalType": "uint256",
          "name": "",
          "type": "uint256"
        }
      ],
      "stateMutability": "view",
      "type": "function"
    },
    {
      "inputs": [
        {
          "internalType": "address",
          "name": "",
          "type": "address"
        }
      ],
      "name": "playerCredit",
      "outputs": [
        {
          "internalType": "uint256",
          "name": "",
          "type": "uint256"
        }
      ],
      "stateMutability": "view",
      "type": "function"
    },
    {
      "inputs": [
        {
          "internalType": "address",
          "name": "",
          "type": "address"
        }
      ],
      "name": "playerReward",
      "outputs": [
        {
          "internalType": "uint256",
          "name": "",
          "type": "uint256"
        }
      ],
      "stateMutability": "view",
      "type": "function"
    },
    {
      "inputs": [
        {
          "internalType": "bytes32",
          "name": "role",
          "type": "bytes32"
        },
        {
          "internalType": "address",
          "name": "account",
          "type": "address"
        }
      ],
      "name": "renounceRole",
      "outputs": [],
      "stateMutability": "nonpayable",
      "type": "function"
    },
    {
      "inputs": [
        {
          "internalType": "bytes32",
          "name": "role",
          "type": "bytes32"
        },
        {
          "internalType": "address",
          "name": "account",
          "type": "address"
        }
      ],
      "name": "revokeRole",
      "outputs": [],
      "stateMutability": "nonpayable",
      "type": "function"
    },
    {
      "inputs": [
        {
          "internalType": "address",
          "name": "_governance",
          "type": "address"
        }
      ],
      "name": "setGovernance",
      "outputs": [],
      "stateMutability": "nonpayable",
      "type": "function"
    },
    {
      "inputs": [
        {
          "internalType": "address",
          "name": "_distributor",
          "type": "address"
        }
      ],
      "name": "setTokenDistributor",
      "outputs": [],
      "stateMutability": "nonpayable",
      "type": "function"
    },
    {
      "inputs": [],
      "name": "startBlock",
      "outputs": [
        {
          "internalType": "uint256",
          "name": "",
          "type": "uint256"
        }
      ],
      "stateMutability": "view",
      "type": "function"
    },
    {
      "inputs": [
        {
          "internalType": "bytes4",
          "name": "interfaceId",
          "type": "bytes4"
        }
      ],
      "name": "supportsInterface",
      "outputs": [
        {
          "internalType": "bool",
          "name": "",
          "type": "bool"
        }
      ],
      "stateMutability": "view",
      "type": "function"
    },
    {
      "inputs": [],
      "name": "tokenDistributor",
      "outputs": [
        {
          "internalType": "contract ITokenDistributor",
          "name": "",
          "type": "address"
        }
      ],
      "stateMutability": "view",
      "type": "function"
    },
    {
      "inputs": [],
      "name": "totalReward",
      "outputs": [
        {
          "internalType": "uint256",
          "name": "",
          "type": "uint256"
        }
      ],
      "stateMutability": "view",
      "type": "function"
    },
    {
      "inputs": [],
      "name": "totalUnclaimed",
      "outputs": [
        {
          "internalType": "uint256",
          "name": "",
          "type": "uint256"
        }
      ],
      "stateMutability": "view",
      "type": "function"
    }
  ],
  "bytecode": "0x60a060405234801561001057600080fd5b5060405161144738038061144783398101604081905261002f916100f1565b608081905261003f600033610045565b5061010a565b61004f8282610053565b5050565b6000828152602081815260408083206001600160a01b038516845290915290205460ff1661004f576000828152602081815260408083206001600160a01b03851684529091529020805460ff191660011790556100ad3390565b6001600160a01b0316816001600160a01b0316837f2f8788117e7eff1d82e926ec794901d17c78024a50270940304540a733656f0d60405160405180910390a45050565b60006020828403121561010357600080fd5b5051919050565b60805161130d61013a600039600081816102a101528181610318015281816105040152610d98015261130d6000f3fe608060405234801561001057600080fd5b506004361061011c5760003560e01c80627fcc521461012157806301ffc9a71461013c5780630642cd511461015f57806318a6bc321461017f578063248a9ca31461019f5780632f2ff15d146101b257806336568abe146101c757806338280e6b146101da57806348cd4cb1146101ed5780634fdab826146101f65780635aa6e67514610216578063750142e61461022957806375dbb8c91461023257806391d148541461024557806396033b7614610258578063a217fddf14610278578063ab033ea914610280578063c96f14b814610293578063d2ca21151461029c578063d547741f146102c3578063ee64a8dc146102d6578063ef78d4fd146102f6578063f5b541a6146102ff575b600080fd5b610129610314565b6040519081526020015b60405180910390f35b61014f61014a366004611078565b610354565b6040519015158152602001610133565b61012961016d366004610fbd565b600b6020526000908152604090205481565b600254610192906001600160a01b031681565b604051610133919061112a565b6101296101ad366004611033565b61038b565b6101c56101c036600461104c565b6103a0565b005b6101c56101d536600461104c565b6103c2565b6101c56101e8366004610fbd565b610445565b61012960045481565b610129610204366004611033565b60096020526000908152604090205481565b600154610192906001600160a01b031681565b61012960065481565b6101c5610240366004610fd8565b6105d4565b61014f61025336600461104c565b6107e1565b610129610266366004610fbd565b600a6020526000908152604090205481565b610129600081565b6101c561028e366004610fbd565b61080a565b61012960075481565b6101297f000000000000000000000000000000000000000000000000000000000000000081565b6101c56102d136600461104c565b61086e565b6101296102e4366004611033565b60086020526000908152604090205481565b61012960035481565b6101296000805160206112b883398151915281565b60007f00000000000000000000000000000000000000000000000000000000000000006004544361034591906111bc565b61034f9190611235565b905090565b60006001600160e01b03198216637965db0b60e01b148061038557506301ffc9a760e01b6001600160e01b03198316145b92915050565b60009081526020819052604090206001015490565b6103a98261038b565b6103b3813361088b565b6103bd83836108ef565b505050565b6001600160a01b03811633146104375760405162461bcd60e51b815260206004820152602f60248201527f416363657373436f6e74726f6c3a2063616e206f6e6c792072656e6f756e636560448201526e103937b632b9903337b91039b2b63360891b60648201526084015b60405180910390fd5b6104418282610973565b5050565b6000805160206112b883398151915261045e813361088b565b600280546001600160a01b0319166001600160a01b03841690811790915560408051631cd9f41360e11b815290516339b3e82691600480820192602092909190829003018186803b1580156104b257600080fd5b505afa1580156104c6573d6000803e3d6000fd5b505050506040513d601f19601f820116820180604052508101906104ea91906110a2565b600490815560025460408051630ef52d1f60e31b815290517f0000000000000000000000000000000000000000000000000000000000000000936001600160a01b03909316926377a968f892808201926020929091829003018186803b15801561055357600080fd5b505afa158015610567573d6000803e3d6000fd5b505050506040513d601f19601f8201168201806040525081019061058b91906110a2565b610595919061119d565b6005556040517fba1832a8dec002e702f46eda924c05ec11615318db3b982022d49e10a74cd182906105c890849061112a565b60405180910390a15050565b6001546001600160a01b0316637fd29192336040518263ffffffff1660e01b8152600401610602919061112a565b60206040518083038186803b15801561061a57600080fd5b505afa15801561062e573d6000803e3d6000fd5b505050506040513d601f19601f820116820180604052508101906106529190611011565b151560011461066057600080fd5b60025460408051630ef52d1f60e31b815290516000926001600160a01b0316916377a968f8916004808301926020929190829003018186803b1580156106a557600080fd5b505afa1580156106b9573d6000803e3d6000fd5b505050506040513d601f19601f820116820180604052508101906106dd91906110a2565b90508015610732576106ed6109d8565b6003546000908152600860205260409020546107325760055460035460009081526008602052604081208290556006805490919061072c908490611171565b90915550505b60035460009081526009602052604081208054869290610753908490611171565b90915550506001600160a01b0385166000908152600a602052604081208054869290610780908490611171565b909155506107919050600c86610bdd565b506040805183815260208101869052849133916001600160a01b038916917f73fdfd157653acba07c4ff0f0e2ea18b8b34245d7e5acdaa7aeb118200e01f32910160405180910390a45050505050565b6000918252602082815260408084206001600160a01b0393909316845291905290205460ff1690565b6000805160206112b8833981519152610823813361088b565b600180546001600160a01b0319166001600160a01b0384161790556040517f24a8c4807b324a269a51827c3446b8ac1cc13810d7d0c0ca1efafabddd7b6219906105c890849061112a565b6108778261038b565b610881813361088b565b6103bd8383610973565b61089582826107e1565b610441576108ad816001600160a01b03166014610bf9565b6108b8836020610bf9565b6040516020016108c99291906110bb565b60408051601f198184030181529082905262461bcd60e51b825261042e9160040161113e565b6108f982826107e1565b610441576000828152602081815260408083206001600160a01b03851684529091529020805460ff1916600117905561092f3390565b6001600160a01b0316816001600160a01b0316837f2f8788117e7eff1d82e926ec794901d17c78024a50270940304540a733656f0d60405160405180910390a45050565b61097d82826107e1565b15610441576000828152602081815260408083206001600160a01b0385168085529252808320805460ff1916905551339285917ff6391f5c32d9c69d2a47ea670b442974b53935d1edc7fd64eb21e047a839171b9190a45050565b6109e0610d94565b60035414610bdb5760005b6109f5600c610dcf565b811015610b03576000610a09600c83610dd9565b6003546000818152600960209081526040808320546001600160a01b0386168452600a835281842054948452600890925282205493945090929091610a4d9161119d565b610a579190611189565b6001600160a01b0383166000908152600b6020526040812080549293508392909190610a84908490611171565b90915550506001600160a01b0382166000818152600a602052604080822082905560035490517f484b1d0a85e602e7fdc3f47a6f9109a95960a90018a239bb1792ebf45429040d92610ae6928683526020830191909152604082015260600190565b60405180910390a250508080610afb9061121a565b9150506109eb565b50610b0e600c610de5565b60006003546001610b1f9190611171565b90505b610b2a610d94565b811015610b995760055460076000828254610b459190611171565b90915550506005546040805183815260208101929092527f4cb4e763794dd499692e35e357885f74fcdbfd43cd529438f6a35784e66c4040910160405180910390a180610b918161121a565b915050610b22565b50610ba2610d94565b60038190556040519081527f61a611267e7ed28f8a566b021b9ac3ccc3985343a31971a180d01a57f63f33809060200160405180910390a15b565b6000610bf2836001600160a01b038416610e25565b9392505050565b60606000610c0883600261119d565b610c13906002611171565b6001600160401b03811115610c2a57610c2a6112a1565b6040519080825280601f01601f191660200182016040528015610c54576020820181803683370190505b509050600360fc1b81600081518110610c6f57610c6f61128b565b60200101906001600160f81b031916908160001a905350600f60fb1b81600181518110610c9e57610c9e61128b565b60200101906001600160f81b031916908160001a9053506000610cc284600261119d565b610ccd906001611171565b90505b6001811115610d45576f181899199a1a9b1b9c1cb0b131b232b360811b85600f1660108110610d0157610d0161128b565b1a60f81b828281518110610d1757610d1761128b565b60200101906001600160f81b031916908160001a90535060049490941c93610d3e81611203565b9050610cd0565b508315610bf25760405162461bcd60e51b815260206004820181905260248201527f537472696e67733a20686578206c656e67746820696e73756666696369656e74604482015260640161042e565b60007f000000000000000000000000000000000000000000000000000000000000000060045443610dc591906111bc565b61034f9190611189565b6000610385825490565b6000610bf28383610e74565b6000610df082610dcf565b905060005b818110156103bd57610e12610e0b846000610dd9565b8490610e9e565b5080610e1d8161121a565b915050610df5565b6000818152600183016020526040812054610e6c57508154600181810184556000848152602080822090930184905584548482528286019093526040902091909155610385565b506000610385565b6000826000018281548110610e8b57610e8b61128b565b9060005260206000200154905092915050565b6000610bf2836001600160a01b03841660008181526001830160205260408120548015610f97576000610ed26001836111bc565b8554909150600090610ee6906001906111bc565b9050818114610f4b576000866000018281548110610f0657610f0661128b565b9060005260206000200154905080876000018481548110610f2957610f2961128b565b6000918252602080832090910192909255918252600188019052604090208390555b8554869080610f5c57610f5c611275565b600190038181906000526020600020016000905590558560010160008681526020019081526020016000206000905560019350505050610385565b6000915050610385565b80356001600160a01b0381168114610fb857600080fd5b919050565b600060208284031215610fcf57600080fd5b610bf282610fa1565b60008060008060808587031215610fee57600080fd5b610ff785610fa1565b966020860135965060408601359560600135945092505050565b60006020828403121561102357600080fd5b81518015158114610bf257600080fd5b60006020828403121561104557600080fd5b5035919050565b6000806040838503121561105f57600080fd5b8235915061106f60208401610fa1565b90509250929050565b60006020828403121561108a57600080fd5b81356001600160e01b031981168114610bf257600080fd5b6000602082840312156110b457600080fd5b5051919050565b76020b1b1b2b9b9a1b7b73a3937b61d1030b1b1b7bab73a1604d1b8152600083516110ed8160178501602088016111d3565b7001034b99036b4b9b9b4b733903937b6329607d1b601791840191820152835161111e8160288401602088016111d3565b01602801949350505050565b6001600160a01b0391909116815260200190565b602081526000825180602084015261115d8160408501602087016111d3565b601f01601f19169190910160400192915050565b6000821982111561118457611184611249565b500190565b6000826111985761119861125f565b500490565b60008160001904831182151516156111b7576111b7611249565b500290565b6000828210156111ce576111ce611249565b500390565b60005b838110156111ee5781810151838201526020016111d6565b838111156111fd576000848401525b50505050565b60008161121257611212611249565b506000190190565b600060001982141561122e5761122e611249565b5060010190565b6000826112445761124461125f565b500690565b634e487b7160e01b600052601160045260246000fd5b634e487b7160e01b600052601260045260246000fd5b634e487b7160e01b600052603160045260246000fd5b634e487b7160e01b600052603260045260246000fd5b634e487b7160e01b600052604160045260246000fdfe97667070c54ef182b0f5858b034beac1b6f3089aa2d3188bb1e8929f4fa9b929a2646970667358221220e3382b108985dc6a064bbe322921cd5a084b6a4bf3119d76ef239b99da3f6bb464736f6c63430008070033",
  "linkReferences": {},
  "deployedLinkReferences": {}
}