{
  "_format": "hh-sol-artifact-1",
  "contractName": "Accountant",
  "sourceName": "contracts/Accountant.sol",
  "abi": [
    {
      "anonymous": false,
      "inputs": [
        {
          "indexed": true,
          "internalType": "address",
          "name": "player",
          "type": "address"
        },
        {
          "indexed": true,
          "internalType": "address",
          "name": "product",
          "type": "address"
        },
        {
          "indexed": true,
          "internalType": "uint256",
          "name": "round",
          "type": "uint256"
        },
        {
          "indexed": false,
          "internalType": "uint256",
          "name": "ticket",
          "type": "uint256"
        },
        {
          "indexed": false,
          "internalType": "uint256",
          "name": "point",
          "type": "uint256"
        }
      ],
      "name": "Credit",
      "type": "event"
    },
    {
      "anonymous": false,
      "inputs": [
        {
          "indexed": true,
          "internalType": "address",
          "name": "previousOwner",
          "type": "address"
        },
        {
          "indexed": true,
          "internalType": "address",
          "name": "newOwner",
          "type": "address"
        }
      ],
      "name": "OwnershipTransferred",
      "type": "event"
    },
    {
      "inputs": [
        {
          "internalType": "address",
          "name": "player",
          "type": "address"
        },
        {
          "internalType": "uint256",
          "name": "point",
          "type": "uint256"
        },
        {
          "internalType": "uint256",
          "name": "round",
          "type": "uint256"
        },
        {
          "internalType": "uint256",
          "name": "ticket",
          "type": "uint256"
        }
      ],
      "name": "credit",
      "outputs": [],
      "stateMutability": "nonpayable",
      "type": "function"
    },
    {
      "inputs": [],
      "name": "owner",
      "outputs": [
        {
          "internalType": "address",
          "name": "",
          "type": "address"
        }
      ],
      "stateMutability": "view",
      "type": "function"
    },
    {
      "inputs": [],
      "name": "renounceOwnership",
      "outputs": [],
      "stateMutability": "nonpayable",
      "type": "function"
    },
    {
      "inputs": [
        {
          "internalType": "address",
          "name": "_governance",
          "type": "address"
        }
      ],
      "name": "setGovernance",
      "outputs": [],
      "stateMutability": "nonpayable",
      "type": "function"
    },
    {
      "inputs": [
        {
          "internalType": "address",
          "name": "newOwner",
          "type": "address"
        }
      ],
      "name": "transferOwnership",
      "outputs": [],
      "stateMutability": "nonpayable",
      "type": "function"
    }
  ],
  "bytecode": "0x608060405234801561001057600080fd5b5061001a3361001f565b61006f565b600080546001600160a01b038381166001600160a01b0319831681178455604051919092169283917f8be0079c531659141344cd1fd0a4f28419497f9722a3daafe3b4186f6b6457e09190a35050565b6104438061007e6000396000f3fe608060405234801561001057600080fd5b50600436106100575760003560e01c8063715018a61461005c57806375dbb8c9146100665780638da5cb5b14610079578063ab033ea914610097578063f2fde38b146100aa575b600080fd5b6100646100bd565b005b610064610074366004610369565b610101565b6100816101db565b60405161008e91906103c4565b60405180910390f35b6100646100a5366004610347565b6101ea565b6100646100b8366004610347565b61023b565b336100c66101db565b6001600160a01b0316146100f55760405162461bcd60e51b81526004016100ec906103d8565b60405180910390fd5b6100ff60006102db565b565b6001546001600160a01b0316637fd29192336040518263ffffffff1660e01b815260040161012f91906103c4565b60206040518083038186803b15801561014757600080fd5b505afa15801561015b573d6000803e3d6000fd5b505050506040513d601f19601f8201168201806040525081019061017f91906103a2565b151560011461018d57600080fd5b6040805182815260208101859052839133916001600160a01b038816917f73fdfd157653acba07c4ff0f0e2ea18b8b34245d7e5acdaa7aeb118200e01f32910160405180910390a450505050565b6000546001600160a01b031690565b336101f36101db565b6001600160a01b0316146102195760405162461bcd60e51b81526004016100ec906103d8565b600180546001600160a01b0319166001600160a01b0392909216919091179055565b336102446101db565b6001600160a01b03161461026a5760405162461bcd60e51b81526004016100ec906103d8565b6001600160a01b0381166102cf5760405162461bcd60e51b815260206004820152602660248201527f4f776e61626c653a206e6577206f776e657220697320746865207a65726f206160448201526564647265737360d01b60648201526084016100ec565b6102d8816102db565b50565b600080546001600160a01b038381166001600160a01b0319831681178455604051919092169283917f8be0079c531659141344cd1fd0a4f28419497f9722a3daafe3b4186f6b6457e09190a35050565b80356001600160a01b038116811461034257600080fd5b919050565b60006020828403121561035957600080fd5b6103628261032b565b9392505050565b6000806000806080858703121561037f57600080fd5b6103888561032b565b966020860135965060408601359560600135945092505050565b6000602082840312156103b457600080fd5b8151801515811461036257600080fd5b6001600160a01b0391909116815260200190565b6020808252818101527f4f776e61626c653a2063616c6c6572206973206e6f7420746865206f776e657260408201526060019056fea26469706673582212203a06c66898bf5e5a9384c411c168e2b05b5b24a70dc934965e8934454c96af8f64736f6c63430008070033",
  "linkReferences": {},
  "deployedLinkReferences": {}
}